:100000000C942A000C943F000C943F000C943F0089
:100010000C943F000C943F000C943F000C943F0064
:100020000C943F000C943F000C943F000C943F0054
:100030000C943F000C943F000C943F000C943F0044
:100040000C943F000C943F000C943F000C943F0034
:100050000C943F0011241FBECFE5D8E0DEBFCDBF1A
:1000600011E0A0E6B0E0E0EDF7E702C005900D92E8
:10007000A43BB107D9F70E9420240C94E63B0C94D2
:100080000000EF92FF920F93DF93CF93CDB7DEB7CF
:1000900060970FB6F894DEBF0FBECDBFA82F002328
:1000A00009F461C07E010894E11CF11C88E0F701AD
:1000B00011928A95E9F729833A834B835C836D8398
:1000C0007E83AF83988780E2801BE82FFF27E7FDC0
:1000D000F09549815A816B817C81181684F01986CC
:1000E0001A861B861C86882799278E1B9F0B04C0A7
:1000F000440F551F661F771F8A95D2F728C0202FFF
:10010000332727FD3095DB01CA01022E04C0880F7A
:10011000991FAA1FBB1F0A94D2F789879A87AB87BA
:10012000BC8704C07695679557954795EA95D2F7B1
:100130008D819E81AF81B88504C0880F991FAA1F49
:10014000BB1F2A95D2F7482B592B6A2B7B2B4D8747
:100150005E876F87788B29853A854B855C856D85B1
:100160007E85AF8598898A2F60960FB6F894DEBF9A
:100170000FBECDBFCF91DF910F91FF90EF9008950B
:10018000EF92FF920F931F937B018C0120E030E0F0
:1001900040E05FE40E940A2188238CF0C801B70187
:1001A00020E030E040E05FE40E94821F0E946A216C
:1001B0009B01AC01205030404040504806C0C8016F
:1001C000B7010E946A219B01AC01B901CA011F91CC
:1001D0000F91FF90EF900895A2E7B0E0E2EFF0E01A
:1001E0000C94AF3B982E892E712E88E0FE0131963B
:1001F000DF01682E1D926A94E9F729833A834B83C5
:100200005C836D837E839F829887FE013996DF0130
:100210001D928A95E9F7A986BA86CB86DC86ED869B
:10022000FE860F87188B8D819E81AF81B885B7FDC3
:1002300007C0E1961CAE1DAE1EAE1FAEE19764C0B6
:10024000219581E0121608F080E0319591E01316B7
:1002500008F090E0B32FB81B81E03B1708F080E076
:10026000982B419531E0141608F030E0A42FA91B1B
:1002700081E04A1708F080E0382B519591E015167F
:1002800008F090E0F52FF31B81E05F1708F080E0A5
:10029000982B619531E0161608F030E0E62FE91B47
:1002A00081E06E1708F080E0382B719541E0171659
:1002B00008F040E0572F531B81E0751708F080E0ED
:1002C000482B892D819591E0181608F090E0682E52
:1002D000641A462D31E0861508F030E0932B882D06
:1002E0008195891B2983BA83AB83FC83ED835E836D
:1002F0004F8388872FEF3FEF4FEF5FEFE1962CAFF3
:100300003DAF4EAF5FAFE1978D859E85AF85B889D4
:10031000B7FF6AC0E1964CAD5DAD6EAD7FADE197C4
:100320004095509560957095E1964CAF5DAF6EAF7E
:100330007FAFE197A19481E01A1408F080E0B194B6
:1003400091E01B1408F090E06B2D681B81E0B6165D
:1003500008F080E0982BC19421E01C1408F020E004
:100360005C2D591B81E0C51608F080E0282BD19444
:1003700091E01D1408F090E04D2D421B81E0D41651
:1003800008F080E0982BE19421E01E1408F020E0B2
:100390003E2D391B81E0E31608F080E0282BF19414
:1003A00091E01F1408F090E07F2D721B272F81E051
:1003B000F71608F080E0982B019511E0101608F070
:1003C00010E0802F891B982F81E0091708F080E04A
:1003D000182B872D8195811BA9866A875B874C879F
:1003E0003D872E879F87888B99812A813B814C810D
:1003F0005D816E817F81A885B9851A850B85FC8416
:10040000ED84DE84CF84B88888E0E1E18E2E912CE3
:100410008C0E9D1EF401682E11926A94E9F7998B57
:100420002A8B3B8B4C8B5D8B6E8B7F8BA88F9E01B9
:10043000275E3F4FF90111928A95E9F7B98F1A8F1C
:100440000B8FFC8EED8EDE8ECF8EB8A2298C3A8C6F
:100450004B8C5C8CED8CFE8C0F8D18A169887A8892
:100460008B889C8821966CAE7DAE8EAE9FAE219718
:100470006D887E888F88988CE114F1040105110540
:1004800009F0D9C3621473048404950408F057C1B9
:1004900000E0201600E0300601E0400600E05006D3
:1004A00088F41FEF211631044104510439F030F073
:1004B00048E0E42EF12C012D112D18C0EE24FF246C
:1004C000870114C020E0221620E0320620E0420618
:1004D00021E0520630F038E1E32EF12C012D112DF0
:1004E00005C020E1E22EF12C012D112DD201C10118
:1004F0000E2C04C0B695A795979587950A94D2F7C8
:100500008D589F4FDC012C9180E290E0A0E0B0E09C
:100510008E199F09A00BB10B7C018D01E21AF10825
:1005200001091109E114F10401051105D1F10E2CA5
:1005300004C0220C331C441C551C0A94D2F7A4019D
:1005400093010E2C04C0220F331F441F551F0A9421
:10055000D2F780E290E08E199F0921966CAC7DACB9
:100560008EAC9FAC219704C096948794779467943F
:100570008A95D2F7622A732A842A952A2196ACACEE
:10058000BDACCEACDFAC219704C0AA0CBB1CCC1C0C
:10059000DD1CEA94D2F72196ACAEBDAECEAEDFAE96
:1005A00021976201EE24FF242996CCAEDDAEEEAE9B
:1005B000FFAE299792018101207030702D960CAF0B
:1005C0001DAF2EAF3FAF2D97C401B301A701960118
:1005D0000E948D3B7B018C01C401B30129962CAD97
:1005E0003DAD4EAD5FAD29970E948D3BC901DA014B
:1005F0003C014D01C401B3012D962CAD3DAD4EAD76
:100600005FAD2D970E946E3B9B01AC018701FF24DB
:10061000EE242196ACACBDACCEACDFAC2197C601CC
:10062000AA27BB2757016801A82AB92ACA2ADB2AA8
:10063000A216B306C406D506E0F408946108710852
:1006400081089108A20CB31CC41CD51CA214B304CD
:10065000C404D50470F0A216B306C406D50648F447
:1006600008946108710881089108A20CB31CC41C8D
:10067000D51CA21AB30AC40AD50AC601B501299627
:100680002CAD3DAD4EAD5FAD29970E948D3B7B01FA
:100690008C01C601B50129962CAD3DAD4EAD5FADC7
:1006A00029970E948D3BC901DA015C016D01C601E9
:1006B000B5012D962CAD3DAD4EAD5FAD2D970E9491
:1006C0006E3B9B01AC018701FF24EE2421968CAD8B
:1006D0009DADAEADBFAD2197A070B070E82AF92AEC
:1006E0000A2B1B2BE216F30604071507C0F4089427
:1006F000A108B108C108D108E20CF31C041D151DA6
:10070000E214F3040405150550F0E216F30604079D
:10071000150728F40894A108B108C108D108D3012D
:100720009927882786017501E82AF92A0A2B1B2BAD
:100730002596ECAEFDAE0EAF1FAF2597EBC421148E
:1007400031044104510471F461E070E080E090E014
:1007500020E030E040E050E00E948D3BC901DA012A
:100760001C012D0100E0201600E0300601E04006EB
:1007700000E0500688F41FEF2116310441045104B3
:1007800031F028F048E050E060E070E017C040E051
:1007900050E060E070E012C020E0221620E0320657
:1007A00020E0420621E0520628F048E150E060E0F7
:1007B00070E004C040E150E060E070E0D201C101AF
:1007C000042E04C0B695A795979587950A94D2F7FD
:1007D0008D589F4FDC012C91E0E2EE2EF12C012D83
:1007E000112DD801C701841B950BA60BB70B821BDB
:1007F0009109A109B1090097A105B10561F464014E
:100800005301A218B308C408D50831E0632E712C37
:10081000812C912C24C1E3968FAFE397082E04C05E
:10082000220C331C441C551C0A94D2F7EE2DE81BF5
:10083000640153010E2E04C0D694C794B794A794B4
:100840000A94D2F7A4019301E3960FACE39704C096
:10085000220F331F441F551F0A94D2F721966CAC08
:100860007DAC8EAC9FAC21970E2E04C096948794DD
:10087000779467940A94D2F784017301E22AF32AE9
:10088000042B152BE9AEFAAE0BAF1CAF3201882456
:100890009924920181012070307061960CAF1DAFD8
:1008A0002EAF3FAF6197C601B501A40193010E942D
:1008B0008D3B7B018C01C601B501A40193010E940F
:1008C0008D3BC901DA0165968CAF9DAFAEAFBFAF6E
:1008D0006597BC01CD0161962CAD3DAD4EAD5FADD0
:1008E00061970E946E3B9B01AC018701FF24EE24BF
:1008F000A9ACBAACCBACDCACC601AA27BB275C0167
:100900006D01AE28BF28C02AD12AA216B306C4069C
:10091000D50660F565966CAD7DAD8EAD9FAD6597E6
:10092000615070408040904065966CAF7DAF8EAF57
:100930009FAF6597A20CB31CC41CD51CA214B304B2
:10094000C404D50498F0A216B306C406D50670F404
:10095000615070408040904065966CAF7DAF8EAF27
:100960009FAF6597A20CB31CC41CD51CA21AB30A76
:10097000C40AD50AC601B501A40193010E948D3BAA
:100980007B018C01C601B501A40193010E948D3B3E
:10099000C901DA013C014D01C401B30161962CADDE
:1009A0003DAD4EAD5FAD61970E946E3B9B01AC01CA
:1009B0008701FF24EE2489AD9AADABADBCADA0702C
:1009C000B07057016801A82AB92ACA2ADB2AA216E0
:1009D000B306C406D506E0F40894610871088108DE
:1009E0009108A20CB31CC41CD51CA214B304C404EB
:1009F000D50470F0A216B306C406D50648F40894D0
:100A00006108710881089108A20CB31CC41CD51C94
:100A100021968CAD9DADAEADBFAD2197E3960FACE9
:100A2000E39704C0880F991FAA1FBB1F0A94D2F72F
:100A300021968CAF9DAFAEAFBFAF2197A21AB30A7C
:100A4000C40AD50A6596ECACFDAC0EAD1FAD65973A
:100A5000D70199278827682A792A8A2A9B2A82011E
:100A60002227332769960CAF1DAF2EAF3FAF699792
:100A7000A2019101407050706D962CAF3DAF4EAF0A
:100A80005FAF6D97C601B50169962CAD3DAD4EAD1A
:100A90005FAD69970E948D3B7B018C01C601B5015A
:100AA00069962CAD3DAD4EAD5FAD69970E948D3B13
:100AB000C901DA01A1968CAF9DAFAEAFBFAFA197D0
:100AC000BC01CD016D962CAD3DAD4EAD5FAD6D97CA
:100AD0000E946E3B9B01AC018701FF24EE2421960E
:100AE000ACACBDACCEACDFAC2197C601AA27BB270E
:100AF00057016801A82AB92ACA2ADB2AA216B30616
:100B0000C406D50660F5A1966CAD7DAD8EAD9FADEA
:100B1000A1976150704080409040A1966CAF7DAF2E
:100B20008EAF9FAFA197A20CB31CC41CD51CA214FE
:100B3000B304C404D50498F0A216B306C406D506BF
:100B400070F46150704080409040A1966CAF7DAFD2
:100B50008EAF9FAFA197A20CB31CC41CD51CA21AC8
:100B6000B30AC40AD50AC601B50169962CAD3DADDC
:100B70004EAD5FAD69970E948D3B7B018C01C60134
:100B8000B50169962CAD3DAD4EAD5FAD69970E9444
:100B90008D3BC901DA015C016D01C601B5016D969D
:100BA0002CAD3DAD4EAD5FAD6D970E946E3B9B0190
:100BB000AC018701FF24EE2421968CAD9DADAEAD36
:100BC000BFAD2197A070B070E82AF92A0A2B1B2B21
:100BD000E216F30604071507C0F40894A108B1084B
:100BE000C108D108E20CF31C041D151DE214F30426
:100BF0000405150550F0E216F3060407150728F45E
:100C00000894A108B108C108D108A196ECACFDACCC
:100C10000EAD1FADA197D7019927882796018501B1
:100C2000082B192B2A2B3B2B25960CAF1DAF2EAF73
:100C30003FAF259772C26E147F048006910608F4B8
:100C40005FC220E0E21620E0F20621E0020720E089
:100C5000120788F43FEFE316F1040105110531F0A6
:100C600028F048E050E060E070E017C040E050E05D
:100C700060E070E012C040E0E41640E0F40640E0BE
:100C8000040741E0140728F048E150E060E070E01C
:100C900004C040E150E060E070E0D801C701042EDC
:100CA00004C0B695A795979587950A94D2F78D5865
:100CB0009F4FDC012C9130E2A32EB12CC12CD12C02
:100CC000D601C501841B950BA60BB70B821B91099E
:100CD000A109B1090097A105B10599F4E614F7043B
:100CE0000805190508F4FEC121966CAC7DAC8EACEC
:100CF0009FAC2197621473048404950408F0F2C138
:100D0000FFC1E2968FAFE297082E04C0EE0CFF1CE5
:100D1000001F111F0A94D2F76A2D681BD201C1016E
:100D2000062E04C0B695A795979587950A94D2F795
:100D30005C016D01AE28BF28C02AD12AADAABEAA87
:100D4000CFAAD8AE72016101E2960FACE29704C05F
:100D5000CC0CDD1CEE1CFF1C0A94D2F7C9AADAAA3F
:100D6000EBAAFCAA64015301062E04C0D694C794D2
:100D7000B794A7940A94D2F7D401C301E2960FACBA
:100D8000E29704C0880F991FAA1FBB1F0A94D2F7CD
:100D90002196ECACFDAC0EAD1FAD219704C01695AD
:100DA0000795F794E7946A95D2F737014801682AC6
:100DB000792A8A2A9B2A6DA67EA68FA698AAEDA8D4
:100DC000FEA80FA918AD380188249924980187013D
:100DD00020703070A5960CAF1DAF2EAF3FAFA5971A
:100DE000C601B501A40193010E948D3B7B018C01DA
:100DF000C601B501A40193010E948D3BC901DA012E
:100E00001C012D01C201B101A5962CAD3DAD4EAD29
:100E10005FADA5970E946E3B9B01AC018701FF244B
:100E2000EE24ADA4BEA4CFA4D8A8C601AA27BB2790
:100E300057016801A82AB92ACA2ADB2AA216B306D2
:100E4000C406D50600F50894210831084108510868
:100E5000EDA8FEA80FA918ADAE0CBF1CC01ED11E78
:100E6000AE14BF04C006D10670F0A216B306C406C5
:100E7000D50648F408942108310841085108AE0C01
:100E8000BF1CC01ED11EA21AB30AC40AD50AC601CD
:100E9000B501A40193010E948D3B7B018C01C60129
:100EA000B501A40193010E948D3BC901DA013C0107
:100EB0004D01C401B301A5962CAD3DAD4EAD5FAD66
:100EC000A5970E946E3B9B01AC018701FF24EE2495
:100ED0008DA59EA5AFA5B8A9A070B07057016801F7
:100EE000A82AB92ACA2ADB2AA216B306C406D5063E
:100EF00000F5089461087108810891086DA97EA920
:100F00008FA998ADA60EB71EC81ED91EA616B70685
:100F1000C806D90670F0A216B306C406D50648F472
:100F200008946108710881089108A60EB71EC81EB2
:100F3000D91ED601C501821B930BA40BB50B89A743
:100F40009AA7ABA7BCA7D1019927882764015301B1
:100F5000A82AB92ACA2ADB2A2596ACAEBDAECEAEE7
:100F6000DFAE2597860175012FEF3FEF40E050E09F
:100F7000E222F32204231523A60166277727AD96E4
:100F80004CAF5DAF6EAF7FAFAD97A9A8BAA8CBA8A5
:100F9000DCA86FEF7FEF80E090E0A622B722C822A6
:100FA000D92289A99AA9ABA9BCA91D014424552419
:100FB000C801B701A60195010E946E3BA9966CAFCE
:100FC0007DAF8EAF9FAFA997C801B701A201910174
:100FD0000E946E3B3B014C01AD966CAD7DAD8EAD7C
:100FE0009FADAD97A60195010E946E3B7B018C01E0
:100FF000AD966CAD7DAD8EAD9FADAD97A20191016B
:101000000E946E3B5B016C01A8019701260D371D04
:10101000481D591DA9966CAC7DAC8EAC9FACA997B0
:10102000C401AA27BB27280F391F4A1F5B1F2E1593
:101030003F054007510748F4E12CF12C61E0062FF1
:10104000112DAE0CBF1CC01ED11ECA01AA27BB2782
:10105000BC01CD016A0D7B1D8C1D9D1D69A47AA468
:101060008BA49CA4661677068806990650F166152F
:1010700077058805990509F04DC0D901992788277A
:10108000A9962CAD3DAD4EAD5FADA99740705070A7
:10109000820F931FA41FB51F21962CAD3DAD4EAD01
:1010A0005FAD2197E2960FACE29704C0220F331F89
:1010B000441F551F0A94D2F7281739074A075B07C0
:1010C00048F525960CAD1DAD2EAD3FAD25970150D1
:1010D00010402040304025960CAF1DAF2EAF3FAFE3
:1010E000259718C066247724430121E030E040E0D2
:1010F00050E025962CAF3DAF4EAF5FAF25970DC0AA
:1011000066247724430125961CAE1DAE1EAE1FAE8D
:10111000259703C0662477244301FE01B19688E039
:10112000DF011D928A95E9F72596ACACBDACCEAC3B
:10113000DFAC2597A9A2BAA2CBA2DCA26DA27EA2A7
:101140008FA298A622962FAD22973AA14BA15CA11F
:10115000662D7EA1DFA098A5E196ECACFDAC0EADAE
:101160001FADE197E114F1040105110509F456C022
:10117000219581E0121608F080E03195E1E0131628
:1011800008F0E0E0932E981A81E0391508F080E02D
:10119000E82B4195F1E0141608F0F0E0A42EAE1A09
:1011A00081E04A1508F080E0F82B5195E1E0151632
:1011B00008F0E0E0B52EBF1A81E05B1508F080E092
:1011C000E82B6195F1E0161608F0F0E0A62FAE1BB3
:1011D00081E06A1708F080E0F82B7195E1E01716BE
:1011E00008F0E0E0C72ECF1A81E07C1508F080E01F
:1011F000E82B8D2D8195F1E0181608F0F0E0D82E3F
:10120000DE1AE1E08D1508F0E0E0FE2B892F8195D4
:10121000392DA5016A2F7C2D982F9F1B8D2DCE581F
:10122000DF4FE2E10C94CB3BA7E7B0E0EAE1F9E065
:101230000C94AF3B982E892E712E88E0FE013196DA
:10124000DF01682E1D926A94E9F729833A834B8364
:101250005C836D837E839F829887FE013996DF01D0
:101260001D928A95E9F7A986BA86CB86DC86ED863B
:10127000FE860F87188B8D819E81AF81B885B7FD63
:1012800007C0E1961CAE1DAE1EAE1FAEE19764C056
:10129000219581E0121608F080E0319591E0131657
:1012A00008F090E0B32FB81B81E03B1708F080E016
:1012B000982B419531E0141608F030E0A42FA91BBB
:1012C00081E04A1708F080E0382B519591E015161F
:1012D00008F090E0F52FF31B81E05F1708F080E045
:1012E000982B619531E0161608F030E0E62FE91BE7
:1012F00081E06E1708F080E0382B719541E01716F9
:1013000008F040E0572F531B81E0751708F080E08C
:10131000482B892D819591E0181608F090E0682EF1
:10132000641A462D31E0861508F030E0932B882DA5
:101330008195891B2983BA83AB83FC83ED835E830C
:101340004F8388872FEF3FEF4FEF5FEFE1962CAF92
:101350003DAF4EAF5FAFE1978D859E85AF85B88974
:10136000B7FF5AC0A19481E01A1408F080E0B1944C
:1013700091E01B1408F090E06B2D681B81E0B6161D
:1013800008F080E0982BC19421E01C1408F020E0C4
:101390005C2D591B81E0C51608F080E0282BD19404
:1013A00091E01D1408F090E04D2D421B81E0D41611
:1013B00008F080E0982BE19421E01E1408F020E072
:1013C0003E2D391B81E0E31608F080E0282BF194D4
:1013D00091E01F1408F090E07F2D721B272F81E011
:1013E000F71608F080E0982B019511E0101608F030
:1013F00010E0802F891B982F81E0091708F080E00A
:10140000182B872D8195811BA9866A875B874C875E
:101410003D872E879F87888B99812A813B814C81CC
:101420005D816E817F81A885B9851A850B85FC84D5
:10143000ED84DE84CF84B88888E0E9E18E2E912C9B
:101440008C0E9D1EF401682E11926A94E9F7998F13
:101450002A8F3B8F4C8F5D8F6E8F7F8FA8A39E014D
:101460002F5D3F4FF90111928A95E9F7B9A31AA3AD
:101470000BA3FCA2EDA2DEA2CFA2B8A629A03AA09F
:101480004BA05CA0ADA0BEA0CFA0D8A4498D5A8D22
:101490006B8D7C8DE5964FAFE597E6965FAFE6974F
:1014A000E7966FAFE797E8967FAFE897E8966CAC62
:1014B0007DAC8EAC9FACE8972D966CAE7DAE8EAEBB
:1014C0009FAE2D978D8D9E8D2F8D38A13C014901AA
:1014D00061966CAE7DAE8EAE9FAE6197A114B104E5
:1014E000C104D10409F028C3621473048404950470
:1014F00008F00EC100E0201600E0300601E04006D2
:1015000000E0500688F41FEF211631044104510415
:1015100039F030F088E0E82EF12C012D112D18C0A3
:10152000EE24FF24870114C020E0221620E03206BA
:1015300020E0420621E0520630F0B8E1EB2EF12C1B
:10154000012D112D05C0A0E1EA2EF12C012D112D48
:10155000D201C1010E2C04C0B695A7959795879529
:101560000A94D2F78D589F4FDC012C9180E290E0D5
:10157000A0E0B0E08E199F09A00BB10B5C016D01DA
:10158000A21AB108C108D1086596ACAEBDAECEAE08
:10159000DFAE6597A114B104C104D10409F445C0BC
:1015A00062966FAD6297062E04C0220C331C441C59
:1015B000551C0A94D2F7A4019301062E04C0220FF1
:1015C000331F441F551F0A94D2F780E290E08A1916
:1015D0009B09E896CCACDDACEEACFFACE89704C060
:1015E000F694E794D794C7948A95D2F78701760149
:1015F000E22AF32A042B152B6196ECAEFDAE0EAF5A
:101600001FAF6197E8960CAD1DAD2EAD3FADE897CD
:1016100004C0000F111F221F331F6A95D2F72D96A9
:101620000CAF1DAF2EAF3FAF2D9732018824992408
:10163000A20191014070507069962CAF3DAF4EAF42
:101640005FAF699761966CAD7DAD8EAD9FAD6197D3
:10165000A40193010E948D3B7B018C0161966CADCE
:101660007DAD8EAD9FAD6197A40193010E948D3B2E
:10167000CA01B90169962CAD3DAD4EAD5FAD69971C
:101680000E946E3B9B01AC018701FF24EE242D9646
:10169000ACACBDACCEACDFAC2D97C601AA27BB2746
:1016A00057016801A82AB92ACA2ADB2AA216B3065A
:1016B000C406D50690F4A20CB31CC41CD51CA214FD
:1016C000B304C404D50448F0A216B306C406D50674
:1016D00020F4A20CB31CC41CD51CA21AB30AC40A61
:1016E000D50AC601B501A40193010E948D3B7B017F
:1016F0008C01C601B501A40193010E948D3BCA0172
:10170000B90169962CAD3DAD4EAD5FAD6997C8C1CD
:10171000211431044104510471F461E070E080E06F
:1017200090E020E030E040E050E00E948D3BC901B5
:10173000DA011C012D0100E0201600E0300601E076
:10174000400600E0500688F41FEF211631044104E2
:10175000510439F030F068E0E62EF12C012D112D06
:1017600018C0EE24FF24870114C020E0221620E0D8
:10177000320620E0420621E0520630F058E1E52E24
:10178000F12C012D112D05C040E1E42EF12C012D8D
:10179000112DD201C1010E2C04C0B695A7959795C5
:1017A00087950A94D2F78D589F4FDC012C9130E237
:1017B000A32EB12CC12CD12CD601C5018E199F09A5
:1017C000A00BB10B7C018D01E21AF108010911098E
:1017D0006596ECAEFDAE0EAF1FAF6597E114F10458
:1017E0000105110539F464015301A218B308C408B6
:1017F000D508ECC06296FFAC6297E496FFAEE49722
:101800000F2C04C0220C331C441C551C0A94D2F724
:101810008A2D8F1964015301082E04C0D694C794F1
:10182000B794A7940A94D2F7A401930104C0220F9D
:10183000331F441F551FFA94D2F7E8966CAC7DAC69
:101840008EAC9FACE89704C0969487947794679485
:101850008A95D2F784017301E22AF32A042B152B0F
:101860002996ECAEFDAE0EAF1FAF2997320188244A
:10187000992492018101207030706D960CAF1DAFDC
:101880002EAF3FAF6D97C601B501A40193010E9431
:101890008D3B7B018C01C601B501A40193010E941F
:1018A0008D3BCA01B9016D962CAD3DAD4EAD5FAD1E
:1018B0006D970E946E3B9B01AC018701FF24EE24D3
:1018C0002996ACACBDACCEACDFAC2997C601AA273B
:1018D000BB275C016D01AE28BF28C02AD12AA21601
:1018E000B306C406D50690F4A20CB31CC41CD51CC8
:1018F000A214B304C404D50448F0A216B306C40667
:10190000D50620F4A20CB31CC41CD51CA21AB30A21
:10191000C40AD50AC601B501A40193010E948D3BFA
:101920007B018C01C601B501A40193010E948D3B8E
:10193000CA01B9016D962CAD3DAD4EAD5FAD6D9751
:101940000E946E3B9B01AC018701FF24EE24299687
:101950008CAD9DADAEADBFAD2997A070B0705701F5
:101960006801A82AB92ACA2ADB2AA216B306C40625
:10197000D50690F4A20CB31CC41CD51CA214B3044D
:10198000C404D50448F0A216B306C406D50620F454
:10199000A20CB31CC41CD51CE896ECACFDAC0EAD7F
:1019A0001FADE897E4960FACE49704C0EE0CFF1C63
:1019B000001F111F0A94D2F72D96ECAEFDAE0EAFAC
:1019C0001FAF2D97A21AB30AC40AD50A3201882480
:1019D00099249201810120703070A1960CAF1DAF47
:1019E0002EAF3FAFA197C601B501A40193010E949C
:1019F0008D3B7B018C01C601B501A40193010E94BE
:101A00008D3BCA01B901A1962CAD3DAD4EAD5FAD88
:101A1000A1970E946E3B9B01AC018701FF24EE243D
:101A20002D96ACACBDACCEACDFAC2D97C601AA27D1
:101A3000BB2757016801A82AB92ACA2ADB2AA2169D
:101A4000B306C406D50690F4A20CB31CC41CD51C66
:101A5000A214B304C404D50448F0A216B306C40605
:101A6000D50620F4A20CB31CC41CD51CA21AB30AC0
:101A7000C40AD50AC601B501A40193010E948D3B99
:101A80007B018C01C601B501A40193010E948D3B2D
:101A9000CA01B901A1962CAD3DAD4EAD5FADA19788
:101AA0000E946E3B9B01AC018701FF24EE242D9622
:101AB0008CAD9DADAEADBFAD2D97A070B070E82AD6
:101AC000F92A0A2B1B2BE216F3060407150790F4DC
:101AD000E20CF31C041D151DE214F30404051505A6
:101AE00048F0E216F3060407150720F4E20CF31C95
:101AF000041D151DE21AF30A040B150BD801C701CA
:101B000062960FAC629704C0B695A7959795879596
:101B10000A94D2F789A79AA7ABA7BCA71DA61EA6B1
:101B20001FA618AA898B8AA58A8B8BA58B8B8CA55F
:101B30008C8B8DA58D8B2FC36A147B048C049D0424
:101B400048F4498B5A8B6B8B7C8B8D8B9E8B2F8BA8
:101B5000388F27C300E0A01600E0B00601E0C00601
:101B600000E0D00688F41FEFA116B104C104D1042F
:101B700039F030F028E0E22EF12C012D112D18C0A3
:101B8000EE24FF24870114C020E0A21620E0B20654
:101B900020E0C20621E0D20630F098E1E92EF12CD7
:101BA000012D112D05C080E1E82EF12C012D112D04
:101BB000D601C5010E2C04C0B695A79597958795BB
:101BC0000A94D2F78D589F4FDC012C9180E290E06F
:101BD000A0E0B0E08E199F09A00BB10B821B910908
:101BE000A109B1090097A105B10509F059C0A614D2
:101BF000B704C804D90470F0E896ECACFDAC0EADA7
:101C00001FADE897E214F3040405150518F4D80194
:101C1000C7012FC0E8968CAD9DADAEADBFADE897C6
:101C200082199309A409B509A40193012A193B0952
:101C30004C095D09AA24BB246501E8966CAC7DAC17
:101C40008EAC9FACE897681679068A069B0628F446
:101C500011E0A12EB12CC12CD12C79018A01EA18F6
:101C6000FB080C091D096196ECAEFDAE0EAF1FAF6F
:101C7000619789A79AA7ABA7BCA761960CAD1DADCC
:101C80002EAD3FAD61970DA71EA72FA738AB898B4F
:101C90008AA58A8B8BA58B8B8CA58C8B0D8B7BC29D
:101CA000E3968FAFE397A6019501082E04C0220F9B
:101CB000331F441F551F0A94D2F710E2181BE296F7
:101CC0001FAFE297D201C101012E04C0B695A795BE
:101CD000979587950A94D2F75C016D01A22AB32AE1
:101CE000C42AD52A2596ACAEBDAECEAEDFAE2597C2
:101CF00072016101E3960FACE39704C0CC0CDD1CCC
:101D0000EE1CFF1C0A94D2F72196CCAEDDAEEEAEEF
:101D1000FFAE219764015301012E04C0D694C794ED
:101D2000B794A7940A94D2F7A4019301E3960FAC59
:101D3000E39704C0220F331F441F551F0A94D2F7A4
:101D4000E8968CAD9DADAEADBFADE89704C0B6953D
:101D5000A795979587951A95D2F77C018D01E22A70
:101D6000F32A042B152BE9AEFAAE0BAF1CAFE896A5
:101D70000CAD1DAD2EAD3FADE897E3960FACE397EC
:101D800004C0000F111F221F331F0A94D2F70DAB9E
:101D90001EAB2FAB38AF25962CAD3DAD4EAD5FAD34
:101DA00025973A018824992440705070A5962CAF4D
:101DB0003DAF4EAF5FAFA597C601B501A40193013A
:101DC0000E948D3B7B018C01C601B501A4019301EA
:101DD0000E948D3BC901DA011C012D01C201B10134
:101DE000A5962CAD3DAD4EAD5FADA5970E946E3B67
:101DF0009B01AC018701FF24EE24A9ACBAACCBACAB
:101E0000DCACC601AA27BB2757016801A82AB92A5A
:101E1000CA2ADB2AA216B306C406D50610F5089412
:101E200021083108410851082596ECACFDAC0EADF7
:101E30001FAD2597AE0CBF1CC01ED11EAE14BF0433
:101E4000C006D10670F0A216B306C406D50648F443
:101E500008942108310841085108AE0CBF1CC01E6F
:101E6000D11EA21AB30AC40AD50AC601B501A4013B
:101E700093010E948D3B7B018C01C601B501A40139
:101E800093010E948D3BC901DA013C014D01C4015F
:101E9000B301A5962CAD3DAD4EAD5FADA5970E94AB
:101EA0006E3B9B01AC018701FF24EE2489AD9AAD06
:101EB000ABADBCADA070B07057016801A82AB92ABB
:101EC000CA2ADB2AA216B306C406D50610F5089462
:101ED000610871088108910825966CAD7DAD8EADC5
:101EE0009FAD2597A60EB71EC81ED91EA616B7060B
:101EF000C806D90670F0A216B306C406D50648F483
:101F000008946108710881089108A60EB71EC81EC2
:101F1000D91ED601C501821B930BA40BB50B89AB4F
:101F20009AABABABBCABD101992788278401730175
:101F3000E82AF92A0A2B1B2B8FEFA82E8FEFB82E39
:101F4000C12CD12CAE20BF20C022D1227801002785
:101F5000112721966CAC7DAC8EAC9FAC21972FEFF6
:101F60003FEF40E050E062227322842295222196C6
:101F70006CAD7DAD8EAD9FAD2197AC016627772707
:101F8000AD964CAF5DAF6EAF7FAFAD97C601B501FB
:101F9000A40193010E946E3BA9966CAF7DAF8EAFFA
:101FA0009FAFA997C601B501AD962CAD3DAD4EAD25
:101FB0005FADAD970E946E3B1B012C01C801B701BC
:101FC000A40193010E946E3B5B016C01C801B70143
:101FD000AD962CAD3DAD4EAD5FADAD970E946E3B65
:101FE0007B018C01A6019501220D331D441D551D59
:101FF000A9966CAC7DAC8EAC9FACA997C401AA2706
:10200000BB27280F391F4A1F5B1F2A153B054C05AC
:102010005D0548F4812C912CE1E0AE2EB12CE80C4A
:10202000F91C0A1D1B1DCA01AA27BB2757016801FD
:10203000A80EB91ECA1EDB1EA90133272227A996A6
:102040008CAD9DADAEADBFADA997A070B070280F9F
:10205000391F4A1F5B1FE9A8FAA80BA91CA9EA149B
:10206000FB040C051D0570F0AE14BF04C006D106BC
:1020700089F56DA97EA98FA998AD621773078407AA
:10208000950740F5DA01C90121966CAC7DAC8EACA8
:102090009FAC219786199709A809B9092596ECAC38
:1020A000FDAC0EAD1FAD2597AE18BF08C00AD10A12
:1020B000EE24FF248701281739074A075B0728F415
:1020C00021E0E22EF12C012D112DAE18BF08C00A1F
:1020D000D10A02C0DA01C9016DA87EA88FA898AC08
:1020E000681A790A8A0A9B0A09A91AA92BA93CA984
:1020F0000A191B092C093D095801690122243324BE
:1021000021012DA93EA94FA958AD2615370548052F
:10211000590528F481E0282E312C412C512C8601C0
:102120007501E218F30804091509A8019701E29660
:102130000FACE29704C0220F331F441F551F0A94AF
:10214000D2F7D401C301E3960FACE39704C0B69570
:10215000A795979587950A94D2F7282B392B4A2B68
:102160005B2B29A73AA74BA75CA7E3960FACE39795
:1021700004C016950795F794E7940A94D2F7EDA654
:10218000FEA60FA718AB298B8AA58A8B8BA58B8BF4
:102190008CA58C8BED8A8EA58E8B8FA58F8B88A9B5
:1021A000888FE1964CAD5DAD6EAD7FADE197411589
:1021B00051056105710509F467C089892A893B8940
:1021C0004C895D89AE89BF89188DF82FF19591E012
:1021D0001F1608F090E0822F819521E0181608F074
:1021E00020E0E82FE91B91E08E1708F090E0292B02
:1021F000832F819531E0181608F030E0782F721B9C
:1022000091E0871708F090E0392B842F819521E029
:10221000181608F020E0682F631B91E0861708F07D
:1022200090E0292B852F819531E0181608F030E0D9
:10223000582F521B91E0851708F090E0392B8A2F18
:10224000819521E0181608F020E0482F431B91E00B
:10225000841708F090E0292B8B2F819591E01816B8
:1022600008F090E0382F321B21E0831708F020E0BF
:10227000922B812F8195891BF98BEA8B7B8B6C8B41
:102280005D8B4E8B3F8B888F29893A894B895C897E
:102290006D897E898F89988DC958DF4FE2E10C9452
:1022A000CB3BAEE5B0E0E7E5F1E10C94AF3BA8E055
:1022B0004E010894811C911CF4016A2E11926A94BB
:1022C000E9F729833A834B835C836D837E838F8315
:1022D0009887CE010996FC011192AA95E9F7A98683
:1022E000BA86CB86DC86ED86FE860F87188B29841E
:1022F0003A844B845C84ED84FE840F851889698060
:102300007A808B809C806DA67EA68FA698AA6D8011
:102310007E808F809884E114F1040105110509F095
:10232000B3C3621473048404950408F03DC100E053
:10233000201600E0300601E0400600E0500688F478
:102340001FEF211631044104510439F030F048E008
:10235000E42EF12C012D112D18C0EE24FF2487014D
:1023600014C020E0221620E0320620E0420621E0E0
:10237000520630F038E1E32EF12C012D112D05C06D
:1023800020E1E22EF12C012D112DD201C1010E2CE4
:1023900004C0B695A795979587950A94D2F78D585E
:1023A0009F4FDC012C9180E290E0A0E0B0E08E191C
:1023B0009F09A00BB10B7C018D01E21AF108010904
:1023C0001109E114F10401051105A1F10E2C04C05D
:1023D000220C331C441C551C0A94D2F7A40193010F
:1023E0000E2C04C0220F331F441F551F0A94D2F72E
:1023F00080E290E08E199F096DA47EA48FA498A816
:1024000004C096948794779467948A95D2F7622A49
:10241000732A842A952AADA4BEA4CFA4D8A804C048
:10242000AA0CBB1CCC1CDD1CEA94D2F7ADA6BEA640
:10243000CFA6D8AA6201EE24FF24CDAADEAAEFAA75
:10244000F8AE920181012070307009AF1AAF2BAF46
:102450003CAFC401B301A70196010E948D3B7B01F3
:102460008C01C401B3012DA93EA94FA958AD0E940A
:102470008D3BC901DA013C014D01C401B30129AD15
:102480003AAD4BAD5CAD0E946E3B9B01AC01870148
:10249000FF24EE24ADA4BEA4CFA4D8A8C601AA27C9
:1024A000BB2757016801A82AB92ACA2ADB2AA21623
:1024B000B306C406D506E0F40894610871088108E3
:1024C0009108A20CB31CC41CD51CA214B304C404F0
:1024D000D50470F0A216B306C406D50648F40894D5
:1024E0006108710881089108A20CB31CC41CD51C9A
:1024F000A21AB30AC40AD50AC601B5012DA93EA97C
:102500004FA958AD0E948D3B7B018C01C601B501DE
:102510002DA93EA94FA958AD0E948D3BC901DA01F2
:102520005C016D01C601B50129AD3AAD4BAD5CADA5
:102530000E946E3B9B01AC018701FF24EE248DA518
:102540009EA5AFA5B8A9A070B070E82AF92A0A2BF9
:102550001B2BE216F30604071507C0F40894A10824
:10256000B108C108D108E20CF31C041D151DE214CA
:10257000F3040405150550F0E216F30604071507E9
:1025800028F40894A108B108C108D108D3019927FB
:10259000882786017501E82AF92A0A2B1B2BE9AA4C
:1025A000FAAA0BAB1CABCFC4211431044104510473
:1025B00071F461E070E080E090E020E030E040E025
:1025C00050E00E948D3BC901DA011C012D0100E0A1
:1025D000201600E0300601E0400600E0500688F4D6
:1025E0001FEF211631044104510431F028F048E076
:1025F00050E060E070E017C040E050E060E070E064
:1026000012C020E0221620E0320620E0420621E03F
:10261000520628F048E150E060E070E004C040E17C
:1026200050E060E070E0D201C101042E04C0B69514
:10263000A795979587950A94D2F78D589F4FDC01FF
:102640002C91E0E2EE2EF12C012D112DD801C701C5
:10265000841B950BA60BB70B821B9109A109B1092D
:102660000097A105B10561F464015301A218B308F4
:10267000C408D50831E0632E712C812C912C1EC129
:102680006F968FAF6F97082E04C0220C331C441C2A
:10269000551C0A94D2F7EE2DE81B640153010E2E4F
:1026A00004C0D694C794B794A7940A94D2F7A4010F
:1026B00093016F960FAC6F9704C0220F331F441F16
:1026C000551F0A94D2F76DA47EA48FA498A80E2E4D
:1026D00004C096948794779467940A94D2F78401FF
:1026E0007301E22AF32A042B152BE9A6FAA60BA7FD
:1026F0001CA7320188249924920181012070307036
:1027000021960CAF1DAF2EAF3FAF2197C601B5018B
:10271000A40193010E948D3B7B018C01C601B50190
:10272000A40193010E948D3BC901DA0125968CAF6B
:102730009DAFAEAFBFAF2597BC01CD0121962CADAB
:102740003DAD4EAD5FAD21970E946E3B9B01AC014C
:102750008701FF24EE24A9A4BAA4CBA4DCA4C6015B
:10276000AA27BB275C016D01AE28BF28C02AD12A49
:10277000A216B306C406D50660F525966CAD7DADF0
:102780008EAD9FAD2597615070408040904025965A
:102790006CAF7DAF8EAF9FAF2597A20CB31CC41C4E
:1027A000D51CA214B304C404D50498F0A216B30631
:1027B000C406D50670F46150704080409040259664
:1027C0006CAF7DAF8EAF9FAF2597A20CB31CC41C1E
:1027D000D51CA21AB30AC40AD50AC601B501A401C0
:1027E00093010E948D3B7B018C01C601B501A401C0
:1027F00093010E948D3BC901DA013C014D01C401E6
:10280000B30121962CAD3DAD4EAD5FAD21970E9439
:102810006E3B9B01AC018701FF24EE2489A59AA59C
:10282000ABA5BCA5A070B07057016801A82AB92A51
:10283000CA2ADB2AA216B306C406D506E0F4089419
:102840006108710881089108A20CB31CC41CD51C36
:10285000A214B304C404D50470F0A216B306C406CF
:10286000D50648F408946108710881089108A20C03
:10287000B31CC41CD51C8DA59EA5AFA5B8A96F9689
:102880000FAC6F9704C0880F991FAA1FBB1F0A9433
:10289000D2F78DA79EA7AFA7B8ABA21AB30AC40AF6
:1028A000D50A2596ECACFDAC0EAD1FAD2597D70132
:1028B00099278827682A792A8A2A9B2A820122272F
:1028C000332729960CAF1DAF2EAF3FAF2997A2013A
:1028D0009101407050702D962CAF3DAF4EAF5FAF61
:1028E0002D97C601B50129962CAD3DAD4EAD5FAD1E
:1028F00029970E948D3B7B018C01C601B501299669
:102900002CAD3DAD4EAD5FAD29970E948D3BC90109
:10291000DA0161968CAF9DAFAEAFBFAF6197BC01DE
:10292000CD012D962CAD3DAD4EAD5FAD2D970E94E6
:102930006E3B9B01AC018701FF24EE24ADA4BEA435
:10294000CFA4D8A8C601AA27BB2757016801A82A87
:10295000B92ACA2ADB2AA216B306C406D50660F530
:1029600061966CAD7DAD8EAD9FAD6197615070404D
:102970008040904061966CAF7DAF8EAF9FAF619706
:10298000A20CB31CC41CD51CA214B304C404D504EB
:1029900098F0A216B306C406D50670F461507040D4
:1029A0008040904061966CAF7DAF8EAF9FAF6197D6
:1029B000A20CB31CC41CD51CA21AB30AC40AD50AA3
:1029C000C601B50129962CAD3DAD4EAD5FAD299741
:1029D0000E948D3B7B018C01C601B50129962CAD6F
:1029E0003DAD4EAD5FAD29970E948D3BC901DA0127
:1029F0005C016D01C601B5012D962CAD3DAD4EAD0E
:102A00005FAD2D970E946E3B9B01AC018701FF24B7
:102A1000EE248DA59EA5AFA5B8A9A070B070E82A38
:102A2000F92A0A2B1B2BE216F30604071507C0F43C
:102A30000894A108B108C108D108E20CF31C041DD8
:102A4000151DE214F3040405150550F0E216F30613
:102A50000407150728F40894A108B108C108D10893
:102A60006196ECACFDAC0EAD1FAD6197D701992717
:102A7000882796018501082B192B2A2B3B2B09ABA4
:102A80001AAB2BAB3CAB62C26E147F04800691067E
:102A900008F451C220E0E21620E0F20621E002072D
:102AA00020E0120788F43FEFE316F1040105110559
:102AB00031F028F048E050E060E070E017C040E0FE
:102AC00050E060E070E012C040E0E41640E0F40640
:102AD00040E0040741E0140728F048E150E060E0DE
:102AE00070E004C040E150E060E070E0D801C70150
:102AF000042E04C0B695A795979587950A94D2F7AA
:102B00008D589F4FDC012C9130E2A32EB12CC12CAB
:102B1000D12CD601C501841B950BA60BB70B821BCC
:102B20009109A109B1090097A105B10589F4E6143D
:102B3000F7040805190508F4F2C16DA47EA48FA45A
:102B400098A8621473048404950408F0E8C1F3C1E2
:102B50006E968FAF6E97082E04C0EE0CFF1C001F00
:102B6000111F0A94D2F76A2D681BD201C101062EEB
:102B700004C0B695A795979587950A94D2F75C01FE
:102B80006D01AE28BF28C02AD12AADA2BEA2CFA215
:102B9000D8A6720161016E960FAC6E9704C0CC0C82
:102BA000DD1CEE1CFF1C0A94D2F7C9A2DAA2EBA22C
:102BB000FCA264015301062E04C0D694C794B794B6
:102BC000A7940A94D2F7D401C3016E960FAC6E9706
:102BD00004C0880F991FAA1FBB1F0A94D2F7EDA447
:102BE000FEA40FA518A904C016950795F794E794BD
:102BF0006A95D2F737014801682A792A8A2A9B2ADE
:102C00006D8E7E8E8F8E98A2EDA0FEA00FA118A5CE
:102C100038018824992498018701207030706596C6
:102C20000CAF1DAF2EAF3FAF6597C601B501A40134
:102C300093010E948D3B7B018C01C601B501A4016B
:102C400093010E948D3BC901DA011C012D01C201D3
:102C5000B10165962CAD3DAD4EAD5FAD65970E945F
:102C60006E3B9B01AC018701FF24EE24AD8CBE8C32
:102C7000CF8CD8A0C601AA27BB2757016801A82A74
:102C8000B92ACA2ADB2AA216B306C406D50600F55D
:102C900008942108310841085108EDA0FEA00FA1B9
:102CA00018A5AE0CBF1CC01ED11EAE14BF04C006BA
:102CB000D10670F0A216B306C406D50648F40894EF
:102CC0002108310841085108AE0CBF1CC01ED11E9E
:102CD000A21AB30AC40AD50AC601B501A401930118
:102CE0000E948D3B7B018C01C601B501A4019301BB
:102CF0000E948D3BC901DA013C014D01C401B301C1
:102D000065962CAD3DAD4EAD5FAD65970E946E3BB7
:102D10009B01AC018701FF24EE248D8D9E8DAF8D2C
:102D2000B8A1A070B07057016801A82AB92ACA2AB0
:102D3000DB2AA216B306C406D50600F5089461087E
:102D40007108810891086DA17EA18FA198A5A60E9A
:102D5000B71EC81ED91EA616B706C806D90670F03B
:102D6000A216B306C406D50648F408946108710893
:102D700081089108A60EB71EC81ED91ED601C5012E
:102D8000821B930BA40BB50B898F9A8FAB8FBC8FD3
:102D9000D1019927882764015301A82AB92ACA2A90
:102DA000DB2AA9AABAAACBAADCAA860175012FEF51
:102DB0003FEF40E050E0E222F32204231523A60176
:102DC000662777276D964CAF5DAF6EAF7FAF6D977F
:102DD000A9A0BAA0CBA0DCA06FEF7FEF80E090E0CD
:102DE000A622B722C822D92289A19AA1ABA1BCA14F
:102DF0001D0144245524C801B701A60195010E9474
:102E00006E3B69966CAF7DAF8EAF9FAF6997C8017F
:102E1000B701A20191010E946E3B3B014C016D96EE
:102E20006CAD7DAD8EAD9FAD6D97A60195010E94F5
:102E30006E3B7B018C016D966CAD7DAD8EAD9FAD13
:102E40006D97A20191010E946E3B5B016C01A8018C
:102E50009701260D371D481D591D69966CAC7DAC38
:102E60008EAC9FAC6997C401AA27BB27280F391FD6
:102E70004A1F5B1F2E153F054007510748F4E12C00
:102E8000F12C61E0062F112DAE0CBF1CC01ED11E0F
:102E9000CA01AA27BB27BC01CD016A0D7B1D8C1D71
:102EA0009D1D698C7A8C8B8C9C8C661677068806A7
:102EB000990640F1661577058805990509F043C024
:102EC000D9019927882769962CAD3DAD4EAD5FADF0
:102ED000699740705070820F931FA41FB51F2DA5D6
:102EE0003EA54FA558A96E960FAC6E9704C0220F51
:102EF000331F441F551F0A94D2F7281739074A0772
:102F00005B0708F509A91AA92BA93CA90150104093
:102F10002040304009AB1AAB2BAB3CAB14C066244D
:102F20007724430121E030E040E050E029AB3AABA8
:102F30004BAB5CAB0BC066247724430119AA1AAAD9
:102F40001BAA1CAA03C0662477244301FE017196C4
:102F500088E0DF011D928A95E9F7A9A8BAA8CBA855
:102F6000DCA8A98ABA8ACB8ADC8A6D8A7E8A8F8A93
:102F7000988E29A93A894B895C89662D7E898F892B
:102F8000988DC25ADF4FE2E10C94CB3BABE5B0E049
:102F9000ECECF7E10C94AF3BA8E04E010894811CE7
:102FA000911CF4016A2E11926A94E9F729833A83FD
:102FB0004B835C836D837E838F839887CE010996D4
:102FC000FC011192AA95E9F7A986BA86CB86DC8620
:102FD000ED86FE860F87188B29843A844B845C84A7
:102FE000AD84BE84CF84D88829813A814B815C81AD
:102FF00069962FAF69976A963FAF6A976B964FAF06
:103000006B976C965FAF6C976C966CAC7DAC8EAC2E
:103010009FAC6C9769AA7AAA8BAA9CAA6D817E81C3
:103020008F8198853B014C016DAA7EAA8FAA98AE2C
:10303000A114B104C104D10409F004C362147304DF
:103040008404950408F000C100E0201600E030067A
:1030500001E0400600E0500688F41FEF211631041D
:103060004104510439F030F088E0E82EF12C012DB4
:10307000112D18C0EE24FF24870114C040E024164F
:1030800040E0340640E0440641E0540630F0B8E148
:10309000EB2EF12C012D112D05C0A0E1EA2EF12C13
:1030A000012D112DD201C1010E2C04C0B695A7959A
:1030B000979587950A94D2F78D589F4FDC012C91F4
:1030C00080E290E0A0E0B0E08E199F09A00BB10B68
:1030D0005C016D01A21AB108C108D108A9AEBAAE4F
:1030E000CBAEDCAEA114B104C104D10409F43FC0DD
:1030F00069AD062E04C0220C331C441C551C0A94D6
:10310000D2F7A4019301062E04C0220F331F441FDF
:10311000551F0A94D2F780E290E08A199B096C96B9
:10312000CCACDDACEEACFFAC6C9704C0F694E7948D
:10313000D794C7948A95D2F787017601E22AF32AB9
:10314000042B152BEDAAFEAA0FAB18AF6C968CAD15
:103150009DADAEADBFAD6C9704C0880F991FAA1F7F
:10316000BB1F6A95D2F789AB9AABABABBCAB320154
:1031700088249924B201A1016070707021964CAF2F
:103180005DAF6EAF7FAF21976DA97EA98FA998AD76
:10319000A40193010E948D3B7B018C016DA97EA946
:1031A0008FA998ADA40193010E948D3BCA01B9017A
:1031B00021962CAD3DAD4EAD5FAD21970E946E3B8B
:1031C0009B01AC018701FF24EE24A9A8BAA8CBA8D3
:1031D000DCA8C601AA27BB2757016801A82AB92A7B
:1031E000CA2ADB2AA216B306C406D50690F4A20C9E
:1031F000B31CC41CD51CA214B304C404D50448F0E9
:10320000A216B306C406D50620F4A20CB31CC41C37
:10321000D51CA21AB30AC40AD50AC601B501A40175
:1032200093010E948D3B7B018C01C601B501A40175
:1032300093010E948D3BCA01B90121962CAD3DAD91
:103240004EAD5FAD2197BAC1211431044104510440
:1032500071F461E070E080E090E020E030E040E078
:1032600050E00E948D3BC901DA011C012D0100E0F4
:10327000201600E0300601E0400600E0500688F429
:103280001FEF211631044104510439F030F068E099
:10329000E62EF12C012D112D18C0EE24FF248701FC
:1032A00014C040E0241640E0340640E0440641E00B
:1032B000540630F058E1E52EF12C012D112D05C0FA
:1032C00040E1E42EF12C012D112DD201C1010E2C73
:1032D00004C0B695A795979587950A94D2F78D580F
:1032E0009F4FDC012C9130E2A32EB12CC12CD12CAC
:1032F000D601C5018E199F09A00BB10B7C018D0170
:10330000E21AF10801091109E9AEFAAE0BAF1CAFE0
:10331000E114F1040105110539F464015301A21807
:10332000B308C408D508E2C0F9AC6896FFAE689748
:103330000F2C04C0220C331C441C551C0A94D2F7D9
:103340008A2D8F1964015301082E04C0D694C794A6
:10335000B794A7940A94D2F7A401930104C0220F52
:10336000331F441F551FFA94D2F76C966CAC7DAC9A
:103370008EAC9FAC6C9704C09694879477946794B6
:103380008A95D2F784017301E22AF32A042B152BC4
:10339000EDA6FEA60FA718AB320188249924B2012E
:1033A000A1016070707025964CAF5DAF6EAF7FAFBE
:1033B0002597C601B501A40193010E948D3B7B01B5
:1033C0008C01C601B501A40193010E948D3BCA0185
:1033D000B90125962CAD3DAD4EAD5FAD25970E9450
:1033E0006E3B9B01AC018701FF24EE24ADA4BEA47B
:1033F000CFA4D8A8C601AA27BB275C016D01AE28BF
:10340000BF28C02AD12AA216B306C406D50690F456
:10341000A20CB31CC41CD51CA214B304C404D50450
:1034200048F0A216B306C406D50620F4A20CB31CBD
:10343000C41CD51CA21AB30AC40AD50AC601B50118
:10344000A40193010E948D3B7B018C01C601B50153
:10345000A40193010E948D3BCA01B90125962CADB0
:103460003DAD4EAD5FAD25970E946E3B9B01AC011B
:103470008701FF24EE248DA59EA5AFA5B8A9A07055
:10348000B07057016801A82AB92ACA2ADB2AA216F5
:10349000B306C406D50690F4A20CB31CC41CD51CFC
:1034A000A214B304C404D50448F0A216B306C4069B
:1034B000D50620F4A20CB31CC41CD51C6C96ECAC35
:1034C000FDAC0EAD1FAD6C9768960FAC689704C04D
:1034D000EE0CFF1C001F111F0A94D2F7E9AAFAAAEA
:1034E0000BAB1CABA21AB30AC40AD50A320188245A
:1034F0009924B201A1016070707029964CAF5DAF44
:103500006EAF7FAF2997C601B501A40193010E9458
:103510008D3B7B018C01C601B501A40193010E9482
:103520008D3BCA01B90129962CAD3DAD4EAD5FADC5
:1035300029970E946E3B9B01AC018701FF24EE247A
:10354000A9A8BAA8CBA8DCA8C601AA27BB275701FF
:103550006801A82AB92ACA2ADB2AA216B306C40619
:10356000D50690F4A20CB31CC41CD51CA214B30441
:10357000C404D50448F0A216B306C406D50620F448
:10358000A20CB31CC41CD51CA21AB30AC40AD50AC7
:10359000C601B501A40193010E948D3B7B018C0102
:1035A000C601B501A40193010E948D3BCA01B90176
:1035B00029962CAD3DAD4EAD5FAD29970E946E3B77
:1035C0009B01AC018701FF24EE2489A99AA9ABA92C
:1035D000BCA9A070B070E82AF92A0A2B1B2BE216AE
:1035E000F3060407150790F4E20CF31C041D151DE7
:1035F000E214F3040405150548F0E216F306040787
:10360000150720F4E20CF31C041D151DE21AF30A41
:10361000040B150BD801C70109AC04C0B695A795DA
:10362000979587950A94D2F7898B9A8BAB8BBC8B35
:103630001D8A1E8A1F8A188E282F3A894B895C8919
:103640006D890CC36A147B048C049D0408F409C3BF
:1036500000E0A01600E0B00601E0C00600E0D006E1
:1036600088F41FEFA116B104C104D10439F030F081
:1036700028E0E22EF12C012D112D18C0EE24FF249C
:10368000870114C040E0A41640E0B40640E0C40640
:1036900041E0D40630F098E1E92EF12C012D112DF6
:1036A00005C080E1E82EF12C012D112DD601C501B8
:1036B0000E2C04C0B695A795979587950A94D2F7D6
:1036C0008D589F4FDC012C9180E290E0A0E0B0E0AB
:1036D0008E199F09A00BB10B821B9109A109B10999
:1036E0000097A105B10509F04FC0A614B704C8049E
:1036F000D90458F06C96ECACFDAC0EAD1FAD6C97D8
:10370000E214F3040405150568F16C96ECACFDAC0D
:103710000EAD1FAD6C97E218F30804091509A4015A
:1037200093012A193B094C095D09AA24BB246501B0
:103730006C966CAD7DAD8EAD9FAD6C976E157F05B3
:103740008007910728F4B1E0AB2EB12CC12CD12C0D
:10375000DA01C9018A199B09AC09BD098DAB9EAB81
:10376000AFABB8AFE98AFA8A0B8B1C8B6DA87EA829
:103770008FA898AC6D8A7E8A8F8A988E2E2D3A8972
:103780004B895C896DA96AC267968FAF6797A6015E
:103790009501082E04C0220F331F441F551F0A94A1
:1037A000D2F7A0E2AA2EA81A6696AFAE6697D2010B
:1037B000C10104C0B695A79597958795AA94D2F7AD
:1037C0006C017D01C22AD32AE42AF52AC9A6DAA609
:1037D000EBA6FCA68201710167960FAC679704C047
:1037E000EE0CFF1C001F111F0A94D2F7EDA2FEA2DF
:1037F0000FA318A76401530166960FAC669704C027
:10380000D694C794B794A7940A94D2F7A4019301CD
:1038100067960FAC679704C0220F331F441F551FD4
:103820000A94D2F76C968CAD9DADAEADBFAD6C97E2
:1038300066960FAC669704C0B695A7959795879541
:103840000A94D2F73C014D01622A732A842A952AF0
:1038500069A27AA28BA29CA26C96ECACFDAC0EADD8
:103860001FAD6C9767960FAC679704C0EE0CFF1CFA
:10387000001F111F0A94D2F7ED8EFE8E0F8F18A332
:1038800049A55AA56BA57CA53B01882499246070A5
:1038900070702D964CAF5DAF6EAF7FAF2D97C601A8
:1038A000B501A40193010E948D3B7B018C01C601EF
:1038B000B501A40193010E948D3BC901DA011C01ED
:1038C0002D01C201B1012D962CAD3DAD4EAD5FADC8
:1038D0002D970E946E3B9B01AC018701FF24EE24D3
:1038E000A9A0BAA0CBA0DCA0C601AA27BB2757017C
:1038F0006801A82AB92ACA2ADB2AA216B306C40676
:10390000D50600F508942108310841085108E9A4BA
:10391000FAA40BA51CA5AE0CBF1CC01ED11EAE1474
:10392000BF04C006D10670F0A216B306C406D506C1
:1039300048F408942108310841085108AE0CBF1C16
:10394000C01ED11EA21AB30AC40AD50AC601B50107
:10395000A40193010E948D3B7B018C01C601B5013E
:10396000A40193010E948D3BC901DA013C014D0184
:10397000C401B3012D962CAD3DAD4EAD5FAD2D977D
:103980000E946E3B9B01AC018701FF24EE2489A1BC
:103990009AA1ABA1BCA1A070B07057016801A82A80
:1039A000B92ACA2ADB2AA216B306C406D50600F530
:1039B0000894610871088108910869A57AA58BA50A
:1039C0009CA5A60EB71EC81ED91EA616B706C80609
:1039D000D90670F0A216B306C406D50648F40894BA
:1039E0006108710881089108A60EB71EC81ED91E6D
:1039F000D601C501821B930BA40BB50B898F9A8F3F
:103A0000AB8FBC8FD1019927882784017301E82AE5
:103A1000F92A0A2B1B2B4FEFA42E4FEFB42EC12CEB
:103A2000D12CAE20BF20C022D1227801002711273F
:103A30006DA07EA08FA098A44FEF5FEF60E070E0D4
:103A400064227522862297228DA19EA1AFA1B8A5DE
:103A5000BD018827992765966CAF7DAF8EAF9FAF6C
:103A60006597C601B501A40193010E946E3B619662
:103A70006CAF7DAF8EAF9FAF6197C601B501659604
:103A80002CAD3DAD4EAD5FAD65970E946E3B1B0109
:103A90002C01C801B701A40193010E946E3B5B0198
:103AA0006C01C801B70165962CAD3DAD4EAD5FAD63
:103AB00065970E946E3B7B018C01A6019501220D4A
:103AC000331D441D551D61966CAC7DAC8EAC9FAC16
:103AD0006197C401AA27BB27280F391F4A1F5B1F04
:103AE0002A153B054C055D0548F4812C912CE1E03D
:103AF000AE2EB12CE80CF91C0A1D1B1DCA01AA2709
:103B0000BB2757016801A80EB91ECA1EDB1EA901FA
:103B10003327222761968CAD9DADAEADBFAD6197C9
:103B2000A070B070280F391F4A1F5B1FE98CFA8CF8
:103B30000B8D1C8DEA14FB040C051D0570F0AE14F2
:103B4000BF04C006D10669F56D8D7E8D8F8D98A15D
:103B5000621773078407950720F5DA01C9016DA084
:103B60007EA08FA098A486199709A809B909E9A48D
:103B7000FAA40BA51CA5AE18BF08C00AD10AEE24F2
:103B8000FF248701281739074A075B0728F421E03B
:103B9000E22EF12C012D112DAE18BF08C00AD10A5A
:103BA00002C0DA01C9016D8C7E8C8F8C98A0681AD6
:103BB000790A8A0A9B0A498D5A8D6B8D7C8D4A1928
:103BC0005B096C097D095A016B0122243324210110
:103BD0006D8D7E8D8F8D98A1661577058805990569
:103BE00028F481E0282E312C412C512C86017501BE
:103BF000E218F30804091509A801970166960FACAD
:103C0000669704C0220F331F441F551F0A94D2F732
:103C1000D401C30167960FAC679704C0B695A7950A
:103C2000979587950A94D2F7282B392B4A2B5B2B33
:103C3000298B3A8B4B8B5C8B67960FAC679704C0D4
:103C400016950795F794E7940A94D2F7ED8AFE8AC1
:103C50000F8B188F3A894B895C896E2D7E898F89ED
:103C6000988DC55ADF4FE2E10C94CB3BA0E0B0E069
:103C7000ECE3FEE10C94AF3BDC012B01FA019C91DB
:103C8000923008F439C1EB018881823008F433C1E5
:103C9000943069F4843009F02FC111969C911197EA
:103CA0008981981709F428C1ABE6B0E025C18430BA
:103CB00009F421C18230A9F4923009F01DC19A01A2
:103CC000AD0188E0EA010990AE01E90109929E0187
:103CD0008150C1F7E201898111969C9189238183EA
:103CE00008C1923009F407C112962D903C901397A9
:103CF000EB018A819B811496AD90BD90CD90DC90B4
:103D00001797EC80FD800E811F819101281B390BD4
:103D1000B90137FF04C066277727621B730B603237
:103D200071050CF061C0121613066CF537014801DD
:103D3000062E04C096948794779467940A94D2F7D9
:103D400021E030E040E050E004C0220F331F441F68
:103D5000551F6A95D2F721503040404050402E21E7
:103D60003F2140235123211531054105510521F003
:103D700021E030E040E050E079018A01E628F728B0
:103D8000082919293CC0232BD1F1260E371E3501F5
:103D90004601062E04C096948794779467940A94FB
:103DA000D2F721E030E040E050E004C0220F331FA2
:103DB000441F551F6A95D2F7215030404040504073
:103DC0002A213B214C215D21211531054105510559
:103DD00021F021E030E040E050E059016A01A628DE
:103DE000B728C828D9280BC0821593052CF01C01D0
:103DF000AA24BB24650103C0EE24FF248701119689
:103E00009C91D20111968C91981709F445C0992381
:103E100039F0A80197012A193B094C095D0906C030
:103E2000A60195012E193F09400B510B57FD08C003
:103E300011823382228224833583468357831DC0B7
:103E400081E081833382228288279927DC01821BCB
:103E5000930BA40BB50B84839583A683B7830DC006
:103E6000220F331F441F551F2483358346835783F6
:103E70008281938101979383828324813581468156
:103E80005781DA01C9010197A109B1098F5F9F4FDD
:103E9000AF4FBF4328F30BC0918333822282EA0CD9
:103EA000FB1C0C1D1D1DE482F5820683178383E035
:103EB0008083248135814681578157FF1AC0C9010B
:103EC000AA2797FDA095BA2F81709070A070B0704E
:103ED0005695479537952795822B932BA42BB52B79
:103EE00084839583A683B78382819381019693838C
:103EF0008283DF0101C0D201CD01CDB7DEB7E2E19F
:103F00000C94CB3BA0E2B0E0E8E8FFE10C94BB3BB3
:103F100069837A838B839C832D833E834F83588769
:103F2000E9E0EE2EF12CEC0EFD1ECE010196B7015C
:103F30000E9493228E010F5E1F4FCE010596B8019D
:103F40000E9493228A8991E089278A8BC701B80150
:103F5000AE01475E5F4F0E94361E0E94BE21A096B2
:103F6000E6E00C94D73BA0E2B0E0E9EBFFE10C9473
:103F7000BB3B69837A838B839C832D833E834F83F2
:103F80005887F9E0EF2EF12CEC0EFD1ECE010196C4
:103F9000B7010E9493228E010F5E1F4FCE0105963E
:103FA000B8010E949322C701B801AE01475E5F4F7E
:103FB0000E94361E0E94BE21A096E6E00C94D73BDC
:103FC000A0E2B0E0E6EEFFE10C94AF3B69837A83B8
:103FD0008B839C832D833E834F835887CE0101962C
:103FE000BE01675F7F4F0E949322CE010596BE01FE
:103FF0006F5E7F4F0E9493229985923088F0898965
:104000008230C8F0943019F4823051F404C0843006
:1040100029F4923081F48BE690E0C6C0923049F4E6
:1040200020E09A858A89981321E02A87CE01099693
:10403000BBC0823049F420E09A858A89981321E038
:104040002A8BCE014196B0C02D843E844F8458887F
:104050006D887E888F88988CEE24FF248701AA249F
:10406000BB24650140E050E060E070E0E0E0F0E09B
:10407000C10181709070892BE9F0E60CF71C081DD6
:10408000191D9A01AB012A0D3B1D4C1D5D1D80E0E1
:1040900090E0A0E0B0E0E614F7040805190520F46C
:1040A00081E090E0A0E0B0E0BA01A901480F591FFB
:1040B0006A1F7B1FAA0CBB1CCC1CDD1C97FE08C012
:1040C00081E090E0A0E0B0E0A82AB92ACA2ADB2A61
:1040D0003196E032F10549F0660C771C881C991C7A
:1040E0005694479437942794C3CFFA85EA892B894D
:1040F0003C898B859C85280F391F2E5F3F4F17C049
:10410000CA0181709070892B61F016950795F7941C
:10411000E79480E090E0A0E0B0E8E82AF92A0A2BD2
:104120001B2B76956795579547952F5F3F4F77FDEA
:10413000E7CF0CC0440F551F661F771F17FD416066
:10414000EE0CFF1C001F111F21503040403090E04A
:10415000590790E0690790E4790760F32B8F3C8F53
:10416000DB01CA018F779070A070B0708034910528
:10417000A105B10561F447FD0AC0E114F104010590
:10418000110529F0405C5F4F6F4F7F4F40781A8ECA
:10419000FE1711F081E08A8F4D8F5E8F6F8F78A3AD
:1041A00083E0898FCE0149960E94BE21A096E2E16C
:1041B0000C94CB3BA8E1B0E0E0EEF0E20C94BB3B0A
:1041C00069837A838B839C832D833E834F835887B7
:1041D00089E0E82EF12CEC0EFD1ECE010196B70110
:1041E0000E9493228E010F5E1F4FCE010596B801EB
:1041F0000E9493228985823040F08989823028F09C
:10420000C701B8010E940B2301C08FEF6896E6E05A
:104210000C94D73BA8E1B0E0E0E1F1E20C94BB3BA9
:1042200069837A838B839C832D833E834F83588756
:1042300089E0E82EF12CEC0EFD1ECE010196B701AF
:104240000E9493228E010F5E1F4FCE010596B8018A
:104250000E9493228985823040F08989823028F03B
:10426000C701B8010E940B2301C08FEF6896E6E0FA
:104270000C94D73BA8E1B0E0E0E4F1E20C94BB3B46
:1042800069837A838B839C832D833E834F835887F6
:1042900089E0E82EF12CEC0EFD1ECE010196B7014F
:1042A0000E9493228E010F5E1F4FCE010596B8012A
:1042B0000E9493228985823040F08989823028F0DB
:1042C000C701B8010E940B2301C081E06896E6E0B7
:1042D0000C94D73BACE0B0E0E0E7F1E20C94BF3BDC
:1042E00069837A838B839C83CE010196BE016B5FC9
:1042F0007F4F0E9493228D81823061F1823050F194
:10430000843021F48E81882351F12EC02F8138858D
:1043100037FD20C06E812F3131051CF06623F9F086
:1043200023C08EE190E0821B930B29853A854B8553
:104330005C8504C056954795379527958A95D2F7A1
:104340006623B1F050954095309521953F4F4F4FE2
:104350005F4F0EC020E030E040E050E009C02FEF9A
:104360003FEF4FEF5FE704C020E030E040E050E86F
:10437000B901CA012C96E2E00C94DB3BDF92EF928C
:10438000FF920F931F93FC01E480F5800681178153
:10439000D1808081823048F480E090E0A0E1B0E0FC
:1043A000E82AF92A0A2B1B2BA5C0843009F49FC0E8
:1043B000823021F4EE24FF24870105C0E114F104CA
:1043C0000105110519F4E0E0F0E096C06281738107
:1043D0009FEF623879070CF05BC022E83FEF261BA5
:1043E000370B2A3131052CF020E030E040E050E07E
:1043F0002AC0B801A701022E04C07695679557958B
:1044000047950A94D2F781E090E0A0E0B0E004C0C4
:10441000880F991FAA1FBB1F2A95D2F70197A109E0
:10442000B1098E219F21A023B1230097A105B105D9
:1044300021F081E090E0A0E0B0E09A01AB01282BF0
:10444000392B4A2B5B2BDA01C9018F779070A07052
:10445000B07080349105A105B10539F427FF09C07A
:10446000205C3F4F4F4F5F4F04C0215C3F4F4F4F89
:104470005F4FE0E0F0E02030A0E03A07A0E04A071C
:10448000A0E45A0710F0E1E0F0E079018A0127C0CA
:104490006038710564F5FB01E158FF4FD801C70191
:1044A0008F779070A070B07080349105A105B10530
:1044B00039F4E7FE0DC080E490E0A0E0B0E004C075
:1044C0008FE390E0A0E0B0E0E80EF91E0A1F1B1F8A
:1044D00017FF05C016950795F794E794319687E086
:1044E00016950795F794E7948A95D1F705C0EE24C1
:1044F000FF248701EFEFF0E06E2F67956627679541
:10450000902F9F77D794DD24D7948E2F8695492FAF
:10451000462B582F5D29B701CA011F910F91FF90BB
:10452000EF90DF900895FC01DB01408151812281F1
:10453000622F6F7770E0221F2227221F9381892F1D
:10454000880F822B282F30E0991F9927991F1196E9
:104550009C93119721153105A9F541155105610568
:10456000710511F482E037C082E89FEF13969C93A7
:104570008E9312979A01AB0167E0220F331F441FFD
:10458000551F6A95D1F783E08C930DC0220F331F1E
:10459000441F551F12968D919C9113970197139666
:1045A0009C938E931297203080E0380780E0480774
:1045B00080E4580758F314962D933D934D935C93E4
:1045C000179708952F3F310579F44115510561057D
:1045D000710519F484E08C93089564FF03C081E0B1
:1045E0008C9312C01C9210C02F57304013963C93EE
:1045F0002E93129783E08C9387E0440F551F661F1C
:10460000771F8A95D1F7706414964D935D936D93DF
:104610007C93179708951F93DC01FB019C919230C6
:1046200008F447C08081823008F443C0943051F4CC
:1046300011961C91843099F58181682F70E0611B7F
:1046400071093FC0843021F0923031F48230B9F1E9
:104650008181882389F12DC011961C911197823098
:10466000F1F081811817D9F412962D913C9113978E
:10467000828193818217930794F028173907BCF041
:1046800014968D919D910D90BC91A02D2481358122
:1046900046815781281739074A075B0718F4112309
:1046A00041F00AC082179307A407B50740F411230D
:1046B00019F061E070E005C06FEF7FEF02C060E0CD
:1046C00070E0CB011F910895DF93CF93CDB7DEB794
:1046D00062970FB6F894DEBF0FBECDBF988B8F8761
:1046E0007A8B698B81E061E00E948833E989FA89DD
:1046F0008081282F332727FD30958F859889820F59
:10470000931F0E945828E989FA8980818150E9899C
:10471000FA89808380E090E0A8ECB2E48B879C87E4
:10472000AD87BE876B857C858D859E8520E030E0DA
:104730004AEF54E40E94E01FDC01CB018F8398878D
:10474000A987BA876F81788589859A8520E030E0CE
:1047500040E85FE30E943A2188232CF481E090E056
:104760009E838D833FC06F81788589859A8520E0FF
:104770003FEF4FE757E40E94DA2018164CF56B859F
:104780007C858D859E8520E030E040E251E40E94EA
:10479000E01FDC01CB01BC01CD010E94C000DC01A7
:1047A000CB019E838D830FC088EC90E09C838B832C
:1047B0008B819C810197F1F79C838B838D819E81F6
:1047C00001979E838D838D819E81009769F714C028
:1047D0006F81788589859A850E94C000DC01CB01B4
:1047E0009E838D838D819E819A83898389819A811D
:1047F0000197F1F79A83898362960FB6F894DEBF2A
:104800000FBECDBFCF91DF910895DF93CF93CDB78A
:10481000DEB782E061E040E00E94343482E062E092
:1048200041E00E94343482E063E042E00E9434348C
:1048300082E06AE047E00E943434CF91DF9108952E
:10484000DF93CF93CDB7DEB761970FB6F894DEBF95
:104850000FBECDBF0E946C240E946834CE01019629
:104860009E878D87E0E6F0E0F88BEF87FBE0F98B21
:10487000EF85F88900808F8598890196988B8F87BE
:10488000ED85FE8500828D859E8501969E878D87AC
:1048900099899150998BE989EE2351F789E08C87AA
:1048A00008C09E01245F3F4FCE010196B9010E94CE
:1048B00064238C858823ACF78C8581508C878C850C
:1048C000803F21F489E08C870E9468348CE10E944B
:1048D00010270E940524EDCF0F931F93DF93CF93F2
:1048E000CDB7DEB7C754D0400FB6F894DEBF0FBEC9
:1048F000CDBFFE01E95BFF4F1082FE01ED5BFF4F74
:1049000080E090E0A8E4B2E480839183A283B38343
:104910008E01015C1F4FFE01ED5BFF4F60817181D5
:104920008281938120E030E04AEF54E40E94E01F4E
:10493000DC01CB01F80180839183A283B383FE0164
:10494000FF96608171818281938120E030E040E8B0
:104950005FE30E943A2188232CF481E090E09EAF2F
:104960008DAF46C0FE01FF96608171818281938187
:1049700020E03FEF4FE757E40E94DA20181664F575
:10498000FE01ED5BFF4F608171818281938120E0A8
:1049900030E040E251E40E94E01FDC01CB01BC01A9
:1049A000CD010E94C000DC01CB019EAF8DAF0FC0D6
:1049B00088EC90E09CAF8BAF8BAD9CAD0197F1F78D
:1049C0009CAF8BAF8DAD9EAD01979EAF8DAF8DAD82
:1049D0009EAD009769F716C0FE01FF966081718158
:1049E000828193810E94C000DC01CB019EAF8DAF1C
:1049F0008DAD9EAD9AAF89AF89AD9AAD0197F1F7B4
:104A00009AAF89AF81E064E041E00E94B93681E06D
:104A100065E041E00E94B93681E066E041E00E9435
:104A2000B93681E067E041E00E94B93681E060E09C
:104A300041E00E94B93681E061E041E00E94B93670
:104A400081E062E041E00E94B93682E00E941027D6
:104A500080E090E0A0EFB1E48DAB9EABAFABB8AF20
:104A60006DA97EA98FA998AD20E030E04AEF54E40B
:104A70000E94E01FDC01CB0189AB9AABABABBCABB6
:104A800069A97AA98BA99CA920E030E040E85FE3FE
:104A90000E943A2188232CF481E090E098AB8FA704
:104AA0003FC069A97AA98BA99CA920E03FEF4FE7F5
:104AB00057E40E94DA2018164CF56DA97EA98FA93B
:104AC00098AD20E030E040E251E40E94E01FDC01BC
:104AD000CB01BC01CD010E94C000DC01CB0198AB31
:104AE0008FA70FC088EC90E09EA78DA78DA59EA5EF
:104AF0000197F1F79EA78DA78FA598A9019798AB6D
:104B00008FA78FA598A9009769F714C069A97AA9FA
:104B10008BA99CA90E94C000DC01CB0198AB8FA798
:104B20008FA598A99CA78BA78BA59CA50197F1F7AA
:104B30009CA78BA788E20E94102780E090E0A0E865
:104B4000BFE38FA398A7A9A7BAA76FA178A589A546
:104B50009AA520E030E04AEF54E40E94E01FDC0117
:104B6000CB018BA39CA3ADA3BEA36BA17CA18DA104
:104B70009EA120E030E040E85FE30E943A218823D4
:104B80002CF481E090E09AA389A33FC06BA17CA1A3
:104B90008DA19EA120E03FEF4FE757E40E94DA206D
:104BA00018164CF56FA178A589A59AA520E030E0EC
:104BB00040E251E40E94E01FDC01CB01BC01CD01C9
:104BC0000E94C000DC01CB019AA389A30FC088EC2E
:104BD00090E098A38F8F8F8D98A10197F1F798A3FC
:104BE0008F8F89A19AA101979AA389A389A19AA1DC
:104BF000009769F714C06BA17CA18DA19EA10E94B2
:104C0000C000DC01CB019AA389A389A19AA19E8F40
:104C10008D8F8D8D9E8D0197F1F79E8F8D8F8CE0FE
:104C20000E94102780E090E0A0E8BFE3898F9A8F70
:104C3000AB8FBC8F698D7A8D8B8D9C8D20E030E0A1
:104C40004AEF54E40E94E01FDC01CB018D8B9E8B68
:104C5000AF8BB88F6D897E898F89988D20E030E089
:104C600040E85FE30E943A2188232CF481E090E041
:104C70009C8B8B8B3FC06D897E898F89988D20E0BE
:104C80003FEF4FE757E40E94DA2018164CF5698D84
:104C90007A8D8B8D9C8D20E030E040E251E40E94C3
:104CA000E01FDC01CB01BC01CD010E94C000DC0192
:104CB000CB019C8B8B8B0FC088EC90E09A8B898BFF
:104CC00089899A890197F1F79A8B898B8B899C89BD
:104CD00001979C8B8B8B8B899C89009769F714C0FB
:104CE0006D897E898F89988D0E94C000DC01CB017F
:104CF0009C8B8B8B8B899C89988B8F878F859889D0
:104D00000197F1F7988B8F870E94683486E00E94A4
:104D1000102780E090E0A0E8BFE38B879C87AD87F9
:104D2000BE876B857C858D859E8520E030E04AEFCF
:104D300054E40E94E01FDC01CB018F839887A98790
:104D4000BA876F81788589859A8520E030E040E8D0
:104D50005FE30E943A2188232CF481E090E09E8357
:104D60008D833FC06F81788589859A8520E03FEFEC
:104D70004FE757E40E94DA2018164CF56B857C85C6
:104D80008D859E8520E030E040E251E40E94E01FE6
:104D9000DC01CB01BC01CD010E94C000DC01CB01D4
:104DA0009E838D830FC088EC90E09C838B838B81E6
:104DB0009C810197F1F79C838B838D819E81019764
:104DC0009E838D838D819E81009769F714C06F81CA
:104DD000788589859A850E94C000DC01CB019E837D
:104DE0008D838D819E819A83898389819A810197A0
:104DF000F1F79A838983FE01E95BFF4F81E08083AD
:104E0000FE01E95BFF4F8081C95BDF4F0FB6F8946D
:104E1000DEBF0FBECDBFCF91DF911F910F910895DF
:104E2000DF93CF93CDB7DEB760970FB6F894DEBFB0
:104E30000FBECDBF888B1F8681E060E040E00E94FE
:104E4000A53781E061E040E00E94A5378889982F6E
:104E500092959F7081E0692F0E94733A0E94F4340A
:104E600081E068890E94733A0E94F43480E090E007
:104E7000A0E8BFE38B879C87AD87BE876B857C8569
:104E80008D859E8520E030E04AEF54E40E94E01FCB
:104E9000DC01CB018F839887A987BA876F817885DA
:104EA00089859A8520E030E040E85FE30E943A215E
:104EB00088232CF481E090E09E838D833FC06F8136
:104EC000788589859A8520E03FEF4FE757E40E9477
:104ED000DA2018164CF56B857C858D859E8520E043
:104EE00030E040E251E40E94E01FDC01CB01BC0154
:104EF000CD010E94C000DC01CB019E838D830FC0D9
:104F000088EC90E09C838B838B819C810197F1F7E7
:104F10009C838B838D819E8101979E838D838D8160
:104F20009E81009769F714C06F81788589859A857D
:104F30000E94C000DC01CB019E838D838D819E8108
:104F40009A83898389819A810197F1F79A8389836A
:104F500081E08F878F8560960FB6F894DEBF0FBE15
:104F6000CDBFCF91DF910895DF93CF93CDB7DEB75B
:104F700060970FB6F894DEBF0FBECDBF888B1F863B
:104F800081E060E041E00E94A53781E061E040E01F
:104F90000E94A5378889982F92959F7081E0692F8C
:104FA0000E94733A0E94F43481E068890E94733A47
:104FB0000E94F43480E090E0A0E8BFE38B879C87F8
:104FC000AD87BE876B857C858D859E8520E030E032
:104FD0004AEF54E40E94E01FDC01CB018F839887E5
:104FE000A987BA876F81788589859A8520E030E026
:104FF00040E85FE30E943A2188232CF481E090E0AE
:105000009E838D833FC06F81788589859A8520E056
:105010003FEF4FE757E40E94DA2018164CF56B85F6
:105020007C858D859E8520E030E040E251E40E9441
:10503000E01FDC01CB01BC01CD010E94C000DC01FE
:10504000CB019E838D830FC088EC90E09C838B8383
:105050008B819C810197F1F79C838B838D819E814D
:1050600001979E838D838D819E81009769F714C07F
:105070006F81788589859A850E94C000DC01CB010B
:105080009E838D838D819E819A83898389819A8174
:105090000197F1F79A83898381E08F878F856096E6
:1050A0000FB6F894DEBF0FBECDBFCF91DF9108954C
:1050B000DF93CF9300D000D0CDB7DEB79C838B8336
:1050C0001A8219820EC08981282F30E08B819C8141
:1050D000FC01E20FF31F80810E94B42789818F5F5A
:1050E00089838981282F30E08B819C81FC01E20F2C
:1050F000F31F8081882339F781E08A838A810F90AA
:105100000F900F900F90CF91DF910895AF92BF92C3
:10511000CF92DF92EF92FF920F931F93DF93CF9383
:10512000CDB7DEB7C359D0400FB6F894DEBF0FBE7F
:10513000CDBF2A873B874C875D876E877F87888BAB
:10514000998B198681E089831A821B821C821D82B9
:105150001E821F8218868A859B85892B9C85892BB8
:105160009D85892B9E85892B9F85892B9889892BE5
:105170009989892B882321F480E30E94B427E3C610
:1051800089898823D4F08989882309F04BC68889C6
:10519000882309F047C68F85882309F043C68E858A
:1051A000882309F03FC68D85882309F03BC68C858E
:1051B000882309F037C68B8535C61BA21CA21DA209
:1051C0001EA21FA218A619A61AA69A859BA78B85B0
:1051D0008CA79C859DA78D858EA79E859FA78F8573
:1051E00088AB988999AB89898AAB9BA18BA5981BC1
:1051F0009BAB91E09BAF8BA99BA1981708F01BAECE
:105200008CA19CA5891B8CAB81E08CAF9CA98CA147
:10521000891708F01CAE9CA98BAD981B9DAF91E03F
:105220009EAF8DAD9CA9981708F01EAE8CAD9EADBB
:10523000892B8CAF8DAD8CAB9DA18DA5981B9DABA3
:1052400091E09FAF8DA99DA1981708F01FAE8DA981
:105250009CAD891B21968FAF219781E022968FAF5D
:10526000229721969FAD21978DA9891718F0229634
:105270001FAE22979FAD22968FAD2297982B9FAF9E
:1052800021969FAD21979DAB8EA19EA5891B8EABCC
:1052900081E023968FAF23979EA98EA1891718F0DE
:1052A00023961FAE23979EA98FAD981B24969FAF80
:1052B000249791E025969FAF259724968FAD24974C
:1052C0009EA9981718F025961FAE259723968FADA7
:1052D000239725969FAD2597892B23968FAF2397EC
:1052E00024968FAD24978EAB9FA18FA5981B9FAB63
:1052F00091E026969FAF26978FA99FA1981718F047
:1053000026961FAE26978FA923969FAD2397891BBC
:1053100027968FAF279781E028968FAF28972796FB
:105320009FAD27978FA9891718F028961FAE289749
:1053300026969FAD269728968FAD2897982B269670
:105340009FAF269727969FAD27979FAB88A598A9D3
:10535000891B88AF81E029968FAF299798AD88A5E2
:10536000891718F029961FAE299798AD26968FAD0C
:105370002697981B2A969FAF2A9791E02B969FAF6E
:105380002B972A968FAD2A9798AD981718F02B96E1
:105390001FAE2B9729968FAD29972B969FAD2B97F4
:1053A000892B29968FAF29972A968FAD2A9788AF98
:1053B00099A589A9981B99AF91E02C969FAF2C973E
:1053C00089AD99A5981718F02C961FAE2C9789AD2A
:1053D00029969FAD2997891B2D968FAF2D9781E038
:1053E0002E968FAF2E972D969FAD2D9789AD89174D
:1053F00018F02E961FAE2E972C969FAD2C972E96BA
:105400008FAD2E97982B2C969FAF2C972D969FADF6
:105410002D9799AF8AA59AA9891B8AAF8AAD2C9638
:105420009FAD2C97891B8AAF8BA98A879CA99B87E4
:105430008DA98C879EA99D878FA98E8798AD9F8700
:1054400089AD888B9AAD998B8DE20E94B427EAC40E
:1054500029813A814B815C816D817E818F81988524
:10546000A22EB32EC42ED52EE62EF72E082F192FDE
:105470002A2D3B2D4C2D5D2D6E2D7F2D802F912FB4
:1054800001E00E9441002F962FAF2F9760963FAF0B
:10549000609761964FAF619762965FAF6297639630
:1054A0006FAF639764967FAF649765968FAF65978C
:1054B00066969FAF66972F962FAD2F9760963FAD5C
:1054C000609761964FAD619762965FAD6297639604
:1054D0006FAD639764967FAD649765968FAD659762
:1054E00066969FAD669702E00E94410067962FAFD7
:1054F000679768963FAF689769964FAF69976A96C6
:105500005FAF6A976B966FAF6B976C967FAF6C9738
:105510006D968FAF6D976E969FAF6E972F968FADEE
:105520002F9767969FAD6797890F6F968FAF6F978D
:1055300081E0A7968FAFA7976F969FAD6F972F9635
:105540008FAD2F97981718F0A7961FAEA797609664
:105550009FAD609768968FAD6897980FA0969FAFA4
:10556000A09791E0A8969FAFA897A0968FADA0971F
:1055700060969FAD6097891718F0A8961FAEA89700
:10558000A7968FADA797A0969FADA097890FA996D4
:105590008FAFA99781E0AA968FAFAA97A9969FADE2
:1055A000A997A0968FADA097981718F0AA961FAE4E
:1055B000AA97A8969FADA897AA968FADAA97982B61
:1055C000A8969FAFA897A9969FADA997A0969FAFC1
:1055D000A09761968FAD619769969FAD6997890F86
:1055E000A1968FAFA19781E0AB968FAFAB97A196B5
:1055F0009FADA19761968FAD6197981718F0AB9604
:105600001FAEAB97A8969FADA897A1968FADA19717
:10561000980FAC969FAFAC9791E0AD969FAFAD97CA
:10562000AC968FADAC97A1969FADA197891718F056
:10563000AD961FAEAD97AB968FADAB97AD969FADC8
:10564000AD97892BAB968FAFAB97AC968FADAC97E0
:10565000A1968FAFA19762969FAD62976A968FAD24
:105660006A97980FA2969FAFA29791E0AE969FAFD0
:10567000AE97A2968FADA29762969FAD629789175B
:1056800018F0AE961FAEAE97AB968FADAB97A296C5
:105690009FADA297890FAF968FAFAF9781E0E0964D
:1056A0008FAFE097AF969FADAF97A2968FADA297C1
:1056B000981718F0E0961FAEE097AE969FADAE97A4
:1056C000E0968FADE097982BAE969FAFAE97AF96D2
:1056D0009FADAF97A2969FAFA29763968FAD63974A
:1056E0006B969FAD6B97890FA3968FAFA39781E0C1
:1056F000E1968FAFE197A3969FADA39763968FAD89
:105700006397981718F0E1961FAEE197AE969FAD9C
:10571000AE97A3968FADA397980FE2969FAFE297AF
:1057200091E0E3969FAFE397E2968FADE297A39661
:105730009FADA397891718F0E3961FAEE397E19604
:105740008FADE197E3969FADE397892BE1968FAFFD
:10575000E197E2968FADE297A3968FAFA3976496F9
:105760009FAD64976C968FAD6C97980FA4969FAF82
:10577000A49791E0E4969FAFE497A4968FADA49789
:1057800064969FAD6497891718F0E4961FAEE4976E
:10579000E1968FADE197A4969FADA497890FE5960A
:1057A0008FAFE59781E0E6968FAFE697E5969FADE0
:1057B000E597A4968FADA497981718F0E6961FAEBC
:1057C000E697E4969FADE497E6968FADE697982B23
:1057D000E4969FAFE497E5969FADE597A4969FAFBB
:1057E000A49765968FAD65976D969FAD6D97890F60
:1057F000A5968FAFA59781E0E7968FAFE797A5961F
:105800009FADA59765968FAD6597981718F0E796A9
:105810001FAEE797E4969FADE497A5968FADA59749
:10582000980FE8969FAFE89791E0E9969FAFE997C8
:10583000E8968FADE897A5969FADA597891718F0C4
:10584000E9961FAEE997E7968FADE797E9969FAD8A
:10585000E997892BE7968FAFE797E8968FADE897A2
:10586000A5968FAFA59766969FAD66976E968FADFE
:105870006E97980FA6969FAFA697E7968FADE7977E
:10588000A6969FADA697890FA6968FAFA6976F96FF
:105890008FAD6F978A8FA0969FADA0979B8FA19693
:1058A0008FADA1978C8FA2969FADA2979D8FA39647
:1058B0008FADA3978E8FA4969FADA4979F8FA5962B
:1058C0008FADA59788A3A6969FADA69799A3AA8406
:1058D000BB84CC84DD84EE84FF84088919892A2D59
:1058E0003B2D4C2D5D2D6E2D7F2D802F912F0F2E5A
:1058F000FAE0AF2EF02DBB24CC24DD24EE24FF24CF
:1059000000E010E00E941409A22EB32EC42ED52E62
:10591000E62EF72E082F192F2A2D3B2D4C2D5D2D0D
:105920006E2D7F2D802F912F2A8B3B8B4C8B5D8B87
:105930006E8B7F8B888F998F8A8D9A89890FEA96D3
:105940008FAFEA9781E0CF57DF4F8883C158D040AF
:10595000EA969FADEA978A8D981728F0CF57DF4FC8
:105960001882C158D0409B8D8B89980FEB969FAFC2
:10597000EB9791E0CE57DF4F9883C258D040EB961B
:105980008FADEB979B8D891728F0CE57DF4F18828C
:10599000C258D040CF57DF4F8881C158D040EB96D6
:1059A0009FADEB97890FCD57DF4F8883C358D04009
:1059B00081E0CC57DF4F8883C458D040CD57DF4FAC
:1059C0009881C358D040EB968FADEB97981728F08D
:1059D000CC57DF4F1882C458D040CE57DF4F988144
:1059E000C258D040CC57DF4F8881C458D040982B44
:1059F000CE57DF4F9883C258D040CD57DF4F9881A4
:105A0000C358D040EB969FAFEB978C8D9C89890F44
:105A1000EC968FAFEC9781E0CB57DF4F8883C5586A
:105A2000D040EC969FADEC978C8D981728F0CB5713
:105A3000DF4F1882C558D040CE57DF4F9881C258EB
:105A4000D040EC968FADEC97980FCA57DF4F9883F4
:105A5000C658D04091E0C957DF4F9883C758D0400F
:105A6000CA57DF4F8881C658D040EC969FADEC975F
:105A7000891728F0C957DF4F1882C758D040CB5735
:105A8000DF4F8881C558D040C957DF4F9881C7582C
:105A9000D040892BCB57DF4F8883C558D040CA5799
:105AA000DF4F8881C658D040EC968FAFEC979D8D24
:105AB0008D89980FED969FAFED9791E0C857DF4F16
:105AC0009883C858D040ED968FADED979D8D89177E
:105AD00028F0C857DF4F1882C858D040CB57DF4F47
