:100000000C942A000C9447000C9447000C94470071
:100010000C946A310C9441310C9418310C94EF30EB
:100020000C94C6300C949D300C9474300C944B306E
:100030000C9447000C9447000C9447000C94470024
:100040000C9447000C9447000C9447000C94470014
:100050000C94470011241FBECFE5D8E0DEBFCDBF12
:1000600012E0A0E6B0E0E8E5F8E602C005900D92E7
:10007000A030B107D9F712E0A0E0B2E001C01D92B4
:10008000A032B107E1F70E94121E0C942A340C949E
:100090000000EF92FF920F93DF93CF93CDB7DEB7BF
:1000A00060970FB6F894DEBF0FBECDBFA82F002318
:1000B00009F461C07E010894E11CF11C88E0F7019D
:1000C00011928A95E9F729833A834B835C836D8388
:1000D0007E83AF83988780E2801BE82FFF27E7FDB0
:1000E000F09549815A816B817C81181684F01986BC
:1000F0001A861B861C86882799278E1B9F0B04C097
:10010000440F551F661F771F8A95D2F728C0202FEE
:10011000332727FD3095DB01CA01022E04C0880F6A
:10012000991FAA1FBB1F0A94D2F789879A87AB87AA
:10013000BC8704C07695679557954795EA95D2F7A1
:100140008D819E81AF81B88504C0880F991FAA1F39
:10015000BB1F2A95D2F7482B592B6A2B7B2B4D8737
:100160005E876F87788B29853A854B855C856D85A1
:100170007E85AF8598898A2F60960FB6F894DEBF8A
:100180000FBECDBFCF91DF910F91FF90EF900895FB
:10019000A2E7B0E0EEECF0E00C94DE33982E892E6E
:1001A000712E88E0FE013196DF01682E1D926A945F
:1001B000E9F729833A834B835C836D837E839F8237
:1001C0009887FE013996DF011D928A95E9F7A98685
:1001D000BA86CB86DC86ED86FE860F87188B8D81EE
:1001E0009E81AF81B885B7FD07C0E1961CAE1DAEFC
:1001F0001EAE1FAEE19764C0219581E0121608F093
:1002000080E0319591E0131608F090E0B32FB81B11
:1002100081E03B1708F080E0982B419531E01416FF
:1002200008F030E0A42FA91B81E04A1708F080E015
:10023000382B519591E0151608F090E0F52FF31B3F
:1002400081E05F1708F080E0982B619531E0161689
:1002500008F030E0E62FE91B81E06E1708F080E03F
:10026000382B719541E0171608F040E0572F531BCB
:1002700081E0751708F080E0482B892D819591E089
:10028000181608F090E0682E641A462D31E08615A5
:1002900008F030E0932B882D8195891B2983BA8340
:1002A000AB83FC83ED835E834F8388872FEF3FEF23
:1002B0004FEF5FEFE1962CAF3DAF4EAF5FAFE197F1
:1002C0008D859E85AF85B889B7FF6AC0E1964CAD34
:1002D0005DAD6EAD7FADE1974095509560957095A1
:1002E000E1964CAF5DAF6EAF7FAFE197A19481E037
:1002F0001A1408F080E0B19491E01B1408F090E02B
:100300006B2D681B81E0B61608F080E0982BC19435
:1003100021E01C1408F020E05C2D591B81E0C5167B
:1003200008F080E0282BD19491E01D1408F090E0B3
:100330004D2D421B81E0D41608F080E0982BE1940B
:1003400021E01E1408F020E03E2D391B81E0E31669
:1003500008F080E0282BF19491E01F1408F090E061
:100360007F2D721B272F81E0F71608F080E0982B75
:10037000019511E0101608F010E0802F891B982FCE
:1003800081E0091708F080E0182B872D8195811BEB
:10039000A9866A875B874C873D872E879F87888BD6
:1003A00099812A813B814C815D816E817F81A88505
:1003B000B9851A850B85FC84ED84DE84CF84B888EA
:1003C00088E0E1E18E2E912C8C0E9D1EF401682EAA
:1003D00011926A94E9F7998B2A8B3B8B4C8B5D8B3E
:1003E0006E8B7F8BA88F9E01275E3F4FF901119284
:1003F0008A95E9F7B98F1A8F0B8FFC8EED8EDE8E02
:10040000CF8EB8A2298C3A8C4B8C5C8CED8CFE8CF8
:100410000F8D18A169887A888B889C8821966CAE8C
:100420007DAE8EAE9FAE21976D887E888F88988C2A
:10043000E114F1040105110509F0D9C36214730434
:100440008404950408F057C100E0201600E030064F
:1004500001E0400600E0500688F41FEF2116310449
:100460004104510439F030F048E0E42EF12C012D24
:10047000112D18C0EE24FF24870114C020E022169D
:1004800020E0320620E0420621E0520630F038E15A
:10049000E32EF12C012D112D05C020E1E22EF12CCF
:1004A000012D112DD201C1010E2C04C0B695A795C6
:1004B000979587950A94D2F785539F4FDC012C912D
:1004C00080E290E0A0E0B0E08E199F09A00BB10B94
:1004D0007C018D01E21AF10801091109E114F1040E
:1004E00001051105D1F10E2C04C0220C331C441C53
:1004F000551C0A94D2F7A40193010E2C04C0220FBC
:10050000331F441F551F0A94D2F780E290E08E19E2
:100510009F0921966CAC7DAC8EAC9FAC219704C03A
:1005200096948794779467948A95D2F7622A732A6F
:10053000842A952A2196ACACBDACCEACDFAC219719
:1005400004C0AA0CBB1CCC1CDD1CEA94D2F721967B
:10055000ACAEBDAECEAEDFAE21976201EE24FF247D
:100560002996CCAEDDAEEEAEFFAE299792018101A9
:10057000207030702D960CAF1DAF2EAF3FAF2D9772
:10058000C401B301A70196010E94BC337B018C0119
:10059000C401B30129962CAD3DAD4EAD5FAD299799
:1005A0000E94BC33C901DA013C014D01C401B30111
:1005B0002D962CAD3DAD4EAD5FAD2D970E949D3378
:1005C0009B01AC018701FF24EE242196ACACBDACAD
:1005D000CEACDFAC2197C601AA27BB275701680123
:1005E000A82AB92ACA2ADB2AA216B306C406D50647
:1005F000E0F408946108710881089108A20CB31C0A
:10060000C41CD51CA214B304C404D50470F0A216F3
:10061000B306C406D50648F4089461087108810839
:100620009108A20CB31CC41CD51CA21AB30AC40A9C
:10063000D50AC601B50129962CAD3DAD4EAD5FADD5
:1006400029970E94BC337B018C01C601B501299614
:100650002CAD3DAD4EAD5FAD29970E94BC33C901B5
:10066000DA015C016D01C601B5012D962CAD3DADE1
:100670004EAD5FAD2D970E949D339B01AC0187016C
:10068000FF24EE2421968CAD9DADAEADBFAD21977C
:10069000A070B070E82AF92A0A2B1B2BE216F30689
:1006A00004071507C0F40894A108B108C108D108CF
:1006B000E20CF31C041D151DE214F30404051505DA
:1006C00050F0E216F3060407150728F40894A10871
:1006D000B108C108D108D30199278827860175017F
:1006E000E82AF92A0A2B1B2B2596ECAEFDAE0EAF9D
:1006F0001FAF2597EBC4211431044104510471F458
:1007000061E070E080E090E020E030E040E050E028
:100710000E94BC33C901DA011C012D0100E0201642
:1007200000E0300601E0400600E0500688F41FEFCC
:10073000211631044104510431F028F048E050E022
:1007400060E070E017C040E050E060E070E012C090
:1007500020E0221620E0320620E0420621E0520688
:1007600028F048E150E060E070E004C040E150E073
:1007700060E070E0D201C101042E04C0B695A795D7
:10078000979587950A94D2F785539F4FDC012C915A
:10079000E0E2EE2EF12C012D112DD801C701841BB2
:1007A000950BA60BB70B821B9109A109B109009704
:1007B000A105B10561F464015301A218B308C4088E
:1007C000D50831E0632E712C812C912C24C1E39645
:1007D0008FAFE397082E04C0220C331C441C551C19
:1007E0000A94D2F7EE2DE81B640153010E2E04C0CB
:1007F000D694C794B794A7940A94D2F7A40193010E
:10080000E3960FACE39704C0220F331F441F551F1C
:100810000A94D2F721966CAC7DAC8EAC9FAC21973C
:100820000E2E04C096948794779467940A94D2F716
:1008300084017301E22AF32A042B152BE9AEFAAEE8
:100840000BAF1CAF320188249924920181012070E2
:10085000307061960CAF1DAF2EAF3FAF6197C601F0
:10086000B501A40193010E94BC337B018C01C60138
:10087000B501A40193010E94BC33C901DA01659658
:100880008CAF9DAFAEAFBFAF6597BC01CD01619698
:100890002CAD3DAD4EAD5FAD61970E949D339B0188
:1008A000AC018701FF24EE24A9ACBAACCBACDCAC24
:1008B000C601AA27BB275C016D01AE28BF28C02A4C
:1008C000D12AA216B306C406D50660F565966CADAE
:1008D0007DAD8EAD9FAD659761507040804090407A
:1008E00065966CAF7DAF8EAF9FAF6597A20CB31CC2
:1008F000C41CD51CA214B304C404D50498F0A216D9
:10090000B306C406D50670F4615070408040904034
:1009100065966CAF7DAF8EAF9FAF6597A20CB31C91
:10092000C41CD51CA21AB30AC40AD50AC601B50153
:10093000A40193010E94BC337B018C01C601B50167
:10094000A40193010E94BC33C901DA013C014D01AD
:10095000C401B30161962CAD3DAD4EAD5FAD619765
:100960000E949D339B01AC018701FF24EE2489ADD9
:100970009AADABADBCADA070B07057016801A82AAC
:10098000B92ACA2ADB2AA216B306C406D506E0F4A1
:1009900008946108710881089108A20CB31CC41C5A
:1009A000D51CA214B304C404D50470F0A216B30677
:1009B000C406D50648F408946108710881089108B6
:1009C000A20CB31CC41CD51C21968CAD9DADAEAD44
:1009D000BFAD2197E3960FACE39704C0880F991F32
:1009E000AA1FBB1F0A94D2F721968CAF9DAFAEAF62
:1009F000BFAF2197A21AB30AC40AD50A6596ECAC18
:100A0000FDAC0EAD1FAD6597D70199278827682AE1
:100A1000792A8A2A9B2A82012227332769960CAFDA
:100A20001DAF2EAF3FAF6997A2019101407050708A
:100A30006D962CAF3DAF4EAF5FAF6D97C601B50160
:100A400069962CAD3DAD4EAD5FAD69970E94BC334C
:100A50007B018C01C601B50169962CAD3DAD4EAD53
:100A60005FAD69970E94BC33C901DA01A1968CAFD2
:100A70009DAFAEAFBFAFA197BC01CD016D962CADC0
:100A80003DAD4EAD5FAD6D970E949D339B01AC01B6
:100A90008701FF24EE242196ACACBDACCEACDFAC1C
:100AA0002197C601AA27BB2757016801A82AB92A9E
:100AB000CA2ADB2AA216B306C406D50660F5A1969B
:100AC0006CAD7DAD8EAD9FADA19761507040804003
:100AD0009040A1966CAF7DAF8EAF9FAFA197A20C57
:100AE000B31CC41CD51CA214B304C404D50498F0D0
:100AF000A216B306C406D50670F46150704080405B
:100B00009040A1966CAF7DAF8EAF9FAFA197A20C26
:100B1000B31CC41CD51CA21AB30AC40AD50AC60148
:100B2000B50169962CAD3DAD4EAD5FAD69970E94A4
:100B3000BC337B018C01C601B50169962CAD3DAD7E
:100B40004EAD5FAD69970E94BC33C901DA015C010B
:100B50006D01C601B5016D962CAD3DAD4EAD5FADDD
:100B60006D970E949D339B01AC018701FF24EE2409
:100B700021968CAD9DADAEADBFAD2197A070B0708C
:100B8000E82AF92A0A2B1B2BE216F306040715079D
:100B9000C0F40894A108B108C108D108E20CF31C04
:100BA000041D151DE214F3040405150550F0E216AA
:100BB000F3060407150728F40894A108B108C10832
:100BC000D108A196ECACFDAC0EAD1FADA197D7013D
:100BD0009927882796018501082B192B2A2B3B2B57
:100BE00025960CAF1DAF2EAF3FAF259772C26E1486
:100BF0007F048006910608F45FC220E0E21620E040
:100C0000F20621E0020720E0120788F43FEFE31626
:100C1000F1040105110531F028F048E050E060E0F2
:100C200070E017C040E050E060E070E012C040E0CB
:100C3000E41640E0F40640E0040741E0140728F021
:100C400048E150E060E070E004C040E150E060E066
:100C500070E0D801C701042E04C0B695A7959795FA
:100C600087950A94D2F785539F4FDC012C9130E28F
:100C7000A32EB12CC12CD12CD601C501841B950B00
:100C8000A60BB70B821B9109A109B1090097A10519
:100C9000B10599F4E614F7040805190508F4FEC136
:100CA00021966CAC7DAC8EAC9FAC21976214730422
:100CB0008404950408F0F2C1FFC1E2968FAFE29779
:100CC000082E04C0EE0CFF1C001F111F0A94D2F75F
:100CD0006A2D681BD201C101062E04C0B695A795E6
:100CE000979587950A94D2F75C016D01AE28BF28CD
:100CF000C02AD12AADAABEAACFAAD8AE720161017C
:100D0000E2960FACE29704C0CC0CDD1CEE1CFF1C7D
:100D10000A94D2F7C9AADAAAEBAAFCAA6401530181
:100D2000062E04C0D694C794B794A7940A94D2F719
:100D3000D401C301E2960FACE29704C0880F991F5B
:100D4000AA1FBB1F0A94D2F72196ECACFDAC0EADE6
:100D50001FAD219704C016950795F794E7946A95FF
:100D6000D2F737014801682A792A8A2A9B2A6DA678
:100D70007EA68FA698AAEDA8FEA80FA918AD3801E7
:100D8000882499249801870120703070A5960CAFB3
:100D90001DAF2EAF3FAFA597C601B501A4019301CA
:100DA0000E94BC337B018C01C601B501A4019301F3
:100DB0000E94BC33C901DA011C012D01C201B1013D
:100DC000A5962CAD3DAD4EAD5FADA5970E949D3370
:100DD0009B01AC018701FF24EE24ADA4BEA4CFA4E7
:100DE000D8A8C601AA27BB2757016801A82AB92A93
:100DF000CA2ADB2AA216B306C406D50600F5089453
:100E00002108310841085108EDA8FEA80FA918AD26
:100E1000AE0CBF1CC01ED11EAE14BF04C006D1064E
:100E200070F0A216B306C406D50648F4089421084B
:100E3000310841085108AE0CBF1CC01ED11EA21AB9
:100E4000B30AC40AD50AC601B501A40193010E94E0
:100E5000BC337B018C01C601B501A40193010E9442
:100E6000BC33C901DA013C014D01C401B301A596AF
:100E70002CAD3DAD4EAD5FADA5970E949D339B015E
:100E8000AC018701FF24EE248DA59EA5AFA5B8A9CE
:100E9000A070B07057016801A82AB92ACA2ADB2AB3
:100EA000A216B306C406D50600F5089461087108B9
:100EB000810891086DA97EA98FA998ADA60EB71ECD
:100EC000C81ED91EA616B706C806D90670F0A21607
:100ED000B306C406D50648F4089461087108810871
:100EE0009108A60EB71EC81ED91ED601C501821BC9
:100EF000930BA40BB50B89A79AA7ABA7BCA7D101ED
:100F00009927882764015301A82AB92ACA2ADB2A0B
:100F10002596ACAEBDAECEAEDFAE2597860175018F
:100F20002FEF3FEF40E050E0E222F32204231523AD
:100F3000A60166277727AD964CAF5DAF6EAF7FAF4A
:100F4000AD97A9A8BAA8CBA8DCA86FEF7FEF80E087
:100F500090E0A622B722C822D92289A99AA9ABA9D2
:100F6000BCA91D0144245524C801B701A60195015F
:100F70000E949D33A9966CAF7DAF8EAF9FAFA997AE
:100F8000C801B701A20191010E949D333B014C01B0
:100F9000AD966CAD7DAD8EAD9FADAD97A6019501C3
:100FA0000E949D337B018C01AD966CAD7DAD8EAD05
:100FB0009FADAD97A20191010E949D335B016C0131
:100FC000A8019701260D371D481D591DA9966CAC27
:100FD0007DAC8EAC9FACA997C401AA27BB27280F74
:100FE000391F4A1F5B1F2E153F054007510748F464
:100FF000E12CF12C61E0062F112DAE0CBF1CC01EA0
:10100000D11ECA01AA27BB27BC01CD016A0D7B1DD9
:101010008C1D9D1D69A47AA48BA49CA466167706DA
:101020008806990650F1661577058805990509F037
:101030004DC0D90199278827A9962CAD3DAD4EAD5D
:101040005FADA99740705070820F931FA41FB51F0A
:1010500021962CAD3DAD4EAD5FAD2197E2960FAC24
:10106000E29704C0220F331F441F551F0A94D2F782
:10107000281739074A075B0748F525960CAD1DADC3
:101080002EAD3FAD259701501040204030402596B1
:101090000CAF1DAF2EAF3FAF259718C06624772445
:1010A000430121E030E040E050E025962CAF3DAF19
:1010B0004EAF5FAF25970DC0662477244301259678
:1010C0001CAE1DAE1EAE1FAE259703C0662477244E
:1010D0004301FE01B19688E0DF011D928A95E9F790
:1010E0002596ACACBDACCEACDFAC2597A9A2BAA21C
:1010F000CBA2DCA26DA27EA28FA298A622962FADD3
:1011000022973AA14BA15CA1662D7EA1DFA098A5F4
:10111000E196ECACFDAC0EAD1FADE197E114F1042E
:101120000105110509F456C0219581E0121608F059
:1011300080E03195E1E0131608F0E0E0932E981A74
:1011400081E0391508F080E0E82B4195F1E01416B4
:1011500008F0F0E0A42EAE1A81E04A1508F080E015
:10116000F82B5195E1E0151608F0E0E0B52EBF1A16
:1011700081E05B1508F080E0E82B6195F1E0161640
:1011800008F0F0E0A62FAE1B81E06A1708F080E0BF
:10119000F82B7195E1E0171608F0E0E0C72ECF1AA2
:1011A00081E07C1508F080E0E82B8D2D8195F1E041
:1011B000181608F0F0E0D82EDE1AE1E08D1508F0E0
:1011C000E0E0FE2B892F8195392DA5016A2F7C2D1A
:1011D000982F9F1B8D2DCE58DF4FE2E10C94FA33F0
:1011E000A7E7B0E0E6EFF8E00C94DE33982E892E06
:1011F000712E88E0FE013196DF01682E1D926A94FF
:10120000E9F729833A834B835C836D837E839F82D6
:101210009887FE013996DF011D928A95E9F7A98624
:10122000BA86CB86DC86ED86FE860F87188B8D818D
:101230009E81AF81B885B7FD07C0E1961CAE1DAE9B
:101240001EAE1FAEE19764C0219581E0121608F032
:1012500080E0319591E0131608F090E0B32FB81BB1
:1012600081E03B1708F080E0982B419531E014169F
:1012700008F030E0A42FA91B81E04A1708F080E0B5
:10128000382B519591E0151608F090E0F52FF31BDF
:1012900081E05F1708F080E0982B619531E0161629
:1012A00008F030E0E62FE91B81E06E1708F080E0DF
:1012B000382B719541E0171608F040E0572F531B6B
:1012C00081E0751708F080E0482B892D819591E029
:1012D000181608F090E0682E641A462D31E0861545
:1012E00008F030E0932B882D8195891B2983BA83E0
:1012F000AB83FC83ED835E834F8388872FEF3FEFC3
:101300004FEF5FEFE1962CAF3DAF4EAF5FAFE19790
:101310008D859E85AF85B889B7FF5AC0A19481E0BD
:101320001A1408F080E0B19491E01B1408F090E0EA
:101330006B2D681B81E0B61608F080E0982BC194F5
:1013400021E01C1408F020E05C2D591B81E0C5163B
:1013500008F080E0282BD19491E01D1408F090E073
:101360004D2D421B81E0D41608F080E0982BE194CB
:1013700021E01E1408F020E03E2D391B81E0E31629
:1013800008F080E0282BF19491E01F1408F090E021
:101390007F2D721B272F81E0F71608F080E0982B35
:1013A000019511E0101608F010E0802F891B982F8E
:1013B00081E0091708F080E0182B872D8195811BAB
:1013C000A9866A875B874C873D872E879F87888B96
:1013D00099812A813B814C815D816E817F81A885C5
:1013E000B9851A850B85FC84ED84DE84CF84B888AA
:1013F00088E0E9E18E2E912C8C0E9D1EF401682E62
:1014000011926A94E9F7998F2A8F3B8F4C8F5D8FE9
:101410006E8F7F8FA8A39E012F5D3F4FF901119220
:101420008A95E9F7B9A31AA30BA3FCA2EDA2DEA249
:10143000CFA2B8A629A03AA04BA05CA0ADA0BEA0A8
:10144000CFA0D8A4498D5A8D6B8D7C8DE5964FAF7A
:10145000E597E6965FAFE697E7966FAFE797E89672
:101460007FAFE897E8966CAC7DAC8EAC9FACE8970C
:101470002D966CAE7DAE8EAE9FAE2D978D8D9E8DD2
:101480002F8D38A13C01490161966CAE7DAE8EAEC8
:101490009FAE6197A114B104C104D10409F028C31F
:1014A000621473048404950408F00EC100E0201651
:1014B00000E0300601E0400600E0500688F41FEF2F
:1014C000211631044104510439F030F088E0E82E4F
:1014D000F12C012D112D18C0EE24FF24870114C01A
:1014E00020E0221620E0320620E0420621E05206EB
:1014F00030F0B8E1EB2EF12C012D112D05C0A0E14B
:10150000EA2EF12C012D112DD201C1010E2C04C0A7
:10151000B695A795979587950A94D2F785539F4FCF
:10152000DC012C9180E290E0A0E0B0E08E199F09F0
:10153000A00BB10B5C016D01A21AB108C108D10862
:101540006596ACAEBDAECEAEDFAE6597A114B1046C
:10155000C104D10409F445C062966FAD6297062EAE
:1015600004C0220C331C441C551C0A94D2F7A4015D
:101570009301062E04C0220F331F441F551F0A94E7
:10158000D2F780E290E08A199B09E896CCACDDACFA
:10159000EEACFFACE89704C0F694E794D794C794F8
:1015A0008A95D2F787017601E22AF32A042B152BBC
:1015B0006196ECAEFDAE0EAF1FAF6197E8960CAD35
:1015C0001DAD2EAD3FADE89704C0000F111F221FC7
:1015D000331F6A95D2F72D960CAF1DAF2EAF3FAFDC
:1015E0002D97320188249924A201910140705070F6
:1015F00069962CAF3DAF4EAF5FAF699761966CAD0A
:101600007DAD8EAD9FAD6197A40193010E94BC3367
:101610007B018C0161966CAD7DAD8EAD9FAD619708
:10162000A40193010E94BC33CA01B90169962CAD93
:101630003DAD4EAD5FAD69970E949D339B01AC01FE
:101640008701FF24EE242D96ACACBDACCEACDFAC54
:101650002D97C601AA27BB2757016801A82AB92AD6
:10166000CA2ADB2AA216B306C406D50690F4A20C39
:10167000B31CC41CD51CA214B304C404D50448F084
:10168000A216B306C406D50620F4A20CB31CC41CD3
:10169000D51CA21AB30AC40AD50AC601B501A40111
:1016A00093010E94BC337B018C01C601B501A401EA
:1016B00093010E94BC33CA01B90169962CAD3DADBE
:1016C0004EAD5FAD6997C8C1211431044104510486
:1016D00071F461E070E080E090E020E030E040E014
:1016E00050E00E94BC33C901DA011C012D0100E069
:1016F000201600E0300601E0400600E0500688F4C5
:101700001FEF211631044104510439F030F068E034
:10171000E62EF12C012D112D18C0EE24FF24870197
:1017200014C020E0221620E0320620E0420621E02C
:10173000520630F058E1E52EF12C012D112D05C097
:1017400040E1E42EF12C012D112DD201C1010E2C0E
:1017500004C0B695A795979587950A94D2F78553B7
:101760009F4FDC012C9130E2A32EB12CC12CD12C47
:10177000D601C5018E199F09A00BB10B7C018D010B
:10178000E21AF108010911096596ECAEFDAE0EAF43
:101790001FAF6597E114F1040105110539F46401E7
:1017A0005301A218B308C408D508ECC06296FFAC78
:1017B0006297E496FFAEE4970F2C04C0220C331C12
:1017C000441C551C0A94D2F78A2D8F1964015301C9
:1017D000082E04C0D694C794B794A7940A94D2F75D
:1017E000A401930104C0220F331F441F551FFA9414
:1017F000D2F7E8966CAC7DAC8EAC9FACE89704C099
:1018000096948794779467948A95D2F784017301AC
:10181000E22AF32A042B152B2996ECAEFDAE0EAF6F
:101820001FAF2997320188249924920181012070E9
:1018300030706D960CAF1DAF2EAF3FAF6D97C601E8
:10184000B501A40193010E94BC337B018C01C60148
:10185000B501A40193010E94BC33CA01B9016D9680
:101860002CAD3DAD4EAD5FAD6D970E949D339B019C
:10187000AC018701FF24EE242996ACACBDACCEAC04
:10188000DFAC2997C601AA27BB275C016D01AE28F2
:10189000BF28C02AD12AA216B306C406D50690F4E2
:1018A000A20CB31CC41CD51CA214B304C404D504DC
:1018B00048F0A216B306C406D50620F4A20CB31C49
:1018C000C41CD51CA21AB30AC40AD50AC601B501A4
:1018D000A40193010E94BC337B018C01C601B501B8
:1018E000A40193010E94BC33CA01B9016D962CADCD
:1018F0003DAD4EAD5FAD6D970E949D339B01AC0138
:101900008701FF24EE2429968CAD9DADAEADBFAD11
:101910002997A070B07057016801A82AB92ACA2A6D
:10192000DB2AA216B306C406D50690F4A20CB31C9B
:10193000C41CD51CA214B304C404D50448F0A216D8
:10194000B306C406D50620F4A20CB31CC41CD51CD7
:10195000E896ECACFDAC0EAD1FADE897E4960FAC8D
:10196000E49704C0EE0CFF1C001F111F0A94D2F76D
:101970002D96ECAEFDAE0EAF1FAF2D97A21AB30A97
:10198000C40AD50A32018824992492018101207069
:101990003070A1960CAF1DAF2EAF3FAFA197C6011F
:1019A000B501A40193010E94BC337B018C01C601E7
:1019B000B501A40193010E94BC33CA01B901A196EB
:1019C0002CAD3DAD4EAD5FADA1970E949D339B0107
:1019D000AC018701FF24EE242D96ACACBDACCEAC9F
:1019E000DFAC2D97C601AA27BB2757016801A82A9B
:1019F000B92ACA2ADB2AA216B306C406D50690F471
:101A0000A20CB31CC41CD51CA214B304C404D5047A
:101A100048F0A216B306C406D50620F4A20CB31CE7
:101A2000C41CD51CA21AB30AC40AD50AC601B50142
:101A3000A40193010E94BC337B018C01C601B50156
:101A4000A40193010E94BC33CA01B901A1962CAD37
:101A50003DAD4EAD5FADA1970E949D339B01AC01A2
:101A60008701FF24EE242D968CAD9DADAEADBFADAC
:101A70002D97A070B070E82AF92A0A2B1B2BE216CA
:101A8000F3060407150790F4E20CF31C041D151D62
:101A9000E214F3040405150548F0E216F306040702
:101AA000150720F4E20CF31C041D151DE21AF30ABD
:101AB000040B150BD801C70162960FAC629704C0E6
:101AC000B695A795979587950A94D2F789A79AA76F
:101AD000ABA7BCA71DA61EA61FA618AA898B8AA500
:101AE0008A8B8BA58B8B8CA58C8B8DA58D8B2FC317
:101AF0006A147B048C049D0448F4498B5A8B6B8BCD
:101B00007C8B8D8B9E8B2F8B388F27C300E0A0168C
:101B100000E0B00601E0C00600E0D00688F41FEF48
:101B2000A116B104C104D10439F030F028E0E22E4E
:101B3000F12C012D112D18C0EE24FF24870114C0B3
:101B400020E0A21620E0B20620E0C20621E0D20684
:101B500030F098E1E92EF12C012D112D05C080E126
:101B6000E82EF12C012D112DD601C5010E2C04C03B
:101B7000B695A795979587950A94D2F785539F4F69
:101B8000DC012C9180E290E0A0E0B0E08E199F098A
:101B9000A00BB10B821B9109A109B1090097A10506
:101BA000B10509F059C0A614B704C804D90470F0EF
:101BB000E896ECACFDAC0EAD1FADE897E214F30473
:101BC0000405150518F4D801C7012FC0E8968CAD9F
:101BD0009DADAEADBFADE89782199309A409B509D3
:101BE000A40193012A193B094C095D09AA24BB24CD
:101BF0006501E8966CAC7DAC8EAC9FACE89768163E
:101C000079068A069B0628F411E0A12EB12CC12C7E
:101C1000D12C79018A01EA18FB080C091D0961968B
:101C2000ECAEFDAE0EAF1FAF619789A79AA7ABA729
:101C3000BCA761960CAD1DAD2EAD3FAD61970DA754
:101C40001EA72FA738AB898B8AA58A8B8BA58B8B78
:101C50008CA58C8B0D8B7BC2E3968FAFE397A6018F
:101C60009501082E04C0220F331F441F551F0A94EC
:101C7000D2F710E2181BE2961FAFE297D201C10122
:101C8000012E04C0B695A795979587950A94D2F72B
:101C90005C016D01A22AB32AC42AD52A2596ACAECE
:101CA000BDAECEAEDFAE259772016101E3960FACFB
:101CB000E39704C0CC0CDD1CEE1CFF1C0A94D2F789
:101CC0002196CCAEDDAEEEAEFFAE2197640153019E
:101CD000012E04C0D694C794B794A7940A94D2F75F
:101CE000A4019301E3960FACE39704C0220F331FC6
:101CF000441F551F0A94D2F7E8968CAD9DADAEAD4A
:101D0000BFADE89704C0B695A795979587951A95A6
:101D1000D2F77C018D01E22AF32A042B152BE9AEC0
:101D2000FAAE0BAF1CAFE8960CAD1DAD2EAD3FADBE
:101D3000E897E3960FACE39704C0000F111F221F32
:101D4000331F0A94D2F70DAB1EAB2FAB38AF2596DD
:101D50002CAD3DAD4EAD5FAD25973A018824992459
:101D600040705070A5962CAF3DAF4EAF5FAFA597BA
:101D7000C601B501A40193010E94BC337B018C0113
:101D8000C601B501A40193010E94BC33C901DA0167
:101D90001C012D01C201B101A5962CAD3DAD4EAD8A
:101DA0005FADA5970E949D339B01AC018701FF2485
:101DB000EE24A9ACBAACCBACDCACC601AA27BB27DD
:101DC00057016801A82AB92ACA2ADB2AA216B30633
:101DD000C406D50610F508942108310841085108B9
:101DE0002596ECACFDAC0EAD1FAD2597AE0CBF1C1F
:101DF000C01ED11EAE14BF04C006D10670F0A216DC
:101E0000B306C406D50648F40894210831084108F1
:101E10005108AE0CBF1CC01ED11EA21AB30AC40AC0
:101E2000D50AC601B501A40193010E94BC337B0110
:101E30008C01C601B501A40193010E94BC33C90104
:101E4000DA013C014D01C401B301A5962CAD3DADB5
:101E50004EAD5FADA5970E949D339B01AC018701FC
:101E6000FF24EE2489AD9AADABADBCADA070B070CF
:101E700057016801A82AB92ACA2ADB2AA216B30682
:101E8000C406D50610F50894610871088108910808
:101E900025966CAD7DAD8EAD9FAD2597A60EB71E78
:101EA000C81ED91EA616B706C806D90670F0A21617
:101EB000B306C406D50648F4089461087108810881
:101EC0009108A60EB71EC81ED91ED601C501821BD9
:101ED000930BA40BB50B89AB9AABABABBCABD101ED
:101EE0009927882784017301E82AF92A0A2B1B2BDA
:101EF0008FEFA82E8FEFB82EC12CD12CAE20BF2093
:101F0000C022D12278010027112721966CAC7DAC2C
:101F10008EAC9FAC21972FEF3FEF40E050E0622264
:101F200073228422952221966CAD7DAD8EAD9FAD3E
:101F30002197AC0166277727AD964CAF5DAF6EAFAA
:101F40007FAFAD97C601B501A40193010E949D33F7
:101F5000A9966CAF7DAF8EAF9FAFA997C601B501B3
:101F6000AD962CAD3DAD4EAD5FADAD970E949D33AE
:101F70001B012C01C801B701A40193010E949D33EC
:101F80005B016C01C801B701AD962CAD3DAD4EAD06
:101F90005FADAD970E949D337B018C01A601950139
:101FA000220D331D441D551DA9966CAC7DAC8EAC25
:101FB0009FACA997C401AA27BB27280F391F4A1F26
:101FC0005B1F2A153B054C055D0548F4812C912CBF
:101FD000E1E0AE2EB12CE80CF91C0A1D1B1DCA0154
:101FE000AA27BB2757016801A80EB91ECA1EDB1E0F
:101FF000A90133272227A9968CAD9DADAEADBFAD0B
:10200000A997A070B070280F391F4A1F5B1FE9A85D
:10201000FAA80BA91CA9EA14FB040C051D0570F015
:10202000AE14BF04C006D10689F56DA97EA98FA99B
:1020300098AD621773078407950740F5DA01C90167
:1020400021966CAC7DAC8EAC9FAC2197861997091C
:10205000A809B9092596ECACFDAC0EAD1FAD2597CE
:10206000AE18BF08C00AD10AEE24FF248701281742
:1020700039074A075B0728F421E0E22EF12C012DF5
:10208000112DAE18BF08C00AD10A02C0DA01C90179
:102090006DA87EA88FA898AC681A790A8A0A9B0A4C
:1020A00009A91AA92BA93CA90A191B092C093D0940
:1020B000580169012224332421012DA93EA94FA9E9
:1020C00058AD261537054805590528F481E0282E16
:1020D000312C412C512C86017501E218F3080409BA
:1020E0001509A8019701E2960FACE29704C0220FF0
:1020F000331F441F551F0A94D2F7D401C301E3963E
:102100000FACE39704C0B695A795979587950A9469
:10211000D2F7282B392B4A2B5B2B29A73AA74BA7A1
:102120005CA7E3960FACE39704C016950795F79468
:10213000E7940A94D2F7EDA6FEA60FA718AB298B59
:102140008AA58A8B8BA58B8B8CA58C8BED8A8EA513
:102150008E8B8FA58F8B88A9888FE1964CAD5DAD56
:102160006EAD7FADE197411551056105710509F42B
:1021700067C089892A893B894C895D89AE89BF8975
:10218000188DF82FF19591E01F1608F090E0822F3E
:10219000819521E0181608F020E0E82FE91B91E076
:1021A0008E1708F090E0292B832F819531E01816C7
:1021B00008F030E0782F721B91E0871708F090E06C
:1021C000392B842F819521E0181608F020E0682F24
:1021D000631B91E0861708F090E0292B852F8195ED
:1021E00031E0181608F030E0582F521B91E08517A7
:1021F00008F090E0392B8A2F819521E0181608F01D
:1022000020E0482F431B91E0841708F090E0292B31
:102210008B2F819591E0181608F090E0382F321B33
:1022200021E0831708F020E0922B812F8195891BF4
:10223000F98BEA8B7B8B6C8B5D8B4E8B3F8B888F06
:1022400029893A894B895C896D897E898F89988D26
:10225000C958DF4FE2E10C94FA33AEE5B0E0E3E3B6
:10226000F1E10C94DE33A8E04E010894811C911C2E
:10227000F4016A2E11926A94E9F729833A834B8319
:102280005C836D837E838F839887CE010996FC01E2
:102290001192AA95E9F7A986BA86CB86DC86ED86E7
:1022A000FE860F87188B29843A844B845C84ED84E6
:1022B000FE840F85188969807A808B809C806DA64A
:1022C0007EA68FA698AA6D807E808F809884E11468
:1022D000F1040105110509F0B3C362147304840409
:1022E000950408F03DC100E0201600E0300601E052
:1022F000400600E0500688F41FEF21163104410427
:10230000510439F030F048E0E42EF12C012D112D6C
:1023100018C0EE24FF24870114C020E0221620E01C
:10232000320620E0420621E0520630F038E1E32E8A
:10233000F12C012D112D05C020E1E22EF12C012DF3
:10234000112DD201C1010E2C04C0B695A795979509
:1023500087950A94D2F785539F4FDC012C9180E238
:1023600090E0A0E0B0E08E199F09A00BB10B7C01BA
:102370008D01E21AF10801091109E114F1040105C6
:102380001105A1F10E2C04C0220C331C441C551C59
:102390000A94D2F7A40193010E2C04C0220F331F1C
:1023A000441F551F0A94D2F780E290E08E199F09CE
:1023B0006DA47EA48FA498A804C096948794779463
:1023C00067948A95D2F7622A732A842A952AADA443
:1023D000BEA4CFA4D8A804C0AA0CBB1CCC1CDD1C76
:1023E000EA94D2F7ADA6BEA6CFA6D8AA6201EE2483
:1023F000FF24CDAADEAAEFAAF8AE920181012070D7
:10240000307009AF1AAF2BAF3CAFC401B301A701C5
:1024100096010E94BC337B018C01C401B3012DA93C
:102420003EA94FA958AD0E94BC33C901DA013C0155
:102430004D01C401B30129AD3AAD4BAD5CAD0E9475
:102440009D339B01AC018701FF24EE24ADA4BEA403
:10245000CFA4D8A8C601AA27BB2757016801A82A7C
:10246000B92ACA2ADB2AA216B306C406D506E0F4A6
:1024700008946108710881089108A20CB31CC41C5F
:10248000D51CA214B304C404D50470F0A216B3067C
:10249000C406D50648F408946108710881089108BB
:1024A000A20CB31CC41CD51CA21AB30AC40AD50AB8
:1024B000C601B5012DA93EA94FA958AD0E94BC3354
:1024C0007B018C01C601B5012DA93EA94FA958ADCC
:1024D0000E94BC33C901DA015C016D01C601B5017E
:1024E00029AD3AAD4BAD5CAD0E949D339B01AC0173
:1024F0008701FF24EE248DA59EA5AFA5B8A9A070E5
:10250000B070E82AF92A0A2B1B2BE216F3060407FF
:102510001507C0F40894A108B108C108D108E20C5D
:10252000F31C041D151DE214F3040405150550F0F9
:10253000E216F3060407150728F40894A108B10869
:10254000C108D108D3019927882786017501E82A97
:10255000F92A0A2B1B2BE9AAFAAA0BAB1CABCFC496
:10256000211431044104510471F461E070E080E011
:1025700090E020E030E040E050E00E94BC33C90130
:10258000DA011C012D0100E0201600E0300601E018
:10259000400600E0500688F41FEF21163104410484
:1025A000510431F028F048E050E060E070E017C0DE
:1025B00040E050E060E070E012C020E0221620E031
:1025C000320620E0420621E0520628F048E150E0C1
:1025D00060E070E004C040E150E060E070E0D201F3
:1025E000C101042E04C0B695A795979587950A94C6
:1025F000D2F785539F4FDC012C91E0E2EE2EF12CB7
:10260000012D112DD801C701841B950BA60BB70B0B
:10261000821B9109A109B1090097A105B10561F4D7
:1026200064015301A218B308C408D50831E0632E31
:10263000712C812C912C1EC16F968FAF6F97082E35
:1026400004C0220C331C441C551C0A94D2F7EE2DF6
:10265000E81B640153010E2E04C0D694C794B794AE
:10266000A7940A94D2F7A40193016F960FAC6F97C9
:1026700004C0220F331F441F551F0A94D2F76DA4C4
:102680007EA48FA498A80E2E04C096948794779465
:1026900067940A94D2F784017301E22AF32A042B87
:1026A000152BE9A6FAA60BA71CA7320188249924AA
:1026B000920181012070307021960CAF1DAF2EAFBA
:1026C0003FAF2197C601B501A40193010E94BC331D
:1026D0007B018C01C601B501A40193010E94BC33AA
:1026E000C901DA0125968CAF9DAFAEAFBFAF25977C
:1026F000BC01CD0121962CAD3DAD4EAD5FAD219716
:102700000E949D339B01AC018701FF24EE24A9A404
:10271000BAA4CBA4DCA4C601AA27BB275C016D0127
:10272000AE28BF28C02AD12AA216B306C406D506F1
:1027300060F525966CAD7DAD8EAD9FAD2597615052
:1027400070408040904025966CAF7DAF8EAF9FAFBC
:102750002597A20CB31CC41CD51CA214B304C4043A
:10276000D50498F0A216B306C406D50670F46150DD
:1027700070408040904025966CAF7DAF8EAF9FAF8C
:102780002597A20CB31CC41CD51CA21AB30AC40AF8
:10279000D50AC601B501A40193010E94BC337B0197
:1027A0008C01C601B501A40193010E94BC33C9018B
:1027B000DA013C014D01C401B30121962CAD3DADC0
:1027C0004EAD5FAD21970E949D339B01AC01870107
:1027D000FF24EE2489A59AA5ABA5BCA5A070B07076
:1027E00057016801A82AB92ACA2ADB2AA216B30609
:1027F000C406D506E0F408946108710881089108C0
:10280000A20CB31CC41CD51CA214B304C404D5046C
:1028100070F0A216B306C406D50648F40894610801
:10282000710881089108A20CB31CC41CD51C8DA58D
:102830009EA5AFA5B8A96F960FAC6F9704C0880F7F
:10284000991FAA1FBB1F0A94D2F78DA79EA7AFA7F7
:10285000B8ABA21AB30AC40AD50A2596ECACFDACF3
:102860000EAD1FAD2597D70199278827682A792AA9
:102870008A2A9B2A82012227332729960CAF1DAF73
:102880002EAF3FAF2997A2019101407050702D9655
:102890002CAF3DAF4EAF5FAF2D97C601B501299666
:1028A0002CAD3DAD4EAD5FAD29970E94BC337B0191
:1028B0008C01C601B50129962CAD3DAD4EAD5FAD85
:1028C00029970E94BC33C901DA0161968CAF9DAF94
:1028D000AEAFBFAF6197BC01CD012D962CAD3DAD24
:1028E0004EAD5FAD2D970E949D339B01AC018701DA
:1028F000FF24EE24ADA4BEA4CFA4D8A8C601AA2765
:10290000BB2757016801A82AB92ACA2ADB2AA216BE
:10291000B306C406D50660F561966CAD7DAD8EAD8F
:102920009FAD6197615070408040904061966CAF60
:102930007DAF8EAF9FAF6197A20CB31CC41CD51C9A
:10294000A214B304C404D50498F0A216B306C406B6
:10295000D50670F4615070408040904061966CAF35
:102960007DAF8EAF9FAF6197A20CB31CC41CD51C6A
:10297000A21AB30AC40AD50AC601B50129962CAD1C
:102980003DAD4EAD5FAD29970E94BC337B018C01FC
:10299000C601B50129962CAD3DAD4EAD5FAD299771
:1029A0000E94BC33C901DA015C016D01C601B501A9
:1029B0002D962CAD3DAD4EAD5FAD2D970E949D3354
:1029C0009B01AC018701FF24EE248DA59EA5AFA538
:1029D000B8A9A070B070E82AF92A0A2B1B2BE216BE
:1029E000F30604071507C0F40894A108B108C1084C
:1029F000D108E20CF31C041D151DE214F3040405B8
:102A0000150550F0E216F3060407150728F408949C
:102A1000A108B108C108D1086196ECACFDAC0EADBF
:102A20001FAD6197D7019927882796018501082B4B
:102A3000192B2A2B3B2B09AB1AAB2BAB3CAB62C23D
:102A40006E147F048006910608F451C220E0E2165D
:102A500020E0F20621E0020720E0120788F43FEFB1
:102A6000E316F1040105110531F028F048E050E0CB
:102A700060E070E017C040E050E060E070E012C03D
:102A800040E0E41640E0F40640E0040741E01407AB
:102A900028F048E150E060E070E004C040E150E020
:102AA00060E070E0D801C701042E04C0B695A79578
:102AB000979587950A94D2F785539F4FDC012C9107
:102AC00030E2A32EB12CC12CD12CD601C501841B20
:102AD000950BA60BB70B821B9109A109B1090097B1
:102AE000A105B10589F4E614F7040805190508F4F1
:102AF000F2C16DA47EA48FA498A862147304840408
:102B0000950408F0E8C1F3C16E968FAF6E97082E5A
:102B100004C0EE0CFF1C001F111F0A94D2F76A2D8F
:102B2000681BD201C101062E04C0B695A7959795E2
:102B300087950A94D2F75C016D01AE28BF28C02AA0
:102B4000D12AADA2BEA2CFA2D8A6720161016E9613
:102B50000FAC6E9704C0CC0CDD1CEE1CFF1C0A945D
:102B6000D2F7C9A2DAA2EBA2FCA264015301062E9D
:102B700004C0D694C794B794A7940A94D2F7D4010A
:102B8000C3016E960FAC6E9704C0880F991FAA1FE1
:102B9000BB1F0A94D2F7EDA4FEA40FA518A904C088
:102BA00016950795F794E7946A95D2F7370148018F
:102BB000682A792A8A2A9B2A6D8E7E8E8F8E98A209
:102BC000EDA0FEA00FA118A5380188249924980132
:102BD00087012070307065960CAF1DAF2EAF3FAFF0
:102BE0006597C601B501A40193010E94BC337B0126
:102BF0008C01C601B501A40193010E94BC33C90137
:102C0000DA011C012D01C201B10165962CAD3DAD6B
:102C10004EAD5FAD65970E949D339B01AC0187016E
:102C2000FF24EE24AD8CBE8CCF8CD8A0C601AA2781
:102C3000BB2757016801A82AB92ACA2ADB2AA2168B
:102C4000B306C406D50600F50894210831084108EA
:102C50005108EDA0FEA00FA118A5AE0CBF1CC01E10
:102C6000D11EAE14BF04C006D10670F0A216B30682
:102C7000C406D50648F408942108310841085108D3
:102C8000AE0CBF1CC01ED11EA21AB30AC40AD50ABC
:102C9000C601B501A40193010E94BC337B018C01E4
:102CA000C601B501A40193010E94BC33C901DA0138
:102CB0003C014D01C401B30165962CAD3DAD4EAD57
:102CC0005FAD65970E949D339B01AC018701FF2496
:102CD000EE248D8D9E8DAF8DB8A1A070B070570180
:102CE0006801A82AB92ACA2ADB2AA216B306C40692
:102CF000D50600F5089461087108810891086DA156
:102D00007EA18FA198A5A60EB71EC81ED91EA61615
:102D1000B706C806D90670F0A216B306C406D506D3
:102D200048F408946108710881089108A60EB71E3E
:102D3000C81ED91ED601C501821B930BA40BB50B6F
:102D4000898F9A8FAB8FBC8FD10199278827640117
:102D50005301A82AB92ACA2ADB2AA9AABAAACBAA45
:102D6000DCAA860175012FEF3FEF40E050E0E22240
:102D7000F32204231523A601662777276D964CAF0F
:102D80005DAF6EAF7FAF6D97A9A0BAA0CBA0DCA05E
:102D90006FEF7FEF80E090E0A622B722C822D92211
:102DA00089A19AA1ABA1BCA11D0144245524C8014D
:102DB000B701A60195010E949D3369966CAF7DAF66
:102DC0008EAF9FAF6997C801B701A20191010E9420
:102DD0009D333B014C016D966CAD7DAD8EAD9FADCD
:102DE0006D97A60195010E949D337B018C016D9624
:102DF0006CAD7DAD8EAD9FAD6D97A20191010E942E
:102E00009D335B016C01A8019701260D371D481DFC
:102E1000591D69966CAC7DAC8EAC9FAC6997C401B2
:102E2000AA27BB27280F391F4A1F5B1F2E153F05F6
:102E30004007510748F4E12CF12C61E0062F112DD9
:102E4000AE0CBF1CC01ED11ECA01AA27BB27BC01E5
:102E5000CD016A0D7B1D8C1D9D1D698C7A8C8B8C20
:102E60009C8C661677068806990640F166157705EC
:102E70008805990509F043C0D901992788276996E3
:102E80002CAD3DAD4EAD5FAD699740705070820F77
:102E9000931FA41FB51F2DA53EA54FA558A96E963B
:102EA0000FAC6E9704C0220F331F441F551F0A94A6
:102EB000D2F7281739074A075B0708F509A91AA9A5
:102EC0002BA93CA9015010402040304009AB1AAB5F
:102ED0002BAB3CAB14C066247724430121E030E0E7
:102EE00040E050E029AB3AAB4BAB5CAB0BC0662487
:102EF0007724430119AA1AAA1BAA1CAA03C0662494
:102F000077244301FE01719688E0DF011D928A95C6
:102F1000E9F7A9A8BAA8CBA8DCA8A98ABA8ACB8A5B
:102F2000DC8A6D8A7E8A8F8A988E29A93A894B8994
:102F30005C89662D7E898F89988DC25ADF4FE2E1C8
:102F40000C94FA33ABE5B0E0E8EAF7E10C94DE3339
:102F5000A8E04E010894811C911CF4016A2E119284
:102F60006A94E9F729833A834B835C836D837E837C
:102F70008F839887CE010996FC011192AA95E9F7F3
:102F8000A986BA86CB86DC86ED86FE860F87188BEF
:102F900029843A844B845C84AD84BE84CF84D888F1
:102FA00029813A814B815C8169962FAF69976A9636
:102FB0003FAF6A976B964FAF6B976C965FAF6C970E
:102FC0006C966CAC7DAC8EAC9FAC6C9769AA7AAAFF
:102FD0008BAA9CAA6D817E818F8198853B014C01D3
:102FE0006DAA7EAA8FAA98AEA114B104C104D1041F
:102FF00009F004C3621473048404950408F000C14A
:1030000000E0201600E0300601E0400600E0500637
:1030100088F41FEF211631044104510439F030F0D7
:1030200088E0E82EF12C012D112D18C0EE24FF248C
:10303000870114C040E0241640E0340640E0440616
:1030400041E0540630F0B8E1EB2EF12C012D112DAA
:1030500005C0A0E1EA2EF12C012D112DD201C101F4
:103060000E2C04C0B695A795979587950A94D2F72C
:1030700085539F4FDC012C9180E290E0A0E0B0E00E
:103080008E199F09A00BB10B5C016D01A21AB1084A
:10309000C108D108A9AEBAAECBAEDCAEA114B10462
:1030A000C104D10409F43FC069AD062E04C0220C4E
:1030B000331C441C551C0A94D2F7A4019301062E1C
:1030C00004C0220F331F441F551F0A94D2F780E219
:1030D00090E08A199B096C96CCACDDACEEACFFACF1
:1030E0006C9704C0F694E794D794C7948A95D2F766
:1030F00087017601E22AF32A042B152BEDAAFEAAFA
:103100000FAB18AF6C968CAD9DADAEADBFAD6C97EF
:1031100004C0880F991FAA1FBB1F6A95D2F789ABFD
:103120009AABABABBCAB320188249924B201A101AC
:103130006070707021964CAF5DAF6EAF7FAF21971E
:103140006DA97EA98FA998ADA40193010E94BC33FB
:103150007B018C016DA97EA98FA998ADA401930173
:103160000E94BC33CA01B90121962CAD3DAD4EADD4
:103170005FAD21970E949D339B01AC018701FF2425
:10318000EE24A9A8BAA8CBA8DCA8C601AA27BB2709
:1031900057016801A82AB92ACA2ADB2AA216B3064F
:1031A000C406D50690F4A20CB31CC41CD51CA214F2
:1031B000B304C404D50448F0A216B306C406D50669
:1031C00020F4A20CB31CC41CD51CA21AB30AC40A56
:1031D000D50AC601B501A40193010E94BC337B014D
:1031E0008C01C601B501A40193010E94BC33CA0140
:1031F000B90121962CAD3DAD4EAD5FAD2197BAC161
:10320000211431044104510471F461E070E080E064
:1032100090E020E030E040E050E00E94BC33C90183
:10322000DA011C012D0100E0201600E0300601E06B
:10323000400600E0500688F41FEF211631044104D7
:10324000510439F030F068E0E62EF12C012D112DFB
:1032500018C0EE24FF24870114C040E0241640E08B
:10326000340640E0440641E0540630F058E1E52ED3
:10327000F12C012D112D05C040E1E42EF12C012D82
:10328000112DD201C1010E2C04C0B695A7959795BA
:1032900087950A94D2F785539F4FDC012C9130E239
:1032A000A32EB12CC12CD12CD601C5018E199F099A
:1032B000A00BB10B7C018D01E21AF1080109110983
:1032C000E9AEFAAE0BAF1CAFE114F1040105110534
:1032D00039F464015301A218B308C408D508E2C048
:1032E000F9AC6896FFAE68970F2C04C0220C331C13
:1032F000441C551C0A94D2F78A2D8F19640153017E
:10330000082E04C0D694C794B794A7940A94D2F711
:10331000A401930104C0220F331F441F551FFA94C8
:10332000D2F76C966CAC7DAC8EAC9FAC6C9704C045
:1033300096948794779467948A95D2F78401730161
:10334000E22AF32A042B152BEDA6FEA60FA718AB35
:10335000320188249924B201A10160707070259611
:103360004CAF5DAF6EAF7FAF2597C601B501A4012D
:1033700093010E94BC337B018C01C601B501A401FD
:1033800093010E94BC33CA01B90125962CAD3DAD15
:103390004EAD5FAD25970E949D339B01AC01870127
:1033A000FF24EE24ADA4BEA4CFA4D8A8C601AA27AA
:1033B000BB275C016D01AE28BF28C02AD12AA21606
:1033C000B306C406D50690F4A20CB31CC41CD51CCD
:1033D000A214B304C404D50448F0A216B306C4066C
:1033E000D50620F4A20CB31CC41CD51CA21AB30A27
:1033F000C40AD50AC601B501A40193010E94BC33D9
:103400007B018C01C601B501A40193010E94BC336C
:10341000CA01B90125962CAD3DAD4EAD5FAD2597E6
:103420000E949D339B01AC018701FF24EE248DA5F2
:103430009EA5AFA5B8A9A070B07057016801A82AD1
:10344000B92ACA2ADB2AA216B306C406D50690F406
:10345000A20CB31CC41CD51CA214B304C404D50410
:1034600048F0A216B306C406D50620F4A20CB31C7D
:10347000C41CD51C6C96ECACFDAC0EAD1FAD6C97AE
:1034800068960FAC689704C0EE0CFF1C001F111F5C
:103490000A94D2F7E9AAFAAA0BAB1CABA21AB30A98
:1034A000C40AD50A320188249924B201A1016070AE
:1034B000707029964CAF5DAF6EAF7FAF2997C60194
:1034C000B501A40193010E94BC337B018C01C601AC
:1034D000B501A40193010E94BC33CA01B901299628
:1034E0002CAD3DAD4EAD5FAD29970E949D339B0144
:1034F000AC018701FF24EE24A9A8BAA8CBA8DCA8B8
:10350000C601AA27BB2757016801A82AB92ACA2AD7
:10351000DB2AA216B306C406D50690F4A20CB31C8F
:10352000C41CD51CA214B304C404D50448F0A216CC
:10353000B306C406D50620F4A20CB31CC41CD51CCB
:10354000A21AB30AC40AD50AC601B501A40193019F
:103550000E94BC337B018C01C601B501A40193011B
:103560000E94BC33CA01B90129962CAD3DAD4EADC8
:103570005FAD29970E949D339B01AC018701FF2419
:10358000EE2489A99AA9ABA9BCA9A070B070E82AB9
:10359000F92A0A2B1B2BE216F3060407150790F4F1
:1035A000E20CF31C041D151DE214F30404051505BB
:1035B00048F0E216F3060407150720F4E20CF31CAA
:1035C000041D151DE21AF30A040B150BD801C701DF
:1035D00009AC04C0B695A795979587950A94D2F73C
:1035E000898B9A8BAB8BBC8B1D8A1E8A1F8A188E87
:1035F000282F3A894B895C896D890CC36A147B0436
:103600008C049D0408F409C300E0A01600E0B00695
:1036100001E0C00600E0D00688F41FEFA116B10457
:10362000C104D10439F030F028E0E22EF12C012D54
:10363000112D18C0EE24FF24870114C040E0A41609
:1036400040E0B40640E0C40641E0D40630F098E122
:10365000E92EF12C012D112D05C080E1E82EF12C71
:10366000012D112DD601C5010E2C04C0B695A795CC
:10367000979587950A94D2F785539F4FDC012C913B
:1036800080E290E0A0E0B0E08E199F09A00BB10BA2
:10369000821B9109A109B1090097A105B10509F0A3
:1036A0004FC0A614B704C804D90458F06C96ECAC0B
:1036B000FDAC0EAD1FAD6C97E214F30404051505C7
:1036C00068F16C96ECACFDAC0EAD1FAD6C97E218DA
:1036D000F30804091509A40193012A193B094C09AF
:1036E0005D09AA24BB2465016C966CAD7DAD8EADE1
:1036F0009FAD6C976E157F058007910728F4B1E0A8
:10370000AB2EB12CC12CD12CDA01C9018A199B092D
:10371000AC09BD098DAB9EABAFABB8AFE98AFA8AF5
:103720000B8B1C8B6DA87EA88FA898AC6D8A7E8AA7
:103730008F8A988E2E2D3A894B895C896DA96AC231
:1037400067968FAF6797A6019501082E04C0220FD8
:10375000331F441F551F0A94D2F7A0E2AA2EA81ABD
:103760006696AFAE6697D201C10104C0B695A79523
:1037700097958795AA94D2F76C017D01C22AD32A26
:10378000E42AF52AC9A6DAA6EBA6FCA682017101F5
:1037900067960FAC679704C0EE0CFF1C001F111F4B
:1037A0000A94D2F7EDA2FEA20FA318A76401530159
:1037B00066960FAC669704C0D694C794B794A79446
:1037C0000A94D2F7A401930167960FAC679704C0DF
:1037D000220F331F441F551F0A94D2F76C968CADED
:1037E0009DADAEADBFAD6C9766960FAC669704C04D
:1037F000B695A795979587950A94D2F73C014D0108
:10380000622A732A842A952A69A27AA28BA29CA290
:103810006C96ECACFDAC0EAD1FAD6C9767960FAC23
:10382000679704C0EE0CFF1C001F111F0A94D2F70B
:10383000ED8EFE8E0F8F18A349A55AA56BA57CA50A
:103840003B0188249924607070702D964CAF5DAF59
:103850006EAF7FAF2D97C601B501A40193010E9401
:10386000BC337B018C01C601B501A40193010E9408
:10387000BC33C901DA011C012D01C201B1012D9631
:103880002CAD3DAD4EAD5FAD2D970E949D339B019C
:10389000AC018701FF24EE24A9A0BAA0CBA0DCA034
:1038A000C601AA27BB2757016801A82AB92ACA2A34
:1038B000DB2AA216B306C406D50600F50894210833
:1038C000310841085108E9A4FAA40BA51CA5AE0CC7
:1038D000BF1CC01ED11EAE14BF04C006D10670F0BE
:1038E000A216B306C406D50648F408942108310888
:1038F00041085108AE0CBF1CC01ED11EA21AB30A4B
:10390000C40AD50AC601B501A40193010E94BC33C3
:103910007B018C01C601B501A40193010E94BC3357
:10392000C901DA013C014D01C401B3012D962CAD52
:103930003DAD4EAD5FAD2D970E949D339B01AC0117
:103940008701FF24EE2489A19AA1ABA1BCA1A0709C
:10395000B07057016801A82AB92ACA2ADB2AA21620
:10396000B306C406D50600F50894610871088108FD
:10397000910869A57AA58BA59CA5A60EB71EC81EA1
:10398000D91EA616B706C806D90670F0A216B30649
:10399000C406D50648F408946108710881089108A6
:1039A000A60EB71EC81ED91ED601C501821B930BD9
:1039B000A40BB50B898F9A8FAB8FBC8FD101992740
:1039C000882784017301E82AF92A0A2B1B2B4FEF61
:1039D000A42E4FEFB42EC12CD12CAE20BF20C0227C
:1039E000D1227801002711276DA07EA08FA098A476
:1039F0004FEF5FEF60E070E064227522862297222D
:103A00008DA19EA1AFA1B8A5BD0188279927659674
:103A10006CAF7DAF8EAF9FAF6597C601B501A401B6
:103A200093010E949D3361966CAF7DAF8EAF9FAFC7
:103A30006197C601B50165962CAD3DAD4EAD5FAD4C
:103A400065970E949D331B012C01C801B701A40199
:103A500093010E949D335B016C01C801B70165961B
:103A60002CAD3DAD4EAD5FAD65970E949D337B01A2
:103A70008C01A6019501220D331D441D551D619633
:103A80006CAC7DAC8EAC9FAC6197C401AA27BB2700
:103A9000280F391F4A1F5B1F2A153B054C055D0582
:103AA00048F4812C912CE1E0AE2EB12CE80CF91CED
:103AB0000A1D1B1DCA01AA27BB2757016801A80EB2
:103AC000B91ECA1EDB1EA9013327222761968CADC1
:103AD0009DADAEADBFAD6197A070B070280F391F1E
:103AE0004A1F5B1FE98CFA8C0B8D1C8DEA14FB04BA
:103AF0000C051D0570F0AE14BF04C006D10669F5B3
:103B00006D8D7E8D8F8D98A1621773078407950741
:103B100020F5DA01C9016DA07EA08FA098A48619B6
:103B20009709A809B909E9A4FAA40BA51CA5AE1820
:103B3000BF08C00AD10AEE24FF24870128173907DD
:103B40004A075B0728F421E0E22EF12C012D112D0C
:103B5000AE18BF08C00AD10A02C0DA01C9016D8CD3
:103B60007E8C8F8C98A0681A790A8A0A9B0A498DE4
:103B70005A8D6B8D7C8D4A195B096C097D095A0140
:103B80006B012224332421016D8D7E8D8F8D98A1B0
:103B9000661577058805990528F481E0282E312CD3
:103BA000412C512C86017501E218F308040915090E
:103BB000A801970166960FAC669704C0220F331FC9
:103BC000441F551F0A94D2F7D401C30167960FAC66
:103BD000679704C0B695A795979587950A94D2F7ED
:103BE000282B392B4A2B5B2B298B3A8B4B8B5C8BED
:103BF00067960FAC679704C016950795F794E794FE
:103C00000A94D2F7ED8AFE8A0F8B188F3A894B8976
:103C10005C896E2D7E898F89988DC55ADF4FE2E1D0
:103C20000C94FA332F923F924F925F926F927F9251
:103C30008F929F92AF92BF92DF92EF92FF920F937B
:103C40001F93DF93CF93CDB7DEB765970FB6F89488
:103C5000DEBF0FBECDBF85E042E0842E912C8C0EDE
:103C60009D1EF401982F11929A95E9F737E0A32E43
:103C7000B12CAC0EBD1EF501982F11929A95E9F763
:103C80002CE0422E512C4C0E5D1EF20111928A95B1
:103C9000E9F70E9493310E94882D0E94971F0E948D
:103CA000C9200E942A200E94142E91E1292E312C35
:103CB0002C0E3D1ED101E6ECF0E085E001900D9266
:103CC0008150E1F7FF24F39400E010E080E3682ED8
:103CD00085E7782EC80142960E94DA2DF401E00FA4
:103CE000F11F8083F3013197F1F7F101E00FF11F2C
:103CF00090818913FF240F5F1F4F0430110551F786
:103D0000FF2011F182E190E069890E94FC2D00E31F
:103D100015E7C8010197F1F783E190E06A890E94F5
:103D2000FC2DC8010197F1F784E190E06B890E94B6
:103D3000FC2DC8010197F1F785E190E06C890E94A4
:103D4000FC2DC8010197F1F73E010894611C711C1C
:103D500080E00E947F1F82E190E00E94DA2D8A833A
:103D600083E190E00E94DA2D8B8384E190E00E9451
:103D7000DA2D8C8385E190E00E94DA2D8D8380E638
:103D800090E00E941B2282E061E00E946B2088E6A6
:103D900090E00E941B22C401B50145E050E00E9462
:103DA0001C340097A1F1DD247501ED0CF11C870195
:103DB000C7010E940B2DF80180818823C9F3DD2003
:103DC00009F455C08AE20E94A21FD394F3E0FD15C6
:103DD00058F7C401B50145E050E00E941C3400973B
:103DE000B1F00E942A2089E790E00E941B2282E025
:103DF00061E00E946B2088E890E00E941B22C401D1
:103E0000B50145E050E00E941C34009761F68AE558
:103E10000E947F1F0E942A2084E990E00E941B22BA
:103E200082E061E00E946B2084EA90E00E941B2205
:103E3000C3010E940B2D89818823D1F38133F9F0CE
:103E4000823309F11A821F821C860E942A201B825B
:103E500018861D860E942A201C8219861E860E94B2
:103E60002A201D821A861F860E942A2071CF0E9456
:103E70002A208AE20E94A21FDD24D39495CF80E0FD
:103E80000E947F1FDFCF0E942A2085EB90E00E94D6
:103E90001B22DD247201ED0CF11C8701C7010E9479
:103EA0000B2DF80180818823C9F3DD2001F18AE21E
:103EB0000E94A21FD394F3E0FD1560F782E190E029
:103EC0006C850E94FC2D83E190E06D850E94FC2DA5
:103ED00084E190E06E850E94FC2D85E190E06F8585
:103EE0000E94FC2DC101B2010E941534ABCF0E948B
:103EF0002A208AE20E94A21FDD24D394CBCF90E037
:103F0000A0E0B0E0BC01CD0120ED37E040E050E0A2
:103F10000E949D3324EB30E040E050E00E94BC332F
:103F2000DA01C901895A9D4F0E94BC2F08950E9451
:103F3000632F8FE19EE40E94C42F87E592E00E94E8
:103F4000BC2F0895EF92FF921F93182F81E060E03D
:103F500041E00E943B3281E061E040E00E943B3260
:103F6000612F62956F7081E00E944E3381E062E0C4
:103F700041E00E943B3280EDE82E87E0F82EC70139
:103F80000197F1F781E062E040E00E943B32C70117
:103F90000197F1F781E0612F0E944E3381E062E0EA
:103FA00041E00E943B32C7010197F1F781E062E0F6
:103FB00040E00E943B32C7010197F1F7C70101972A
:103FC000F1F781E01F91FF90EF900895EF92FF923B
:103FD0001F93182F81E060E040E00E943B3281E0B7
:103FE00061E040E00E943B32612F62956F7081E09A
:103FF0000E944E3381E062E041E00E943B3290ED4E
:10400000E92E97E0F92EC7010197F1F781E062E010
:1040100040E00E943B32C7010197F1F781E0612F38
:104020000E944E3381E062E041E00E943B32C701D2
:104030000197F1F781E062E040E00E943B32C70166
:104040000197F1F7C7010197F1F781E01F91FF9008
:10405000EF9008950F931F9381E060E040E00E948D
:104060003B3281E061E040E00E943B3281E060E071
:104070000E944E3381E062E041E00E943B3200ED5D
:1040800017E0C8010197F1F781E062E040E00E948B
:104090003B32C8010197F1F781E061E00E944E33A5
:1040A00081E062E041E00E943B32C8010197F1F7F4
:1040B00081E062E040E00E943B32C8010197F1F7E5
:1040C000C8010197F1F780E29EE40197F1F781E0E2
:1040D0001F910F910895FF920F931F93982F815076
:1040E000823008F443C020E8F22E81E060E040E036
:1040F0000E943B3281E061E040E00E943B326F2D44
:1041000062956F7081E00E944E3381E062E041E091
:104110000E943B3200ED17E0C8010197F1F781E002
:1041200062E040E00E943B32C8010197F1F781E074
:104130006F2D0E944E3381E062E041E00E943B32ED
:10414000C8010197F1F781E062E040E00E943B3254
:10415000C8010197F1F7C8010197F1F7C80101976C
:10416000F1F781E01F910F91FF900895613108F000
:10417000BACF662309F4B7CF913039F0923009F005
:10418000B4CF3FEBF32EF60EB0CF4FE7F42EF60E82
:10419000ACCF0F931F9320E030E048EC50E0CA0111
:1041A0000197F1F72F5F3F4F81E0243F3807B9F7C0
:1041B00081E064E041E00E94D23181E065E041E0CD
:1041C0000E94D23181E066E041E00E94D23181E07C
:1041D00067E041E00E94D23181E060E041E00E946E
:1041E000D23181E061E041E00E94D23181E062E0C1
:1041F00041E00E94D23181E060E040E00E943B3229
:1042000081E061E040E00E943B3281E060E00E949A
:104210004E3381E062E041E00E943B3200ED17E066
:10422000C8010197F1F781E062E040E00E943B3273
:10423000C8010197F1F781E062E00E944E3381E00E
:1042400062E041E00E943B32C8010197F1F781E052
:1042500062E040E00E943B32C8010197F1F7C801DB
:104260000197F1F780E69AEE0197F1F781E060E0BF
:1042700040E00E943B3281E061E040E00E943B323E
:1042800081E062E00E944E3381E062E041E00E9402
:104290003B32C8010197F1F781E062E040E00E9403
:1042A0003B32C8010197F1F781E068E20E944E338A
:1042B00081E062E041E00E943B32C8010197F1F7E2
:1042C00081E062E040E00E943B32C8010197F1F7D3
:1042D000C8010197F1F7C8010197F1F781E060E0AB
:1042E00040E00E943B3281E061E040E00E943B32CE
:1042F00081E060E00E944E3381E062E041E00E9494
:104300003B32C8010197F1F781E062E040E00E9492
:104310003B32C8010197F1F781E06CE00E944E3317
:1043200081E062E041E00E943B32C8010197F1F771
:1043300081E062E040E00E943B32C8010197F1F762
:10434000C8010197F1F7C8010197F1F781E060E03A
:1043500040E00E943B3281E061E040E00E943B325D
:1043600081E060E00E944E3381E062E041E00E9423
:104370003B32C8010197F1F781E062E040E00E9422
:104380003B32C8010197F1F781E061E00E944E33B2
:1043900081E062E041E00E943B32C8010197F1F701
:1043A00081E062E040E00E943B32C8010197F1F7F2
:1043B000C8010197F1F780E29EE40197F1F781E0EF
:1043C00060E040E00E943B3281E061E040E00E941A
:1043D0003B3281E060E00E944E3381E062E041E0E8
:1043E0000E943B32C8010197F1F781E062E040E0B2
:1043F0000E943B32C8010197F1F781E066E00E941C
:104400004E3381E062E041E00E943B32C8010197F7
:10441000F1F781E062E040E00E943B32C801019781
:10442000F1F7C8010197F1F7C8010197F1F781E0B1
:104430001F910F910895EF92FF920F931F93CF93C7
:10444000DF937C01FC011081112309F442C000E0DC
:10445000C0EDD7E081E060E041E00E943B3281E0C6
:1044600061E040E00E943B32612F62956F7081E015
:104470000E944E3381E062E041E00E943B32CE0177
:104480000197F1F781E062E040E00E943B32CE010B
:104490000197F1F781E0612F0E944E3381E062E0E5
:1044A00041E00E943B32CE010197F1F781E062E0EA
:1044B00040E00E943B32CE010197F1F7CE01019717
:1044C000F1F70F5FF701E00FF11D1081112309F0E3
:1044D000C1CF81E0DF91CF911F910F91FF90EF90BD
:1044E00008952F923F924F925F926F927F928F9298
:1044F0009F92AF92BF92CF92DF92EF92FF920F9373
:104500001F93DF93CF9300D000D0CDB7DEB7922EAC
:10451000832E742E552E462E372E282E692E822F4E
:10452000832B842B852B862B872B8229892B09F0C3
:10453000EDC081E060E041E00E943B3281E061E05B
:1045400040E00E943B3281E063E00E944E3381E014
:1045500062E041E00E943B3200ED17E0C8010197A4
:10456000F1F781E062E040E00E943B32C801019730
:10457000F1F781E060E30E944E3381E062E041E0C8
:104580000E943B32C8010197F1F781E062E040E010
:104590000E943B32C8010197F1F7C8010197F1F77A
:1045A00081E060E041E00E943B3281E061E040E078
:1045B0000E943B3281E063E00E944E3381E062E082
:1045C00041E00E943B32C8010197F1F781E062E0CF
:1045D00040E00E943B32C8010197F1F781E060E3BF
:1045E0000E944E3381E062E041E00E943B32C8010C
:1045F0000197F1F781E062E040E00E943B32C801A0
:104600000197F1F7C8010197F1F781E060E041E01F
:104610000E943B3281E061E040E00E943B3281E059
:1046200063E00E944E3381E062E041E00E943B3251
:10463000C8010197F1F781E062E040E00E943B325F
:10464000C8010197F1F781E060E30E944E3381E0F9
:1046500062E041E00E943B32C8010197F1F781E03E
:1046600062E040E00E943B32C8010197F1F7C801C7
:104670000197F1F781E060E041E00E943B3281E088
:1046800061E040E00E943B3281E063E00E944E33F3
:1046900081E062E041E00E943B32C8010197F1F7FE
:1046A00081E062E040E00E943B32C8010197F1F7EF
:1046B00081E060E30E944E3381E062E041E00E94CD
:1046C0003B32C8010197F1F781E062E040E00E94CF
:1046D0003B32C8010197F1F7C8010197F1F70F903C
:1046E0000F900F900F90CF91DF911F910F91FF903E
:1046F000EF90DF90CF90BF90AF909F908F907F9082
:104700006F905F904F903F902F90089597FD6BC1F1
:1047100019821A821B821C82292D382D472D552D76
:10472000642D732D822D962DEAE0AE2EBB24CC2471
:10473000DD24EE24FF2400E010E00E94F00829832D
:10474000292D382D472D552D642D732D822D962D15
:104750000E94C800922E832E742E652E562E472E50
:10476000382E292E822F8829872986298529842970
:104770008329822909F461C0292D382D472D562D12
:10478000652D742D832D922D0E94F0082A83292DEA
:10479000382D472D562D652D742D832D922D0E9479
:1047A000C800922E832E742E652E562E472E382E3C
:1047B000292E822F882987298629852984298329DA
:1047C0008229D9F1292D382D472D562D652D742D8F
:1047D000832D922D0E94F0082B83292D382D472DF3
:1047E000562D652D742D832D922D0E94C800922E7A
:1047F000832E742E652E562E472E382E292E822F6C
:104800008829872986298529842983298229A9F04D
:10481000292D382D472D562D652D742D832D922D44
:104820000E94F0082C83292D382D472D562D652DFB
:10483000742D832D922D0E94C800FC8080E3F80E19
:1048400081E060E041E00E943B3281E061E040E0D5
:104850000E943B326F2D62956F7081E00E944E3353
:1048600081E062E041E00E943B3200ED17E0C801C8
:104870000197F1F781E062E040E00E943B32C8011D
:104880000197F1F781E06F2D0E944E3381E062E0E5
:1048900041E00E943B32C8010197F1F781E062E0FC
:1048A00040E00E943B32C8010197F1F7C80101972F
:1048B000F1F7FB8080E3F80E81E060E041E00E94C8
:1048C0003B3281E061E040E00E943B326F2D629517
:1048D0006F7081E00E944E3381E062E041E00E940F
:1048E0003B32C8010197F1F781E062E040E00E94AD
:1048F0003B32C8010197F1F781E06F2D0E944E33E2
:1049000081E062E041E00E943B32C8010197F1F78B
:1049100081E062E040E00E943B32C8010197F1F77C
:10492000C8010197F1F7FA8080E3F80E81E060E0BA
:1049300041E00E943B3281E061E040E00E943B3276
:104940006F2D62956F7081E00E944E3381E062E0CE
:1049500041E00E943B32C8010197F1F781E062E03B
:1049600040E00E943B32C8010197F1F781E06F2DD2
:104970000E944E3381E062E041E00E943B32C80178
:104980000197F1F781E062E040E00E943B32C8010C
:104990000197F1F7C8010197F1F7F98080E3F80E6C
:1049A00081E060E041E00E943B3281E061E040E074
:1049B0000E943B326F2D62956F7081E00E944E33F2
:1049C00081E062E041E00E943B32C8010197F1F7CB
:1049D00081E062E040E00E943B32C8010197F1F7BC
:1049E00081E06F2D67CE219541E0121608F06CC072
:1049F000382D319591E0131608F064C0F32EF41AA7
:104A000041E03F1508F05CC0942B472D419561E0D3
:104A1000141608F053C0042F091B91E0401708F04A
:104A20004BC0692B552D519591E0151608F042C0E9
:104A3000152F161B61E05117D8F5962B642D619543
:104A4000E1E0161698F5B62FB91B91E06B1760F5EB
:104A5000E92B732D719591E0171620F5A72FAE1B4A
:104A6000E1E07A17E8F49E2B822D8195E1E018169B
:104A7000A8F4F82FF91B91E08F1770F4E92B6194DB
:104A8000922E8F2C702E512E4B2E3A2E2F2E6E1AC8
:104A90008DE20E94A21F3CCE90E0F0CFE0E0E9CF93
:104AA000E0E0E1CF90E0DACF90E0D2CFE0E0CBCF12
:104AB00060E0C3CF90E0BCCF90E0B3CF60E0ABCF7D
:104AC00040E0A2CF90E09ACF40E092CF2F923F9269
:104AD0004F925F926F927F928F929F92AF92BF920E
:104AE000CF92DF92EF92FF920F931F93DF93CF93BA
:104AF00000D00F92CDB7DEB7922E832E742E552E96
:104B0000462E372E282E692E822F832B842B852B21
:104B1000862B872B8229892B09F0B7C081E060E0C2
:104B200041E00E943B3281E061E040E00E943B3284
:104B300081E063E00E944E3381E062E041E00E9448
:104B40003B3200ED17E0C8010197F1F781E062E028
:104B500040E00E943B32C8010197F1F781E060E339
:104B60000E944E3381E062E041E00E943B32C80186
:104B70000197F1F781E062E040E00E943B32C8011A
:104B80000197F1F7C8010197F1F781E060E041E09A
:104B90000E943B3281E061E040E00E943B3281E0D4
:104BA00063E00E944E3381E062E041E00E943B32CC
:104BB000C8010197F1F781E062E040E00E943B32DA
:104BC000C8010197F1F781E060E30E944E3381E074
:104BD00062E041E00E943B32C8010197F1F781E0B9
:104BE00062E040E00E943B32C8010197F1F7C80142
:104BF0000197F1F781E060E041E00E943B3281E003
:104C000061E040E00E943B3281E063E00E944E336D
:104C100081E062E041E00E943B32C8010197F1F778
:104C200081E062E040E00E943B32C8010197F1F769
:104C300081E060E30E944E3381E062E041E00E9447
:104C40003B32C8010197F1F781E062E040E00E9449
:104C50003B32C8010197F1F7C8010197F1F70F90B6
:104C60000F900F90CF91DF911F910F91FF90EF90D8
:104C7000DF90CF90BF90AF909F908F907F906F907C
:104C80005F904F903F902F90089597FD0DC1FE01CA
:104C9000319683E0DF011D928A95E9F7292D382DA1
:104CA000472D552D642D732D822D962DFAE0AF2EB4
:104CB000BB24CC24DD24EE24FF2400E010E00E947D
:104CC000F0082983292D382D472D552D642D732D5E
:104CD000822D962D0E94C800922E832E742E652E52
:104CE000562E472E382E292E822F8829872986294D
:104CF0008529842983298229D9F1292D382D472D09
:104D0000562D652D742D832D922D0E94F0082A8337
:104D1000292D382D472D562D652D742D832D922D3F
:104D20000E94C800922E832E742E652E562E472E7A
:104D3000382E292E822F882987298629852984299A
:104D400083298229A9F0292D382D472D562D652D2F
:104D5000742D832D922D0E94F0082B83292D382D40
:104D6000472D562D652D742D832D922D0E94C80040
:104D7000FB80B0E3FB0E81E060E041E00E943B324B
:104D800081E061E040E00E943B326F2D62956F70E0
:104D900081E00E944E3381E062E041E00E943B32BC
:104DA00000ED17E0C8010197F1F781E062E040E013
:104DB0000E943B32C8010197F1F781E06F2D0E94FC
:104DC0004E3381E062E041E00E943B32C80101972E
:104DD000F1F781E062E040E00E943B32C8010197B8
:104DE000F1F7C8010197F1F7FA8080E3F80E81E04E
:104DF00060E041E00E943B3281E061E040E00E94DF
:104E00003B326F2D62956F7081E00E944E3381E0DE
:104E100062E041E00E943B32C8010197F1F781E076
:104E200062E040E00E943B32C8010197F1F781E067
:104E30006F2D0E944E3381E062E041E00E943B32E0
:104E4000C8010197F1F781E062E040E00E943B3247
:104E5000C8010197F1F7C8010197F1F7F980A0E3C4
:104E6000FA0E81E060E041E00E943B3281E061E0C7
:104E700040E00E943B326F2D62956F7081E00E948E
:104E80004E3381E062E041E00E943B32C80101976D
:104E9000F1F781E062E040E00E943B32C8010197F7
:104EA000F1F781E06F2DC6CE219541E0121608F092
:104EB0006CC0382D319591E0131608F064C0F32EC4
:104EC000F41A41E03F1508F05CC0942B472D419542
:104ED00061E0141608F053C0042F091B91E040173D
:104EE00008F04BC0692B552D519591E0151608F02F
:104EF00042C0152F161B61E05117D8F5962B642D73
:104F00006195E1E0161698F5B62FB91B91E06B1785
:104F100060F5E92B732D719591E0171620F5A72FF9
:104F2000AE1BE1E07A17E8F49E2B822D8195E1E03B
:104F30001816A8F4F82FF91B91E08F1770F4E92BDD
:104F40006194922E8F2C702E512E4B2E3A2E2F2E96
:104F50006E1A8DE20E94A21F9ACE90E0F0CFE0E0A0
:104F6000E9CFE0E0E1CF90E0DACF90E0D2CFE0E02F
:104F7000CBCF60E0C3CF90E0BCCF90E0B3CF60E098
:104F8000ABCF40E0A2CF90E09ACF40E092CFCF925B
:104F9000DF92EF92FF920F931F93CF93DF93D82E60
:104FA000C62E81E060E040E00E943B3281E061E09B
:104FB00040E00E943B3281E064E00E944E3381E099
:104FC00062E041E00E943B3200ED17E0C80101972A
:104FD000F1F781E062E040E00E943B32C8010197B6
:104FE000F1F781E060E40E944E3381E062E041E04D
:104FF0000E943B32C8010197F1F781E062E040E096
:105000000E943B32C8010197F1F7C8010197F1F7FF
:10501000CBECD1E000EDE02E07E0F02E199181E01D
:1050200060E041E00E943B3281E061E040E00E94AC
:105030003B32612F62956F7081E00E944E3381E0B8
:1050400062E041E00E943B32C7010197F1F781E045
:1050500062E040E00E943B32C7010197F1F781E036
:10506000612F0E944E3381E062E041E00E943B32BA
:10507000C7010197F1F781E062E040E00E943B3216
:10508000C7010197F1F7C7010197F1F781E0CB3E26
:10509000D80709F0C3CF8D2D8150823008F4EFC1BD
:1050A000A0E8FA2E18E081E060E040E00E943B3288
:1050B00081E061E040E00E943B3281E0612F0E948C
:1050C0004E3381E062E041E00E943B3200ED17E0A8
:1050D000C8010197F1F781E062E040E00E943B32B5
:1050E000C8010197F1F781E06F2D0E944E3381E0F6
:1050F00062E041E00E943B32C8010197F1F781E094
:1051000062E040E00E943B32C8010197F1F7C8011C
:105110000197F1F7C8010197F1F781E060E041E004
:105120000E943B3281E061E040E00E943B3281E03E
:1051300060E00E944E3381E062E041E00E943B3239
:10514000C8010197F1F781E062E040E00E943B3244
:10515000C8010197F1F781E060E00E944E3381E0E1
:1051600062E041E00E943B32C8010197F1F781E023
:1051700062E040E00E943B32C8010197F1F7C801AC
:105180000197F1F781E060E041E00E943B3281E06D
:1051900061E040E00E943B3281E060E00E944E33DB
:1051A00081E062E041E00E943B32C8010197F1F7E3
:1051B00081E062E040E00E943B32C8010197F1F7D4
:1051C00081E061E00E944E3381E062E041E00E94B4
:1051D0003B32C8010197F1F781E062E040E00E94B4
:1051E0003B32C8010197F1F7C8010197F1F781E05F
:1051F00060E041E00E943B3281E061E040E00E94DB
:105200003B3281E060E00E944E3381E062E041E0A9
:105210000E943B32C8010197F1F781E062E040E073
:105220000E943B32C8010197F1F781E062E00E94E1
:105230004E3381E062E041E00E943B32C8010197B9
:10524000F1F781E062E040E00E943B32C801019743
:10525000F1F7C8010197F1F781E060E041E00E94B9
:105260003B3281E061E040E00E943B3281E060E05F
:105270000E944E3381E062E041E00E943B32C8016F
:105280000197F1F781E062E040E00E943B32C80103
:105290000197F1F781E063E00E944E3381E062E024
:1052A00041E00E943B32C8010197F1F781E062E0E2
:1052B00040E00E943B32C8010197F1F7C801019715
:1052C000F1F781E060E041E00E943B3281E061E083
:1052D00040E00E943B3281E060E00E944E3381E07A
:1052E00062E041E00E943B32C8010197F1F781E0A2
:1052F00062E040E00E943B32C8010197F1F781E093
:1053000064E00E944E3381E062E041E00E943B3263
:10531000C8010197F1F781E062E040E00E943B3272
:10532000C8010197F1F7C8010197F1F781E060E04A
:1053300041E00E943B3281E061E040E00E943B326C
:1053400081E060E00E944E3381E062E041E00E9433
:105350003B32C8010197F1F781E062E040E00E9432
:105360003B32C8010197F1F781E065E00E944E33BE
:1053700081E062E041E00E943B32C8010197F1F711
:1053800081E062E040E00E943B32C8010197F1F702
:10539000C8010197F1F781E060E041E00E943B32F3
:1053A00081E061E040E00E943B3281E060E00E94E9
:1053B0004E3381E062E041E00E943B32C801019738
:1053C000F1F781E062E040E00E943B32C8010197C2
:1053D000F1F781E066E00E944E3381E062E041E057
:1053E0000E943B32C8010197F1F781E062E040E0A2
:1053F0000E943B32C8010197F1F7C8010197F1F70C
:1054000081E060E041E00E943B3281E061E040E009
:105410000E943B3281E060E00E944E3381E062E016
:1054200041E00E943B32C8010197F1F781E062E060
:1054300040E00E943B32C8010197F1F781E067E04C
:105440000E944E3381E062E041E00E943B32C8019D
:105450000197F1F781E062E040E00E943B32C80131
:105460000197F1F7C8010197F1F781E0DF91CF9142
:105470001F910F91FF90EF90DF90CF90089580E102
:105480008C1508F40DCECC2009F40ACE81E0D81694
:1054900059F082E0D81619F0FF2410E004CEBFEBDB
:1054A000FB2EFC0C1CE0FFCD1FE7F12EFC0C18E0DE
:1054B000FACD2F923F924F925F926F927F928F928E
:1054C0009F92AF92BF92CF92DF92EF92FF920F9393
:1054D0001F93DF93CF93CDB7DEB72A970FB6F8941B
:1054E000DEBF0FBECDBF2B833C834D835E836F83B6
:1054F000788789879A87822F832B842B852B862B0D
:10550000872B4985842B892B09F488C197FDECC131
:1055100099249394882455242224332444246624F3
:105520007724292D382D452D522D632D742DC3013F
:1055300001E00E944900122FF32EE42ED52EC62E34
:10554000B72EA82E792E02E00E944900822E810EED
:10555000E1E0811608F0E0E03F0D21E03F1508F0A2
:1055600020E06E2E630EE1E0631608F0E0E02E2BE3
:105570004E0D31E04E1508F030E0522E540E21E071
:10558000541608F020E0322B5D0D21E05D1508F087
:1055900020E0432E450E31E0451608F030E0232B85
:1055A0006C0D31E06C1508F030E0322E360E21E043
:1055B000361608F020E0322B7B0D21E07B1508F039
:1055C00020E0232E270E31E0271608F030E0232BB1
:1055D0008A0D31E08A1508F030E0280F298321E098
:1055E000A981A81708F020E0932E922A970D990E12
:1055F0002B813C814D815E816F81788589859A857B
:10560000AAE0AA2EBB24CC24DD24EE24FF2400E053
:1056100010E00E94F008122F180DF1E0121708F0A8
:10562000F0E0232F260DE1E0231708F0E0E00F2F34
:10563000020F31E0021708F030E0E32B242F250D94
:1056400031E0241708F030E0FE2FF20F41E0F217AE
:1056500008F040E0342B252F240D41E0251708F0F9
:1056600040E0E32FE20F31E0E21708F030E0432B97
:10567000262F230D31E0261708F030E0642F620F4B
:1056800041E0621708F040E0342B272F220D41E063
:10569000271708F040E0532F520F31E0521708F05F
:1056A00030E0432B2981280F31E0281708F030E043
:1056B000420F81E0421708F080E0382B990EB32F9B
:1056C000B90DBA8348015F2E2E2E362E452E642E3C
:1056D0007B2E2B813C814D815E816F817885898510
:1056E0009A85FAE0AF2EBB24CC24DD24EE24FF24DF
:1056F00000E010E00E94C8002B833C834D835E8352
:105700006F83788789879A87822F832B842B852BB9
:10571000862B872BE9858E2B892B09F002CFF1E0B0
:105720009F1609F4CCC0292D382D452D522D632DFF
:10573000742DC301EAE0AE2EBB24CC24DD24EE247C
:10574000FF2400E010E00E94A217122F105D81E0FC
:1057500060E041E00E943B3281E061E040E00E9475
:105760003B32612F62956F7081E00E944E3381E081
:1057700062E041E00E943B3280ED97E00197F1F753
:1057800081E062E040E00E943B3280ED97E00197CB
:10579000F1F781E0612F0E944E3381E062E041E049
:1057A0000E943B3280ED97E00197F1F781E062E0E3
:1057B00040E00E943B3280ED97E00197F1F780EDE9
:1057C00097E00197F1F7292D382D452D522D632DA6
:1057D000742DC30110E00E942D11922E832E542EA1
:1057E000252E362E472E3C0141E0941609F09BCF22
:1057F000882009F098CF552009F095CF222009F094
:1058000092CF332009F08FCF442009F08CCF66204F
:1058100009F089CF992309F086CF37C081E060E095
:1058200041E00E943B3281E061E040E00E943B3277
:1058300081E063E00E944E3381E062E041E00E943B
:105840003B3200ED17E0C8010197F1F781E062E01B
:1058500040E00E943B32C8010197F1F781E060E32C
:105860000E944E3381E062E041E00E943B32C80179
:105870000197F1F781E062E040E00E943B32C8010D
:105880000197F1F7C8010197F1F781E02A960FB669
:10589000F894DEBF0FBECDBFCF91DF911F910F9166
:1058A000FF90EF90DF90CF90BF90AF909F908F9040
:1058B0007F906F905F904F903F902F900895882039
:1058C00009F031CF552009F02ECF222009F02BCF3F
:1058D000332009F028CF442009F025CF662009F0B5
:1058E00022CF772091F21FCF2B81219541E0121614
:1058F00008F040E03C81319591E0131608F090E00B
:10590000F32EF41A41E03F1508F040E0942B4D814E
:10591000419561E0141608F060E0042F091B91E046
:10592000401708F090E0692B5E81519591E01516C3
:1059300008F090E0152F161B61E0511708F060E0A9
:10594000962B6F816195E1E0161608F0E0E0E62EF7
:10595000E91A91E06E1508F090E0E92B78857195D1
:1059600091E0171608F090E0D72EDE1AE1E07D15E1
:1059700008F0E0E09E2B89858195E1E0181608F09B
:10598000E0E0F82FF91B91E08F1708F090E0E92B89
:105990009A8591952B83FC820D831E83EF82D88696
:1059A000F9879E1B9A8781E060E041E00E943B32CC
:1059B00081E061E040E00E943B3281E062E00E94D1
:1059C0004E3381E062E041E00E943B3200ED17E09F
:1059D000C8010197F1F781E062E040E00E943B32AC
:1059E000C8010197F1F781E06DE20E944E3381E03A
:1059F00062E041E00E943B32C8010197F1F781E08B
:105A000062E040E00E943B32C8010197F1F7C80113
:105A10000197F1F77DCDAF92BF92CF92DF92EF92D7
:105A2000FF920F931F93DF93CF930F92CDB7DEB703
:105A30005C01FC01108200E010E06E010894C11CC2
:105A4000D11CF801E550FE4FE08080E06E2D40E073
:105A50000E943B32FF2480E060E0A6010E942733D1
:105A600089818823B1F1FF24F39480E061E0A601ED
:105A70000E9427338981882309F441C022E0F22E55
:105A800080E062E0A6010E94273389818823D1F15A
:105A900093E0F92E80E063E0A6010E94273389811C
:105AA000882399F180E06E2D41E00E943B320F5F28
:105AB0001F4F0430110529F681E00F90CF91DF913F
:105AC0001F910F91FF90EF90DF90CF90BF90AF901C
:105AD0000895E0E0F0E0EE0FFF1FEE0FFF1FE00F74
