:100000000C942A000C94A4090C94D7090C940A0AA5
:100010000C94C2070C948F070C945C070C9429076E
:100020000C94F6060C94C3060C9490060C945D0692
:100030000C943C000C943C000C943C000C943C0050
:100040000C943C000C943C000C943C000C943C0040
:100050000C943C0011241FBECFE5D8E0DEBFCDBF1D
:1000600010E0A0E6B0E001C01D92A339B107E1F7AE
:100070000E94B7020C9426100C940000DF93CF93DB
:1000800000D000D0CDB7DEB79A8389837C836B83A1
:100090000E94EF0229813A8188EE93E0AC01249F0F
:1000A000C001259F900D349F900D112401970E944F
:1000B000E7038B819C8167E00E9437060E948805D8
:1000C0000F900F900F900F90CF91DF910895DF93D5
:1000D000CF9300D000D0CDB7DEB79A8389837C83DD
:1000E0006B830E94EF0289819A8101970E94E70346
:1000F0008B819C8167E00E9437060E9488050F90E3
:100100000F900F900F90CF91DF910895DF93CF93D1
:1001100000D000D0CDB7DEB79A8389837C836B8310
:100120000E94D5008091620090916300009731F4A5
:1001300080916000909161000097A1F3809162002E
:10014000909163009C0140E050E080E492E4AFE0D5
:10015000B0E0BC01CD010E940B10DA01C901E981B8
:10016000FA8180839183A283B383209160003091D0
:10017000610084E690E0AC01249FC001259F900DB2
:10018000349F900D11242091620030916300B901D9
:100190000E94D50FCB01EB81FC8180830F900F90E3
:1001A0000F900F90CF91DF910895DF93CF93CDB74C
:1001B000DEB783E062E040E00E94010B80E063E094
:1001C0000E949C0824EF30E080E0B9010E94F5070E
:1001D00080E00E942E080E94EF0280E090E00E94E2
:1001E000B903CF91DF910895DF93CF9300D0CDB7BE
:1001F000DEB780916600282F30E03A832983898119
:100200009A8181309105A9F029813A812230310506
:10021000F1F089819A81009731F580E090E00E94A9
:10022000B90380E062E00E949C0881E08093660050
:100230001AC080E063E00E949C080E9435049093FD
:1002400061008093600082E0809366000CC080E0D3
:1002500063E00E949C080E943504909363008093A1
:100260006200109266000F900F90CF91DF91089579
:10027000EF92FF920F931F93DF93CF93CDB7DEB72B
:1002800029970FB6F894DEBF0FBECDBF9F838E8334
:100290007987688780E090E00E94B9039E012B5F18
:1002A0003F4F83E066E0A9010E941D0E8D818823E7
:1002B000A9F79E012B5F3F4F83E066E0A9010E94F2
:1002C0001D0E8D818130A9F780E090E00E94B90376
:1002D0009E012B5F3F4F83E066E0A9010E941D0E47
:1002E0008D818130A9F30E9435049C838B8380E04B
:1002F00090E00E94B9039E012B5F3F4F83E066E0D0
:10030000A9010E941D0E8D818130A9F70E9435043C
:100310009A8389838B819C81CC01A0E0B0E024E6A4
:1003200030E040E050E0BC01CD010E94B60F7B01FF
:100330008C012B813C8189819A81820F931F9C01C2
:1003400040E050E0C801B7010E94E90FDA01C9019D
:10035000E885F985808389819A819C0140E050E09D
:100360008B819C81CC01A0E0B0E0280F391F4A1F8F
:100370005B1F80E492E4AFE0B0E0BC01CD010E94DD
:10038000E90FDA01C901EE81FF8180839183A283A5
:10039000B38329960FB6F894DEBF0FBECDBFCF91C1
:1003A000DF911F910F91FF90EF900895EF92FF92D0
:1003B0000F931F93DF93CF93CDB7DEB728970FB678
:1003C000F894DEBF0FBECDBF9E838D8378876F8389
:1003D00080E090E00E94B9038EE692E066E00E9421
:1003E000370681E00E94F3040E9418051092650010
:1003F00010926400809164009091650083309105B3
:10040000C8F320918F0030919000809191009091DD
:100410009200A901481B590BCA019C838B83209130
:100420008D0030918E0080918F0090919000A901F5
:10043000481B590BCA019A8389838B819C81CC010B
:10044000A0E0B0E024E630E040E050E0BC01CD01A7
:100450000E94B60F7B018C018B819C819C0140E046
:1004600050E089819A81CC01A0E0B0E0280F391FCB
:100470004A1F5B1FC801B7010E94E90FDA01C901D9
:10048000EF81F885808389819A819C0140E050E06A
:100490008B819C81CC01A0E0B0E0280F391F4A1F5E
:1004A0005B1F80E492E4AFE0B0E0BC01CD010E94AC
:1004B000E90FDA01C901ED81FE8180839183A28376
:1004C000B38328960FB6F894DEBF0FBECDBFCF9191
:1004D000DF911F910F91FF90EF900895DF93CF93DD
:1004E000CDB7DEB78091640090916500009781F4EC
:1004F0000E94F805909392008093910080E00E9402
:10050000F30481E090E090936500809364002CC038
:1005100080916400909165008130910581F40E9482
:10052000F8059093900080938F0081E00E94F3047F
:1005300082E090E0909365008093640015C0809104
:100540006400909165008230910571F40E94F80575
:1005500090938E0080938D000E94260583E090E0AA
:100560009093650080936400CF91DF910895DF93AD
:10057000CF93CDB7DEB70E943D0A0E94EF02789478
:10058000FFCFDF93CF93CDB7DEB7A3E5B0E0E3E5D0
:10059000F0E080818F7B8C93A3E5B0E0E3E5F0E0B1
:1005A0008081877F8C93E2E5F0E088E38083A9E592
:1005B000B0E0E9E5F0E0808181608C93A3E5B0E0F4
:1005C000E3E5F0E08081887F8C93A3E5B0E0E3E58C
:1005D000F0E0808182608C93CF91DF910895DF936A
:1005E000CF93CDB7DEB7AFE4B0E0EFE4F0E08081C9
:1005F0008E7F8C93AFE4B0E0EFE4F0E08081826026
:100600008C93AEE4B0E0EEE4F0E0808188608C93FF
:10061000AEE4B0E0EEE4F0E0808180618C93EAE447
:10062000F0E080E991E091838083E8E4F0E01182DA
:100630001082E6E4F0E087EE93E091838083AEE4FD
:10064000B0E0EEE4F0E080818F7B8C93AFE4B0E02B
:10065000EFE4F0E080818F7B8C93AFE4B0E0EFE4D7
:10066000F0E0808180688C93AFE4B0E0EFE4F0E0EC
:1006700080818F7E8C93AFE4B0E0EFE4F0E0808186
:100680008F7D8C93A9E5B0E0E9E5F0E080818B7F78
:100690008C93A9E5B0E0E9E5F0E080818F7E8C9352
:1006A000A9E5B0E0E9E5F0E08081877F8C93A9E5DA
:1006B000B0E0E9E5F0E080818F7D8C93AEE4B0E0BE
:1006C000EEE4F0E08081887F8C93AEE4B0E0EEE46D
:1006D000F0E0808182608C93CF91DF910895DF9369
:1006E000CF93CDB7DEB7A5E4B0E0E5E4F0E08081DC
:1006F0008F7B8C93A5E4B0E0E5E4F0E08081886036
:100700008C93E3E4F0E08AEF8083A5E4B0E0E5E4D5
:10071000F0E080818F7E8C93A5E4B0E0E5E4F0E02A
:1007200080818F7D8C93A9E5B0E0E9E5F0E08081E0
:1007300080688C93A5E4B0E0E5E4F0E08081887FF8
:100740008C93A5E4B0E0E5E4F0E0808182608C93D6
:10075000CF91DF910895DF93CF930F92CDB7DEB79E
:100760008983E2E5F0E0898180830F90CF91DF916A
:100770000895DF93CF9300D0CDB7DEB79A838983F6
:10078000ECE4F0E089819A81918380830F900F904F
:10079000CF91DF910895DF93CF930F92CDB7DEB75E
:1007A0008983E4E4F0E0898180830F90CF91DF9129
:1007B0000895DF93CF930F92CDB7DEB78983ECE531
:1007C000F0E0898180830F90CF91DF910895DF93CE
:1007D000CF9300D0CDB7DEB79A838983EAE4F0E007
:1007E00089819A81918380830F900F90CF91DF91BF
:1007F0000895DF93CF9300D0CDB7DEB79A83898376
:10080000E8E4F0E089819A81918380830F900F90D2
:10081000CF91DF910895DF93CF930F92CDB7DEB7DD
:100820008983E3E4F0E0898180830F90CF91DF91A9
:100830000895DF93CF9300D0CDB7DEB79A83898335
:10084000E6E4F0E089819A81918380830F900F9094
:10085000CF91DF910895DF93CF93CDB7DEB7E2E577
:10086000F0E08081CF91DF910895DF93CF93CDB7F2
:10087000DEB7ECE4F0E080819181CF91DF910895C3
:10088000DF93CF93CDB7DEB7E4E4F0E08081CF9182
:10089000DF910895DF93CF9300D00F92CDB7DEB7ED
:1008A0008B831A82198288E090E09A8389838981F8
:1008B0000F900F900F90CF91DF910895EF92FF92DC
:1008C0000F931F93DF93CF93CDB7DEB72B970FB660
:1008D000F894DEBF0FBECDBF6F83788789879A8774
:1008E0004B870E94EF0281E00E944A04882F90E02B
:1008F000A0E0B0E02F81388549855A85BC01CD0143
:100900000E94B60F9B01AC0180E092E1AAE7B0E043
:10091000BC01CD010E94E90FDA01C9010197A109CB
:10092000B1098B839C83AD83BE838B85E82EFF2426
:1009300000E010E08B819C81AD81BE819C01AD0106
:100940002F5F3F4F4F4F5F4FC801B7010E94B60F57
:10095000DC01CB0124E630E040E050E0BC01CD01F9
:100960000E94E90FDA01C90101979A8389838B817B
:100970009C810E94190489819A810E94E7032B9629
:100980000FB6F894DEBF0FBECDBFCF91DF911F91A0
:100990000F91FF90EF900895DF93CF9300D0CDB7E4
:1009A000DEB79A838983EAE4F0E089819A819183B2
:1009B00080830F900F90CF91DF910895DF93CF93B5
:1009C000CDB7DEB7AEE4B0E0EEE4F0E08081806465
:1009D0008C93A9E5B0E0E9E5F0E0808180628C933A
:1009E000CF91DF910895DF93CF9300D0CDB7DEB7DD
:1009F0008A8381E089838A81813041F4AEE4B0E06A
:100A0000EEE4F0E0808180648C930CC08A818823BE
:100A100041F4AEE4B0E0EEE4F0E080818F7B8C93B3
:100A200001C0198289810F900F90CF91DF910895B5
:100A3000DF93CF93CDB7DEB7A9E5B0E0E9E5F0E00D
:100A4000808180628C93CF91DF910895DF93CF9363
:100A5000CDB7DEB7A9E5B0E0E9E5F0E080818F7DB4
:100A60008C93CF91DF910895DF93CF93CDB7DEB70D
:100A7000A9E5B0E0E9E5F0E0808181608C93CF9159
:100A8000DF910895DF93CF93CDB7DEB7A9E5B0E04E
:100A9000E9E5F0E080818E7F8C93CF91DF9108951E
:100AA000DF93CF93CDB7DEB7A9E5B0E0E9E5F0E09D
:100AB000808182608C93CF91DF910895DF93CF93F3
:100AC000CDB7DEB7A9E5B0E0E9E5F0E080818D7F44
:100AD0008C93CF91DF910895DF93CF93CDB7DEB79D
:100AE000A9E5B0E0E9E5F0E0808184608C93CF91E6
:100AF000DF910895DF93CF93CDB7DEB7A9E5B0E0DE
:100B0000E9E5F0E080818B7F8C93CF91DF910895B0
:100B1000DF93CF93CDB7DEB7A9E5B0E0E9E5F0E02C
:100B2000808180618C93CF91DF910895DF93CF9383
:100B3000CDB7DEB7A9E5B0E0E9E5F0E080818F7ED2
:100B40008C93CF91DF910895DF93CF93CDB7DEB72C
:100B5000A9E5B0E0E9E5F0E0808188608C93CF9171
:100B6000DF910895DF93CF93CDB7DEB7A9E5B0E06D
:100B7000E9E5F0E08081877F8C93CF91DF91089544
:100B8000DF93CF93CDB7DEB7A9E5B0E0E9E5F0E0BC
:100B9000808180648C93CF91DF910895DF93CF9310
:100BA000CDB7DEB7A9E5B0E0E9E5F0E080818F7B65
:100BB0008C93CF91DF910895DF93CF93CDB7DEB7BC
:100BC000A9E5B0E0E9E5F0E0808180688C93CF9101
:100BD000DF910895DF93CF93CDB7DEB7A9E5B0E0FD
:100BE000E9E5F0E080818F778C93CF91DF910895D4
:100BF000DF93CF93CDB7DEB7E6E4F0E0808191815B
:100C0000CF91DF910895DF93CF93CDB7DEB7A1E405
:100C1000B0E0E1E4F0E08081887F8C93A1E4B0E073
:100C2000E1E4F0E0808186608C93CF91DF910895BC
:100C3000DF93CF93CDB7DEB7A1E4B0E0E1E4F0E01D
:100C4000808188608C93CF91DF910895DF93CF935B
:100C5000CDB7DEB7A1E4B0E0E1E4F0E080818861E7
:100C60008C93E1E4F0E01082CF91DF910895DF935F
:100C7000CF9300D000D0CDB7DEB79B838A836C833F
:100C800081E089838A819B81009769F08C81882F1C
:100C900090E0880F991FFC01E959FF4F8A819B81E1
:100CA0009183808302C082E0898389810F900F90B5
:100CB0000F900F90CF91DF9108951F920F920FB672
:100CC0000F9211242F933F934F935F936F937F93D2
:100CD0008F939F93AF93BF93EF93FF93DF93CF9344
:100CE000CDB7DEB780917D0090917E00009729F00E
:100CF000E0917D00F0917E000995CF91DF91FF9109
:100D0000EF91BF91AF919F918F917F916F915F9183
:100D10004F913F912F910F900FBE0F901F901895FC
:100D20001F920F920FB60F9211242F933F934F9360
:100D30005F936F937F938F939F93AF93BF93EF9343
:100D4000FF93DF93CF93CDB7DEB780917B00909177
:100D50007C00009729F0E0917B00F0917C000995E0
:100D6000CF91DF91FF91EF91BF91AF919F918F91C3
:100D70007F916F915F914F913F912F910F900FBE97
:100D80000F901F9018951F920F920FB60F9211247B
:100D90002F933F934F935F936F937F938F939F9383
:100DA000AF93BF93EF93FF93DF93CF93CDB7DEB7AE
:100DB0008091790090917A00009729F0E091790074
:100DC000F0917A000995CF91DF91FF91EF91BF915A
:100DD000AF919F918F917F916F915F914F913F91D3
:100DE0002F910F900FBE0F901F9018951F920F928A
:100DF0000FB60F9211242F933F934F935F936F93EE
:100E00007F938F939F93AF93BF93EF93FF93DF9362
:100E1000CF93CDB7DEB7809177009091780000979F
:100E200029F0E0917700F09178000995CF91DF915A
:100E3000FF91EF91BF91AF919F918F917F916F91B2
:100E40005F914F913F912F910F900FBE0F901F9088
:100E500018951F920F920FB60F9211242F933F9364
:100E60004F935F936F937F938F939F93AF93BF93B2
:100E7000EF93FF93DF93CF93CDB7DEB780917500EB
:100E800090917600009729F0E0917500F09176003E
:100E90000995CF91DF91FF91EF91BF91AF919F9114
:100EA0008F917F916F915F914F913F912F910F9013
:100EB0000FBE0F901F9018951F920F920FB60F92B2
:100EC00011242F933F934F935F936F937F938F934F
:100ED0009F93AF93BF93EF93FF93DF93CF93CDB7E0
:100EE000DEB78091730090917400009729F0E09133
:100EF0007300F09174000995CF91DF91FF91EF910C
:100F0000BF91AF919F918F917F916F915F914F9121
:100F10003F912F910F900FBE0F901F9018951F9229
:100F20000F920FB60F9211242F933F934F935F931D
:100F30006F937F938F939F93AF93BF93EF93FF93A1
:100F4000DF93CF93CDB7DEB780917100909172009F
:100F5000009729F0E0917100F09172000995CF910E
:100F6000DF91FF91EF91BF91AF919F918F917F9111
:100F70006F915F914F913F912F910F900FBE0F9006
:100F80001F9018951F920F920FB60F9211242F9356
:100F90003F934F935F936F937F938F939F93AF9301
:100FA000BF93EF93FF93DF93CF93CDB7DEB78091DD
:100FB0006F0090917000009729F0E0916F00F09120
:100FC00070000995CF91DF91FF91EF91BF91AF91A3
:100FD0009F918F917F916F915F914F913F912F9151
:100FE0000F900FBE0F901F901895DF93CF9300D0F6
:100FF00000D00F92CDB7DEB789837B836A83898166
:10100000282F30E03D832C838C819D818130910598
:1010100081F02C813D812230310591F08C819D81C0
:101020000097A1F48A819B81909388008093870028
:101030000DC08A819B8190938A008093890006C0AD
:101040008A819B8190938C0080938B000F900F90EE
:101050000F900F900F90CF91DF910895DF93CF9372
:1010600000D00F92CDB7DEB789838981282F30E079
:101070003B832A838A819B818130910589F02A8173
:101080003B8122303105A1F08A819B810097B9F420
:10109000ABE5B0E0EBE5F0E0808180648C930FC0BD
:1010A000ABE5B0E0EBE5F0E0808180688C9307C0B1
:1010B000ABE5B0E0EBE5F0E0808180628C930F90CF
:1010C0000F900F90CF91DF910895DF93CF9300D0D1
:1010D0000F92CDB7DEB789838981282F30E03B831B
:1010E0002A838A819B818130910589F02A813B8105
:1010F00022303105A1F08A819B810097B9F4ABE5DC
:10110000B0E0EBE5F0E080818F7B8C930FC0ABE526
:10111000B0E0EBE5F0E080818F778C9307C0ABE522
:10112000B0E0EBE5F0E080818F7D8C930F900F9025
:101130000F90CF91DF910895DF93CF93CDB7DEB7B6
:101140002A970FB6F894DEBF0FBECDBF89836A839E
:101150008981282F30E03A87298789859A858130CF
:10116000910509F466C029853A852230310509F4D4
:10117000BBC089859A85009709F0DDC08A81282F38
:1011800030E038872F838F8198858130910521F158
:101190002F813885223031052CF48F819885009776
:1011A00061F0C9C02F8138852230310521F18F814E
:1011B00098858330910571F1BEC0A5E5B0E0E5E505
:1011C000F0E080818E7F8C93A5E5B0E0E5E5F0E06E
:1011D00080818D7F8C93AFC0A5E5B0E0E5E5F0E0C0
:1011E000808181608C93A5E5B0E0E5E5F0E0808149
:1011F0008D7F8C93A0C0A5E5B0E0E5E5F0E08081AF
:101200008E7F8C93A5E5B0E0E5E5F0E0808182601B
:101210008C9391C0A5E5B0E0E5E5F0E080818160C8
:101220008C93A5E5B0E0E5E5F0E0808182608C93E9
:1012300082C08A81282F30E03E832D838D819E815C
:101240008130910521F12D813E81223031052CF430
:101250008D819E81009761F06EC02D813E8122308C
:10126000310521F18D819E818330910571F163C03B
:10127000A5E5B0E0E5E5F0E080818B7F8C93A5E506
:10128000B0E0E5E5F0E08081877F8C9354C0A5E570
:10129000B0E0E5E5F0E0808184608C93A5E5B0E006
:1012A000E5E5F0E08081877F8C9345C0A5E5B0E05F
:1012B000E5E5F0E080818B7F8C93A5E5B0E0E5E586
:1012C000F0E0808188608C9336C0A5E5B0E0E5E56C
:1012D000F0E0808184608C93A5E5B0E0E5E5F0E086
:1012E000808188608C9327C08A81282F30E03C83DE
:1012F0002B838B819C818230910531F02B813C8145
:101300002330310549F010C0A4E5B0E0E4E5F0E099
:1013100080818F7B8C930FC0A4E5B0E0E4E5F0E022
:10132000808180648C9307C0A4E5B0E0E4E5F0E040
:1013300080818F7B8C932A960FB6F894DEBF0FBE08
:10134000CDBFCF91DF9108951F920F920FB60F92EC
:1013500011242F933F934F935F936F937F938F93BA
:101360009F93AF93BF93EF93FF93DF93CF93CDB74B
:10137000DEB78091870090918800009729F0E09176
:101380008700F09188000995CF91DF91FF91EF914F
:10139000BF91AF919F918F917F916F915F914F918D
:1013A0003F912F910F900FBE0F901F9018951F9295
:1013B0000F920FB60F9211242F933F934F935F9389
:1013C0006F937F938F939F93AF93BF93EF93FF930D
:1013D000DF93CF93CDB7DEB78091890090918A00DB
:1013E000009729F0E0918900F0918A000995CF914A
:1013F000DF91FF91EF91BF91AF919F918F917F917D
:101400006F915F914F913F912F910F900FBE0F9071
:101410001F9018951F920F920FB60F9211242F93C1
:101420003F934F935F936F937F938F939F93AF936C
:10143000BF93EF93FF93DF93CF93CDB7DEB7809148
:101440008B0090918C00009729F0E0918B00F09137
:101450008C000995CF91DF91FF91EF91BF91AF91F2
:101460009F918F917F916F915F914F913F912F91BC
:101470000F900FBE0F901F901895DF93CF930F9290
:10148000CDB7DEB71982EAE3F0E080EF8083E7E3CF
:10149000F0E08BEF8083E4E3F0E08FEF8083E1E323
:1014A000F0E083EF8083EBE3F0E08FEF8083E8E30D
:1014B000F0E01082E5E3F0E01082E2E3F0E0108279
:1014C00081E0898389810F90CF91DF910895DF9327
:1014D000CF9300D000D00F92CDB7DEB78A836B8355
:1014E00019828A818430A8F58A81282F30E03D83D3
:1014F0002C838C819D8181309105D1F02C813D819F
:10150000223031052CF48C819D81009761F01EC042
:101510002C813D812230310581F08C819D81833089
:10152000910581F013C0EAE3F0E08B8180830EC067
:10153000E7E3F0E08B81808309C0E4E3F0E08B8196
:10154000808304C0E1E3F0E08B81808381E08983C4
:1015500002C083E0898389810F900F900F900F90D4
:101560000F90CF91DF910895DF93CF9300D000D0FB
:101570000F92CDB7DEB78A836B8319828A8184305C
:10158000A8F58A81282F30E03D832C838C819D81B2
:1015900081309105D1F02C813D81223031052CF430
:1015A0008C819D81009761F01EC02C813D8122308D
:1015B000310581F08C819D818330910581F013C0CC
:1015C000EBE3F0E08B8180830EC0E8E3F0E08B81F9
:1015D000808309C0E5E3F0E08B81808304C0E2E30F
:1015E000F0E08B81808381E0898302C083E089837E
:1015F00089810F900F900F900F900F90CF91DF91F6
:101600000895DF93CF9300D000D000D0CDB7DEB7E0
:101610008A836B834C8319828A81843008F0D1C01D
:101620008B81883008F0CDC08C81823008F0C9C031
:101630008A81282F30E03E832D836D817E81613049
:10164000710509F441C08D819E818230910534F489
:101650002D813E812115310571F0B0C06D817E81F3
:101660006230710509F459C08D819E8183309105E6
:1016700009F47CC0A3C0AAE3B0E0EAE3F0E0808113
:10168000482F8B81282F30E081E090E002C0880F46
:10169000991F2A95E2F7809584238C93AAE3B0E002
:1016A000EAE3F0E08081482F8C81282F30E08B81A5
:1016B000882F90E0B90102C0660F771F8A95E2F784
:1016C000CB01842B8C937AC0A7E3B0E0E7E3F0E092
:1016D0008081482F8B81282F30E081E090E002C08C
:1016E000880F991F2A95E2F7809584238C93A7E3AE
:1016F000B0E0E7E3F0E08081482F8C81282F30E0D4
:101700008B81882F90E0B90102C0660F771F8A9500
:10171000E2F7CB01842B8C9351C0A4E3B0E0E4E367
:10172000F0E08081482F8B81282F30E081E090E02D
:1017300002C0880F991F2A95E2F7809584238C9325
:10174000A4E3B0E0E4E3F0E08081482F8C81282F0F
:1017500030E08B81882F90E0B90102C0660F771FBF
:101760008A95E2F7CB01842B8C9328C0A1E3B0E0EB
:10177000E1E3F0E08081482F8B81282F30E081E089
:1017800090E002C0880F991F2A95E2F78095842384
:101790008C93A1E3B0E0E1E3F0E08081482F8C81FD
:1017A000282F30E08B81882F90E0B90102C0660FAE
:1017B000771F8A95E2F7CB01842B8C9381E0898394
:1017C00002C083E08983898126960FB6F894DEBF34
:1017D0000FBECDBFCF91DF910895DF93CF9300D09F
:1017E00000D000D0CDB7DEB78A836B834C831982DB
:1017F0008A81843008F0D1C08B81883008F0CDC058
:101800008C81823008F0C9C08A81282F30E03E8365
:101810002D836D817E816130710509F441C08D8118
:101820009E818230910534F42D813E812115310550
:1018300071F0B0C06D817E816230710509F459C0CC
:101840008D819E818330910509F47CC0A3C0ABE3F8
:10185000B0E0EBE3F0E08081482F8B81282F30E06F
:1018600081E090E002C0880F991F2A95E2F78095E9
:1018700084238C93ABE3B0E0EBE3F0E08081482F6E
:101880008C81282F30E08B81882F90E0B90102C035
:10189000660F771F8A95E2F7CB01842B8C937AC071
:1018A000A8E3B0E0E8E3F0E08081482F8B81282FA7
:1018B00030E081E090E002C0880F991F2A95E2F79E
:1018C000809584238C93A8E3B0E0E8E3F0E0808186
:1018D000482F8C81282F30E08B81882F90E0B90130
:1018E00002C0660F771F8A95E2F7CB01842B8C9399
:1018F00051C0A5E3B0E0E5E3F0E08081482F8B81A3
:10190000282F30E081E090E002C0880F991F2A95CF
:10191000E2F7809584238C93A5E3B0E0E5E3F0E063
:101920008081482F8C81282F30E08B81882F90E098
:10193000B90102C0660F771F8A95E2F7CB01842BAD
:101940008C9328C0A2E3B0E0E2E3F0E08081482F6E
:101950008B81282F30E081E090E002C0880F991F32
:101960002A95E2F7809584238C93A2E3B0E0E2E32A
:10197000F0E08081482F8C81282F30E08B81882FE8
:1019800090E0B90102C0660F771F8A95E2F7CB019C
:10199000842B8C9381E0898302C083E089838981D1
:1019A00026960FB6F894DEBF0FBECDBFCF91DF9164
:1019B0000895DF93CF9300D000D0CDB7DEB78A83F0
:1019C00019828A81843008F041C08A81282F30E052
:1019D0003C832B838B819C8181309105E9F02B81A5
:1019E0003C81223031052CF48B819C81009761F081
:1019F0002AC02B813C8122303105B1F08B819C8142
:101A000083309105C9F01FC0ABE3B0E0EBE3F0E039
:101A1000808180958C9317C0A8E3B0E0E8E3F0E004
:101A2000808180958C930FC0A5E3B0E0E5E3F0E002
:101A3000808180958C9307C0A2E3B0E0E2E3F0E000
:101A4000808180958C9381E0898302C083E08983C3
:101A500089810F900F900F900F90CF91DF91089593
:101A6000DF93CF9300D000D00F92CDB7DEB78A833B
:101A70006B8319828A81843008F075C08B8188302D
:101A800008F071C08A81282F30E03D832C838C813F
:101A90009D818130910549F12C813D8122303105B4
:101AA0002CF48C819D81009761F05AC02C813D817E
:101AB0002230310571F18C819D8183309105E9F1EE
:101AC0004FC0ABE3B0E0EBE3F0E08081482F8B81C7
:101AD000282F30E081E090E0022E02C0880F991F8D
:101AE0000A94E2F784278C933BC0A8E3B0E0E8E3D4
:101AF000F0E08081482F8B81282F30E081E090E05A
:101B0000022E02C0880F991F0A94E2F784278C9353
:101B100027C0A5E3B0E0E5E3F0E08081482F8B81AA
:101B2000282F30E081E090E0022E02C0880F991F3C
:101B30000A94E2F784278C9313C0A2E3B0E0E2E3B7
:101B4000F0E08081482F8B81282F30E081E090E009
:101B5000022E02C0880F991F0A94E2F784278C9303
:101B600081E0898302C083E0898389810F900F908F
:101B70000F900F900F90CF91DF910895DF93CF9347
:101B800000D000D000D0CDB7DEB78A837C836B83D2
:101B900019828B819C81009709F443C08A8184302B
:101BA000E8F58A81282F30E03E832D838D819E8148
:101BB00081309105E1F02D813E81223031052CF4F8
:101BC0008D819E81009761F026C02D813E8122305B
:101BD0003105A1F08D819E8183309105B1F01BC04C
:101BE000E9E3F0E08081EB81FC81808314C0E6E3CF
:101BF000F0E08081EB81FC8180830DC0E3E3F0E0C5
:101C00008081EB81FC81808306C0E0E3F0E080818D
:101C1000EB81FC81808381E0898305C083E0898337
:101C200002C082E08983898126960FB6F894DEBFD0
:101C30000FBECDBFCF91DF910895DF93CF93CDB786
:101C4000DEB727970FB6F894DEBF0FBECDBF8A83ED
:101C50006B835D834C8319828C819D81009709F48D
:101C60007EC08A81843008F077C08B81883008F08C
:101C700073C08A81282F30E03F832E834E815F819D
:101C80004130510559F18E819F818230910534F4A4
:101C90002E813F812115310569F05BC04E815F8146
:101CA0004230510579F18E819F818330910509F48D
:101CB0003DC04FC0E9E3F0E08081282F30E08B8108
:101CC000882F90E0A90102C0559547958A95E2F7C3
:101CD000CA018170EC81FD8180833BC0E6E3F0E0C6
:101CE0008081282F30E08B81882F90E0A90102C0ED
:101CF000559547958A95E2F7CA018170EC81FD817F
:101D0000808327C0E3E3F0E08081282F30E08B81DF
:101D1000882F90E0A90102C0559547958A95E2F772
:101D2000CA018170EC81FD81808313C0E0E3F0E0A3
:101D30008081282F30E08B81882F90E0A90102C09C
:101D4000559547958A95E2F7CA018170EC81FD812E
:101D5000808381E0898305C083E0898302C082E0BB
:101D60008983898127960FB6F894DEBF0FBECDBF59
:101D7000CF91DF910895DF93CF9300D000D00F92E1
:101D8000CDB7DEB78A836B8319828A81843008F0ED
:101D900065C08B818295807F8B838A81282F30E07C
:101DA0003D832C838C819D818130910529F12C818B
:101DB0003D81223031052CF48C819D81009761F0AA
:101DC0004AC02C813D812230310531F18C819D81C9
:101DD0008330910589F13FC0ABE3B0E0EBE3F0E085
:101DE00080818F708C93ABE3B0E0EBE3F0E0908107
:101DF0008B81892B8C932FC0A8E3B0E0E8E3F0E05F
:101E000080818F708C93A8E3B0E0E8E3F0E09081EC
:101E10008B81892B8C931FC0A5E3B0E0E5E3F0E054
:101E200080818F708C93A5E3B0E0E5E3F0E09081D2
:101E30008B81892B8C930FC0A2E3B0E0E2E3F0E04A
:101E400080818F708C93A2E3B0E0E2E3F0E09081B8
:101E50008B81892B8C9381E0898302C083E0898305
:101E600089810F900F900F900F900F90CF91DF917D
:101E70000895DF93CF9300D000D00F92CDB7DEB797
:101E80008A836B8319828A81843008F064C08B81D5
:101E90008F708B838A81282F30E03D832C838C8147
:101EA0009D818130910529F12C813D8122303105C0
:101EB0002CF48C819D81009761F04AC02C813D817A
:101EC0002230310531F18C819D818330910589F17A
:101ED0003FC0ABE3B0E0EBE3F0E08081807F8C9328
:101EE000ABE3B0E0EBE3F0E090818B81892B8C9346
:101EF0002FC0A8E3B0E0E8E3F0E08081807F8C931E
:101F0000A8E3B0E0E8E3F0E090818B81892B8C932B
:101F10001FC0A5E3B0E0E5E3F0E08081807F8C9313
:101F2000A5E3B0E0E5E3F0E090818B81892B8C9311
:101F30000FC0A2E3B0E0E2E3F0E08081807F8C9309
:101F4000A2E3B0E0E2E3F0E090818B81892B8C93F7
:101F500081E0898302C083E0898389810F900F909B
:101F60000F900F900F90CF91DF910895629FD00155
:101F7000739FF001829FE00DF11D649FE00DF11D44
:101F8000929FF00D839FF00D749FF00D659FF00DF3
:101F90009927729FB00DE11DF91F639FB00DE11DE0
:101FA000F91FBD01CF0111240895AA1BBB1B51E1EC
:101FB00007C0AA1FBB1FA617B70710F0A61BB70BB9
:101FC000881F991F5A95A9F780959095BC01CD015E
:101FD0000895A1E21A2EAA1BBB1BFD010DC0AA1F6A
:101FE000BB1FEE1FFF1FA217B307E407F50720F082
:101FF000A21BB30BE40BF50B661F771F881F991FFD
:102000001A9469F760957095809590959B01AC0145
:10201000BD01CF01089597FB092E05260ED057FD6F
:1020200004D0D7DF0AD0001C38F450954095309585
:1020300021953F4F4F4F5F4F0895F6F7909580954C
:10204000709561957F4F8F4F9F4F0895F894FFCF04
:00000001FF
