:100000000C942A000C9447000C9447000C94470071
:100010000C94DC060C94A9060C9476060C9443060A
:100020000C9410060C94DD050C94AA050C9477052D
:100030000C9447000C9447000C9447000C94470024
:100040000C9447000C9447000C9447000C94470014
:100050000C94470011241FBECFE5D8E0DEBFCDBF12
:1000600010E0A0E6B0E0E4E1F9E102C005900D92F5
:10007000A436B107D9F710E0A4E6B0E001C01D92A4
:10008000A938B107E1F70E9449000C94880C0C9440
:100090000000DF93CF93CDB7DEB780E690E00E94FB
:1000A000A7000E940B038AE590E064E00E945105DE
:1000B0007894FFCFDF93CF93CDB7DEB78091640004
:1000C00090916500A0916600B09167000196A11D16
:1000D000B11D8093640090936500A0936600B09377
:1000E00067008091640090916500A0916600B091D6
:1000F0006700803D27E0920720E0A20720E0B207DA
:1001000051F40E948E0010926400109265001092CB
:10011000660010926700CF91DF910895DF93CF932F
:10012000CDB7DEB780916800882341F480E690E087
:100130000E94E70181E08093680006C080E690E0BD
:100140000E94220210926800CF91DF910895DF9300
:10015000CF9300D000D00F92CDB7DEB79C838B83B6
:100160001A828B819C81009709F424C1198219821B
:100170001CC18981882F90E09C01220F331F220F20
:10018000331F8B819C81FC01E20FF31F4081898129
:10019000882F90E09C01220F331F220F331F8B8189
:1001A0009C81FC01E20FF31F9181842F692F41E0B4
:1001B0000E94D3078A838981882F90E09C01220FB7
:1001C000331F220F331F8B819C81FC01E20FF31F31
:1001D0008281882309F069C08981882F90E09C0181
:1001E000220F331F220F331F8B819C81FC01E20FF2
:1001F000F31F8381813019F58981882F90E09C015C
:10020000220F331F220F331F8B819C81FC01E20FD1
:10021000F31F40818981882F90E09C01220F331FBA
:10022000220F331F8B819C81FC01E20FF31F918110
:10023000842F692F40E00E94BF088A83B3C0898160
:10024000882F90E09C01220F331F220F331F8B81D8
:100250009C81FC01E20FF31F8381882319F58981BA
:10026000882F90E09C01220F331F220F331F8B81B8
:100270009C81FC01E20FF31F40818981882F90E06F
:100280009C01220F331F220F331F8B819C81FC01A5
:10029000E20FF31F9181842F692F41E00E94BF0874
:1002A0008A8380C083E08D8389C08981882F90E014
:1002B0009C01220F331F220F331F8B819C81FC0175
:1002C000E20FF31F8281813009F069C08981882F94
:1002D00090E09C01220F331F220F331F8B819C81E2
:1002E000FC01E20FF31F8381813019F58981882F8A
:1002F00090E09C01220F331F220F331F8B819C81C2
:10030000FC01E20FF31F40818981882F90E09C015E
:10031000220F331F220F331F8B819C81FC01E20FC0
:10032000F31F9181842F692F41E00E94BF088A83C7
:1003300039C08981882F90E09C01220F331F220F42
:10034000331F8B819C81FC01E20FF31F8381882383
:1003500019F58981882F90E09C01220F331F220F0D
:10036000331F8B819C81FC01E20FF31F4081898147
:10037000882F90E09C01220F331F220F331F8B81A7
:100380009C81FC01E20FF31F9181842F692F40E0D3
:100390000E94BF088A8306C083E08D830FC083E07C
:1003A0008D830CC089818F5F89838981882309F4BB
:1003B000E0CE02C082E08A838A818D838D810F9096
:1003C0000F900F900F900F90CF91DF910895DF93D2
:1003D000CF9300D00F92CDB7DEB79B838A8319826B
:1003E0008A819B81009729F1EA81FB8182818823A0
:1003F00061F4EA81FB818081EA81FB819181692F2F
:1004000040E00E94BF08898316C0EA81FB81828197
:10041000813061F4EA81FB818081EA81FB819181F5
:10042000692F41E00E94BF08898305C083E089836A
:1004300002C082E0898389810F900F900F90CF9145
:10044000DF910895DF93CF9300D00F92CDB7DEB741
:100450009B838A8319828A819B81009729F1EA8193
:10046000FB818281882361F4EA81FB818081EA81BA
:10047000FB819181692F41E00E94BF08898316C0EA
:10048000EA81FB818281813061F4EA81FB81808194
:10049000EA81FB819181692F40E00E94BF08898336
:1004A00005C083E0898302C082E0898389810F903F
:1004B0000F900F90CF91DF910895DF93CF93CDB739
:1004C000DEB7A3E5B0E0E3E5F0E080818F7B8C93BD
:1004D000A3E5B0E0E3E5F0E08081877F8C93E2E57F
:1004E000F0E088E38083A9E5B0E0E9E5F0E0808111
:1004F00081608C93A3E5B0E0E3E5F0E08081887F44
:100500008C93A3E5B0E0E3E5F0E0808182608C931A
:10051000CF91DF910895DF93CF93CDB7DEB7AFE4EE
:10052000B0E0EFE4F0E080818E7F8C93AFE4B0E048
:10053000EFE4F0E0808182608C93AEE4B0E0EEE422
:10054000F0E0808188608C93AEE4B0E0EEE4F0E00F
:10055000808180618C93EAE4F0E084EF91E0918304
:100560008083E8E4F0E011821082E6E4F0E080E2CB
:100570009EE491838083AEE4B0E0EEE4F0E080811D
:1005800080648C93AFE4B0E0EFE4F0E080818F7B97
:100590008C93AFE4B0E0EFE4F0E0808180688C936E
:1005A000AFE4B0E0EFE4F0E080818F7E8C93AFE4C5
:1005B000B0E0EFE4F0E0808180628C93A9E5B0E0E8
:1005C000E9E5F0E080818B7F8C93A9E5B0E0E9E577
:1005D000F0E080818F7E8C93A9E5B0E0E9E5F0E062
:1005E0008081877F8C93A9E5B0E0E9E5F0E0808128
:1005F0008F7D8C93AEE4B0E0EEE4F0E08081887F04
:100600008C93AEE4B0E0EEE4F0E0808182608C9305
:10061000CF91DF910895DF93CF93CDB7DEB7A5E4F7
:10062000B0E0E5E4F0E080818F7B8C93A5E4B0E05E
:10063000E5E4F0E0808188608C93E3E4F0E08AEF09
:100640008083A5E4B0E0E5E4F0E080818F7E8C93C8
:10065000A5E4B0E0E5E4F0E080818F7D8C93A9E52E
:10066000B0E0E9E5F0E0808180688C93A5E4B0E03B
:10067000E5E4F0E08081887F8C93A5E4B0E0E5E4D8
:10068000F0E0808182608C93CF91DF910895DF93B9
:10069000CF930F92CDB7DEB78983E2E5F0E0898191
:1006A00080830F90CF91DF910895DF93CF9300D097
:1006B000CDB7DEB79A838983ECE4F0E089819A8133
:1006C000918380830F900F90CF91DF910895DF93F6
:1006D000CF930F92CDB7DEB78983E4E4F0E0898150
:1006E00080830F90CF91DF910895DF93CF930F9286
:1006F000CDB7DEB78983ECE5F0E0898180830F9088
:10070000CF91DF910895DF93CF9300D0CDB7DEB7BF
:100710009A838983EAE4F0E089819A8191838083D6
:100720000F900F90CF91DF910895DF93CF9300D07A
:10073000CDB7DEB79A838983E8E4F0E089819A81B6
:10074000918380830F900F90CF91DF910895DF9375
:10075000CF930F92CDB7DEB78983E3E4F0E08981D0
:1007600080830F90CF91DF910895DF93CF9300D0D6
:10077000CDB7DEB79A838983E6E4F0E089819A8178
:10078000918380830F900F90CF91DF910895DF9335
:10079000CF93CDB7DEB7E2E5F0E08081CF91DF9176
:1007A0000895DF93CF93CDB7DEB7ECE4F0E080811E
:1007B0009181CF91DF910895DF93CF93CDB7DEB7CD
:1007C000E4E4F0E08081CF91DF910895DF93CF934F
:1007D00000D0CDB7DEB79A838983EAE4F0E089815F
:1007E0009A81918380830F900F90CF91DF9108952C
:1007F000DF93CF93CDB7DEB7AEE4B0E0EEE4F0E048
:10080000808180648C93A9E5B0E0E9E5F0E0808127
:1008100080628C93CF91DF910895DF93CF9300D0C6
:10082000CDB7DEB78A8381E089838A81813041F444
:10083000AEE4B0E0EEE4F0E0808180648C930CC024
:100840008A81882341F4AEE4B0E0EEE4F0E08081F8
:100850008F7B8C9301C0198289810F900F90CF916B
:10086000DF910895DF93CF93CDB7DEB7A9E5B0E070
:10087000E9E5F0E0808180628C93CF91DF9108956B
:10088000DF93CF93CDB7DEB7A9E5B0E0E9E5F0E0BF
:1008900080818F7D8C93CF91DF910895DF93CF93EB
:1008A000CDB7DEB7A9E5B0E0E9E5F0E08081816091
:1008B0008C93CF91DF910895DF93CF93CDB7DEB7BF
:1008C000A9E5B0E0E9E5F0E080818E7F8C93CF91DF
:1008D000DF910895DF93CF93CDB7DEB7A9E5B0E000
:1008E000E9E5F0E0808182608C93CF91DF910895FB
:1008F000DF93CF93CDB7DEB7A9E5B0E0E9E5F0E04F
:1009000080818D7F8C93CF91DF910895DF93CF937A
:10091000CDB7DEB7A9E5B0E0E9E5F0E0808184601D
:100920008C93CF91DF910895DF93CF93CDB7DEB74E
:10093000A9E5B0E0E9E5F0E080818B7F8C93CF9171
:10094000DF910895DF93CF93CDB7DEB7A9E5B0E08F
:10095000E9E5F0E0808180618C93CF91DF9108958B
:10096000DF93CF93CDB7DEB7A9E5B0E0E9E5F0E0DE
:1009700080818F7E8C93CF91DF910895DF93CF9309
:10098000CDB7DEB7A9E5B0E0E9E5F0E080818860A9
:100990008C93CF91DF910895DF93CF93CDB7DEB7DE
:1009A000A9E5B0E0E9E5F0E08081877F8C93CF9105
:1009B000DF910895DF93CF93CDB7DEB7A9E5B0E01F
:1009C000E9E5F0E0808180648C93CF91DF91089518
:1009D000DF93CF93CDB7DEB7A9E5B0E0E9E5F0E06E
:1009E00080818F7B8C93CF91DF910895DF93CF939C
:1009F000CDB7DEB7A9E5B0E0E9E5F0E08081806839
:100A00008C93CF91DF910895DF93CF93CDB7DEB76D
:100A1000A9E5B0E0E9E5F0E080818F778C93CF9194
:100A2000DF910895DF93CF93CDB7DEB7E6E4F0E032
:100A300080819181CF91DF910895DF93CF93CDB7DE
:100A4000DEB7A1E4B0E0E1E4F0E08081887F8C9340
:100A5000A1E4B0E0E1E4F0E0808186608C93CF9186
:100A6000DF910895DF93CF93CDB7DEB7A1E4B0E077
:100A7000E1E4F0E0808188608C93CF91DF9108956C
:100A8000DF93CF93CDB7DEB7A1E4B0E0E1E4F0E0CF
:100A9000808188618C93E1E4F0E01082CF91DF9156
:100AA0000895DF93CF9300D000D0CDB7DEB79B83FE
:100AB0008A836C8381E089838A819B81009769F0B6
:100AC0008C81882F90E0880F991FFC01E759FF4F18
:100AD0008A819B819183808302C082E0898389819E
:100AE0000F900F900F900F90CF91DF9108951F926C
:100AF0000F920FB60F9211242F933F934F935F9352
:100B00006F937F938F939F93AF93BF93EF93FF93D5
:100B1000DF93CF93CDB7DEB780917F0090918000B7
:100B2000009729F0E0917F00F09180000995CF9126
:100B3000DF91FF91EF91BF91AF919F918F917F9145
:100B40006F915F914F913F912F910F900FBE0F903A
:100B50001F9018951F920F920FB60F9211242F938A
:100B60003F934F935F936F937F938F939F93AF9335
:100B7000BF93EF93FF93DF93CF93CDB7DEB7809111
:100B80007D0090917E00009729F0E0917D00F0912A
:100B90007E000995CF91DF91FF91EF91BF91AF91C9
:100BA0009F918F917F916F915F914F913F912F9185
:100BB0000F900FBE0F901F9018951F920F920FB6B7
:100BC0000F9211242F933F934F935F936F937F93D3
:100BD0008F939F93AF93BF93EF93FF93DF93CF9345
:100BE000CDB7DEB780917B0090917C00009729F013
:100BF000E0917B00F0917C000995CF91DF91FF910E
:100C0000EF91BF91AF919F918F917F916F915F9184
:100C10004F913F912F910F900FBE0F901F901895FD
:100C20001F920F920FB60F9211242F933F934F9361
:100C30005F936F937F938F939F93AF93BF93EF9344
:100C4000FF93DF93CF93CDB7DEB78091790090917A
:100C50007A00009729F0E0917900F0917A000995E7
:100C6000CF91DF91FF91EF91BF91AF919F918F91C4
:100C70007F916F915F914F913F912F910F900FBE98
:100C80000F901F9018951F920F920FB60F9211247C
:100C90002F933F934F935F936F937F938F939F9384
:100CA000AF93BF93EF93FF93DF93CF93CDB7DEB7AF
:100CB0008091770090917800009729F0E09177007B
:100CC000F09178000995CF91DF91FF91EF91BF915D
:100CD000AF919F918F917F916F915F914F913F91D4
:100CE0002F910F900FBE0F901F9018951F920F928B
:100CF0000FB60F9211242F933F934F935F936F93EF
:100D00007F938F939F93AF93BF93EF93FF93DF9363
:100D1000CF93CDB7DEB780917500909176000097A4
:100D200029F0E0917500F09176000995CF91DF915F
:100D3000FF91EF91BF91AF919F918F917F916F91B3
:100D40005F914F913F912F910F900FBE0F901F9089
:100D500018951F920F920FB60F9211242F933F9365
:100D60004F935F936F937F938F939F93AF93BF93B3
:100D7000EF93FF93DF93CF93CDB7DEB780917300EE
:100D800090917400009729F0E0917300F091740045
:100D90000995CF91DF91FF91EF91BF91AF919F9115
:100DA0008F917F916F915F914F913F912F910F9014
:100DB0000FBE0F901F9018951F920F920FB60F92B3
:100DC00011242F933F934F935F936F937F938F9350
:100DD0009F93AF93BF93EF93FF93DF93CF93CDB7E1
:100DE000DEB78091710090917200009729F0E09138
:100DF0007100F09172000995CF91DF91FF91EF9111
:100E0000BF91AF919F918F917F916F915F914F9122
:100E10003F912F910F900FBE0F901F901895DF9369
:100E2000CF930F92CDB7DEB71982EAE3F0E080EFFF
:100E30008083E7E3F0E08FEF8083E4E3F0E08FEF7F
:100E40008083E1E3F0E08BEF8083EBE3F0E08FEF72
:100E50008083E8E3F0E01082E5E3F0E01082E2E373
:100E6000F0E0108281E0898389810F90CF91DF913A
:100E70000895DF93CF9300D000D00F92CDB7DEB7A7
:100E80008A836B8319828A818430A8F58A81282F0E
:100E900030E03D832C838C819D8181309105D1F0A0
:100EA0002C813D81223031052CF48C819D8100976D
:100EB00061F01EC02C813D812230310581F08C8192
:100EC0009D818330910581F013C0EAE3F0E08B81CE
:100ED00080830EC0E7E3F0E08B81808309C0E4E308
:100EE000F0E08B81808304C0E1E3F0E08B818083BC
:100EF00081E0898302C083E0898389810F900F900C
:100F00000F900F900F90CF91DF910895DF93CF93C3
:100F100000D000D00F92CDB7DEB78A836B831982E1
:100F20008A818430A8F58A81282F30E03D832C8384
:100F30008C819D8181309105D1F02C813D812230C1
:100F400031052CF48C819D81009761F01EC02C81AD
:100F50003D812230310581F08C819D818330910566
:100F600081F013C0EBE3F0E08B8180830EC0E8E3F7
:100F7000F0E08B81808309C0E5E3F0E08B81808322
:100F800004C0E2E3F0E08B81808381E0898302C0CA
:100F900083E0898389810F900F900F900F900F90BD
:100FA000CF91DF910895DF93CF9300D000D000D090
:100FB000CDB7DEB78A836B834C8319828A818430F4
:100FC00008F0D1C08B81883008F0CDC08C81823090
:100FD00008F0C9C08A81282F30E03E832D836D81BF
:100FE0007E816130710509F441C08D819E8182301E
:100FF000910534F42D813E812115310571F0B0C089
:101000006D817E816230710509F459C08D819E81A8
:101010008330910509F47CC0A3C0AAE3B0E0EAE301
:10102000F0E08081482F8B81282F30E081E090E034
:1010300002C0880F991F2A95E2F7809584238C932C
:10104000AAE3B0E0EAE3F0E08081482F8C81282F0A
:1010500030E08B81882F90E0B90102C0660F771FC6
:101060008A95E2F7CB01842B8C937AC0A7E3B0E09A
:10107000E7E3F0E08081482F8B81282F30E081E08A
:1010800090E002C0880F991F2A95E2F7809584238B
:101090008C93A7E3B0E0E7E3F0E08081482F8C81F8
:1010A000282F30E08B81882F90E0B90102C0660FB5
:1010B000771F8A95E2F7CB01842B8C9351C0A4E370
:1010C000B0E0E4E3F0E08081482F8B81282F30E00E
:1010D00081E090E002C0880F991F2A95E2F7809581
:1010E00084238C93A4E3B0E0E4E3F0E08081482F14
:1010F0008C81282F30E08B81882F90E0B90102C0CD
:10110000660F771F8A95E2F7CB01842B8C9328C05A
:10111000A1E3B0E0E1E3F0E08081482F8B81282F4C
:1011200030E081E090E002C0880F991F2A95E2F735
:10113000809584238C93A1E3B0E0E1E3F0E080812B
:10114000482F8C81282F30E08B81882F90E0B901C7
:1011500002C0660F771F8A95E2F7CB01842B8C9330
:1011600081E0898302C083E08983898126960FB656
:10117000F894DEBF0FBECDBFCF91DF910895DF930E
:10118000CF9300D000D000D0CDB7DEB78A836B8379
:101190004C8319828A81843008F0D1C08B818830D9
:1011A00008F0CDC08C81823008F0C9C08A81282F18
:1011B00030E03E832D836D817E816130710509F4BD
:1011C00041C08D819E818230910534F42D813E8114
:1011D0002115310571F0B0C06D817E8162307105DD
:1011E00009F459C08D819E818330910509F47CC03A
:1011F000A3C0ABE3B0E0EBE3F0E08081482F8B814C
:10120000282F30E081E090E002C0880F991F2A95D6
:10121000E2F7809584238C93ABE3B0E0EBE3F0E05E
:101220008081482F8C81282F30E08B81882F90E09F
:10123000B90102C0660F771F8A95E2F7CB01842BB4
:101240008C937AC0A8E3B0E0E8E3F0E08081482F17
:101250008B81282F30E081E090E002C0880F991F39
:101260002A95E2F7809584238C93A8E3B0E0E8E325
:10127000F0E08081482F8C81282F30E08B81882FEF
:1012800090E0B90102C0660F771F8A95E2F7CB01A3
:10129000842B8C9351C0A5E3B0E0E5E3F0E08081BE
:1012A000482F8B81282F30E081E090E002C0880F2A
:1012B000991F2A95E2F7809584238C93A5E3B0E0EB
:1012C000E5E3F0E08081482F8C81282F30E08B818E
:1012D000882F90E0B90102C0660F771F8A95E2F768
:1012E000CB01842B8C9328C0A2E3B0E0E2E3F0E0D2
:1012F0008081482F8B81282F30E081E090E002C070
:10130000880F991F2A95E2F7809584238C93A2E396
:10131000B0E0E2E3F0E08081482F8C81282F30E0BC
:101320008B81882F90E0B90102C0660F771F8A95E4
:10133000E2F7CB01842B8C9381E0898302C083E0A8
:101340008983898126960FB6F894DEBF0FBECDBF84
:10135000CF91DF910895DF93CF9300D000D0CDB728
:10136000DEB78A8319828A81843008F041C08A817D
:10137000282F30E03C832B838B819C818130910529
:10138000E9F02B813C81223031052CF48B819C814A
:10139000009761F02AC02B813C8122303105B1F0E9
:1013A0008B819C8183309105C9F01FC0ABE3B0E015
:1013B000EBE3F0E0808180958C9317C0A8E3B0E068
:1013C000E8E3F0E0808180958C930FC0A5E3B0E066
:1013D000E5E3F0E0808180958C9307C0A2E3B0E064
:1013E000E2E3F0E0808180958C9381E0898302C004
:1013F00083E0898389810F900F900F900F90CF9198
:10140000DF910895DF93CF9300D000D00F92CDB736
:10141000DEB78A836B8319828A81843008F075C0B5
:101420008B81883008F071C08A81282F30E03D839D
:101430002C838C819D818130910549F12C813D81E6
:10144000223031052CF48C819D81009761F05AC0C7
:101450002C813D812230310571F18C819D81833059
:101460009105E9F14FC0ABE3B0E0EBE3F0E0808140
:10147000482F8B81282F30E081E090E0022E02C0BF
:10148000880F991F0A94E2F784278C933BC0A8E346
:10149000B0E0E8E3F0E08081482F8B81282F30E036
:1014A00081E090E0022E02C0880F991F0A94E2F7B3
:1014B00084278C9327C0A5E3B0E0E5E3F0E08081CA
:1014C000482F8B81282F30E081E090E0022E02C06F
:1014D000880F991F0A94E2F784278C9313C0A2E324
:1014E000B0E0E2E3F0E08081482F8B81282F30E0EC
:1014F00081E090E0022E02C0880F991F0A94E2F763
:1015000084278C9381E0898302C083E08983898169
:101510000F900F900F900F900F90CF91DF91089543
:10152000DF93CF9300D000D000D0CDB7DEB78A8351
:101530007C836B8319828B819C81009709F443C063
:101540008A818430E8F58A81282F30E03E832D831C
:101550008D819E8181309105E1F02D813E81223087
:1015600031052CF48D819E81009761F026C02D817C
:101570003E8122303105A1F08D819E81833091051D
:10158000B1F01BC0E9E3F0E08081EB81FC81808356
:1015900014C0E6E3F0E08081EB81FC8180830DC024
:1015A000E3E3F0E08081EB81FC81808306C0E0E32F
:1015B000F0E08081EB81FC81808381E0898305C03C
:1015C00083E0898302C082E08983898126960FB6F1
:1015D000F894DEBF0FBECDBFCF91DF910895DF93AA
:1015E000CF93CDB7DEB727970FB6F894DEBF0FBE07
:1015F000CDBF8A836B835D834C8319828C819D81EF
:10160000009709F47EC08A81843008F077C08B810E
:10161000883008F073C08A81282F30E03F832E8302
:101620004E815F814130510559F18E819F81823019
:10163000910534F42E813F812115310569F05BC09D
:101640004E815F814230510579F18E819F818330D7
:10165000910509F43DC04FC0E9E3F0E08081282FF7
:1016600030E08B81882F90E0A90102C05595479505
:101670008A95E2F7CA018170EC81FD8180833BC0CD
:10168000E6E3F0E08081282F30E08B81882F90E026
:10169000A90102C0559547958A95E2F7CA01817064
:1016A000EC81FD81808327C0E3E3F0E08081282F77
:1016B00030E08B81882F90E0A90102C055954795B5
:1016C0008A95E2F7CA018170EC81FD81808313C0A5
:1016D000E0E3F0E08081282F30E08B81882F90E0DC
:1016E000A90102C0559547958A95E2F7CA01817014
:1016F000EC81FD81808381E0898305C083E089835B
:1017000002C082E08983898127960FB6F894DEBFF4
:101710000FBECDBFCF91DF910895DF93CF9300D05F
:1017200000D00F92CDB7DEB78A836B8319828A818E
:10173000843008F065C08B818295807F8B838A819D
:10174000282F30E03D832C838C819D818130910551
:1017500029F12C813D81223031052CF48C819D8131
:10176000009761F04AC02C813D812230310531F172
:101770008C819D818330910589F13FC0ABE3B0E05E
:10178000EBE3F0E080818F708C93ABE3B0E0EBE3B0
:10179000F0E090818B81892B8C932FC0A8E3B0E07F
:1017A000E8E3F0E080818F708C93A8E3B0E0E8E399
:1017B000F0E090818B81892B8C931FC0A5E3B0E072
:1017C000E5E3F0E080818F708C93A5E3B0E0E5E382
:1017D000F0E090818B81892B8C930FC0A2E3B0E065
:1017E000E2E3F0E080818F708C93A2E3B0E0E2E36B
:1017F000F0E090818B81892B8C9381E0898302C0FA
:1018000083E0898389810F900F900F900F900F9044
:10181000CF91DF910895DF93CF9300D000D00F9246
:10182000CDB7DEB78A836B8319828A81843008F052
:1018300064C08B818F708B838A81282F30E03D8339
:101840002C838C819D818130910529F12C813D81F2
:10185000223031052CF48C819D81009761F04AC0C3
:101860002C813D812230310531F18C819D81833085
:10187000910589F13FC0ABE3B0E0EBE3F0E080819C
:10188000807F8C93ABE3B0E0EBE3F0E090818B8161
:10189000892B8C932FC0A8E3B0E0E8E3F0E08081CF
:1018A000807F8C93A8E3B0E0E8E3F0E090818B8147
:1018B000892B8C931FC0A5E3B0E0E5E3F0E08081C5
:1018C000807F8C93A5E3B0E0E5E3F0E090818B812D
:1018D000892B8C930FC0A2E3B0E0E2E3F0E08081BB
:1018E000807F8C93A2E3B0E0E2E3F0E090818B8113
:1018F000892B8C9381E0898302C083E0898389816D
:101900000F900F900F900F900F90CF91DF9108954F
:04191000F894FFCF79
:0419140002000100CC
:00000001FF
