:100000000C942A000C943F000C943F000C943F0089
:100010000C943F000C943F000C943F000C943F0064
:100020000C943F000C943F000C943F000C943F0054
:100030000C943F000C943F000C943F000C943F0044
:100040000C943F000C943F000C943F000C943F0034
:100050000C943F0011241FBECFE5D8E0DEBFCDBF1A
:1000600010E0A0E6B0E0ECE1F9E202C005900D92EC
:10007000A23BB107D9F70E9441000C948C140C9458
:100080000000DF93CF9300D00F92CDB7DEB78AE99F
:1000900090E00E94AF0C8AE690E00E94840081E02C
:1000A0008B831A8219828AE990E09E012D5F3F4F6F
:1000B000B9010E94240D8B81882311F481E08A8389
:1000C0008B81882381F38A81813021F489818F5F3C
:1000D00089831A8289819AE0692F0E948014892F6E
:1000E000982F80E0692F0E94E60289819AE0692FAB
:1000F0000E948014982F81E0692F0E94E602898176
:10010000843688F21982CFCFDF93CF9300D000D00E
:10011000CDB7DEB79C838B831A82198219824AC2BB
:100120008981482F50E0CA01880F991F9C01220F36
:10013000331F220F331F220F331F820F931F9C0187
:10014000240F351F8B819C81FC01E20FF31F60811E
:100150008981482F50E0CA01880F991F9C01220F06
:10016000331F220F331F220F331F820F931F9C0157
:10017000240F351F8B819C81FC01E20FF31F9181BD
:10018000862F692F41E00E94CB0F8981482F50E0D4
:10019000CA01880F991F9C01220F331F220F331FA2
:1001A000220F331F820F931F9C01240F351F8B8159
:1001B0009C81FC01E20FF31F62818981482F50E08E
:1001C000CA01880F991F9C01220F331F220F331F72
:1001D000220F331F820F931F9C01240F351F8B8129
:1001E0009C81FC01E20FF31F9381862F692F41E070
:1001F0000E94CB0F8981482F50E0CA01880F991FB8
:100200009C01220F331F220F331F220F331F820F37
:10021000931F9C01240F351F8B819C81FC01E20FF1
:10022000F31F64818981482F50E0CA01880F991F0C
:100230009C01220F331F220F331F220F331F820F07
:10024000931F9C01240F351F8B819C81FC01E20FC1
:10025000F31F9581862F692F41E00E94CB0F898182
:10026000482F50E0CA01880F991F9C01220F331FAD
:10027000220F331F220F331F820F931F9C01240F65
:10028000351F8B819C81FC01E20FF31F6681898100
:10029000482F50E0CA01880F991F9C01220F331F7D
:1002A000220F331F220F331F820F931F9C01240F35
:1002B000351F8B819C81FC01E20FF31F9781862FF4
:1002C000692F41E00E94CB0F8981482F50E0CA017D
:1002D000880F991F9C01220F331F220F331F220FFB
:1002E000331F820F931F9C01240F351F8B819C812C
:1002F000FC01E20FF31F60858981482F50E0CA019D
:10030000880F991F9C01220F331F220F331F220FCA
:10031000331F820F931F9C01240F351F8B819C81FB
:10032000FC01E20FF31F9185862F692F41E00E94A7
:10033000CB0F8981482F50E0CA01880F991F9C017B
:10034000220F331F220F331F220F331F820F931FE1
:100350009C01240F351F8B819C81FC01E20FF31F50
:1003600062858981482F50E0CA01880F991F9C013E
:10037000220F331F220F331F220F331F820F931FB1
:100380009C01240F351F8B819C81FC01E20FF31F20
:100390009385862F692F41E00E94CB0F8981482FDA
:1003A00050E0CA01880F991F9C01220F331F220FB2
:1003B000331F220F331F820F931F9C01240F351F01
:1003C0008B819C81FC01E20FF31F64858981482F9A
:1003D00050E0CA01880F991F9C01220F331F220F82
:1003E000331F220F331F820F931F9C01240F351FD1
:1003F0008B819C81FC01E20FF31F9585862F692F6D
:1004000041E00E94CB0F8981482F50E0CA01880F3C
:10041000991F9C01220F331F220F331F220F331FFE
:10042000820F931F9C01240F351F8B819C81FC013F
:10043000E20FF31F8685843109F44FC08981482F6C
:1004400050E0CA01880F991F9C01220F331F220F11
:10045000331F220F331F820F931F9C01240F351F60
:100460008B819C81FC01E20FF31F87858431A9F108
:100470008981482F50E0CA01880F991F9C01220FE3
:10048000331F220F331F220F331F820F931F9C0134
:10049000240F351F8B819C81FC01E20FF31F6685C1
:1004A0008981482F50E0CA01880F991F9C01220FB3
:1004B000331F220F331F220F331F820F931F9C0104
:1004C000240F351F8B819C81FC01E20FF31F978560
:1004D000862F692F41E00E94CB0F8981482F50E081
:1004E000CA01880F991F9C01220F331F220F331F4F
:1004F000220F331F820F931F9C01240F351F8B8106
:100500009C81FC01E20FF31F8089843109F44FC004
:100510008981482F50E0CA01880F991F9C01220F42
:10052000331F220F331F220F331F820F931F9C0193
:10053000240F351F8B819C81FC01E20FF31F818901
:100540008431A9F18981482F50E0CA01880F991F91
:100550009C01220F331F220F331F220F331F820FE4
:10056000931F9C01240F351F8B819C81FC01E20F9E
:10057000F31F60898981482F50E0CA01880F991FB5
:100580009C01220F331F220F331F220F331F820FB4
:10059000931F9C01240F351F8B819C81FC01E20F6E
:1005A000F31F9189862F692F41E00E94CB0F89812B
:1005B0008F5F89838981823008F4B2CD8A810F9060
:1005C0000F900F900F90CF91DF910895DF93CF930D
:1005D000CDB7DEB768970FB6F894DEBF0FBECDBFBC
:1005E0008A836B8319828B818A3008F0A2C38A8147
:1005F000823008F09EC38A81482F50E0CA01880FDC
:10060000991F9C01220F331F220F331F220F331F0C
:10061000820F931F840F951FFC01E458FF4F8081C8
:10062000882309F098C18A81482F50E0CA01880FB9
:10063000991F9C01220F331F220F331F220F331FDC
:10064000820F931F840F951FFC01E659FF4F6081B5
:100650008A81482F50E0CA01880F991F9C01220F00
:10066000331F220F331F220F331F820F931F840F5C
:10067000951FFC01E559FF4F20818B81882F90E069
:10068000FC01E057FF4F8081982F9170862F622FD9
:10069000492F0E94B7108A81482F50E0CA01880F65
:1006A000991F9C01220F331F220F331F220F331F6C
:1006B000820F931F840F951FFC01E459FF4F608147
:1006C0008A81482F50E0CA01880F991F9C01220F90
:1006D000331F220F331F220F331F820F931F840FEC
:1006E000951FFC01E359FF4F20818B81882F90E0FB
:1006F000FC01E057FF4F80818695982F9170862FDF
:10070000622F492F0E94B7108A81482F50E0CA01FA
:10071000880F991F9C01220F331F220F331F220FB6
:10072000331F820F931F840F951FFC01E259FF4F67
:1007300060818A81482F50E0CA01880F991F9C016F
:10074000220F331F220F331F220F331F820F931FDD
:10075000840F951FFC01E159FF4F20818B81882F69
:1007600090E0FC01E057FF4F808186958695982F99
:100770009170862F622F492F0E94B7108A81482FCF
:1007800050E0CA01880F991F9C01220F331F220FCE
:10079000331F220F331F820F931F840F951FFC01FD
:1007A000E059FF4F60818A81482F50E0CA01880FCD
:1007B000991F9C01220F331F220F331F220F331F5B
:1007C000820F931F840F951FFC01EF58FF4F20816C
:1007D0008B81882F90E0FC01E057FF4F8081869548
:1007E00086958695982F9170862F622F492F0E94AB
:1007F000B7108A81482F50E0CA01880F991F9C01C9
:10080000220F331F220F331F220F331F820F931F1C
:10081000840F951FFC01EE58FF4F60818A81482F9D
:1008200050E0CA01880F991F9C01220F331F220F2D
:10083000331F220F331F820F931F840F951FFC015C
:10084000ED58FF4F20818B81882F90E0FC01E0570D
:10085000FF4F808182958F70982F9170862F622F25
:10086000492F0E94B7108A81482F50E0CA01880F93
:10087000991F9C01220F331F220F331F220F331F9A
:10088000820F931F840F951FFC01EC58FF4F60816E
:100890008A81482F50E0CA01880F991F9C01220FBE
:1008A000331F220F331F220F331F820F931F840F1A
:1008B000951FFC01EB58FF4F20818B81882F90E022
:1008C000FC01E057FF4F8081829586958770982FB5
:1008D0009170862F622F492F0E94B7108A81482F6E
:1008E00050E0CA01880F991F9C01220F331F220F6D
:1008F000331F220F331F820F931F840F951FFC019C
:10090000EA58FF4F60818A81482F50E0CA01880F62
:10091000991F9C01220F331F220F331F220F331FF9
:10092000820F931F840F951FFC01E958FF4F208110
:100930008B81882F90E0FC01E057FF4F80818295EA
:10094000869586958370982F9170862F622F492FF8
:100950000E94B710EEC18A81482F50E0CA01880F6B
:10096000991F9C01220F331F220F331F220F331FA9
:10097000820F931F840F951FFC01E458FF4F808165
:10098000813009F0D6C18A81482F50E0CA01880F12
:10099000991F9C01220F331F220F331F220F331F79
:1009A000820F931F840F951FFC01E659FF4F808132
:1009B000888F8A81482F50E0CA01880F991F9C01B7
:1009C000220F331F220F331F220F331F820F931F5B
:1009D000840F951FFC01E559FF4F80818F8B8B8120
:1009E000882F90E0FC01E057FF4F8081882F90E036
:1009F000817090701E8A009711F481E08E8B888D33
:100A00006F894E890E94B7108A81482F50E0CA0131
:100A1000880F991F9C01220F331F220F331F220FB3
:100A2000331F820F931F840F951FFC01E459FF4F62
:100A300080818D8B8A81482F50E0CA01880F991FD1
:100A40009C01220F331F220F331F220F331F820FEF
:100A5000931F840F951FFC01E359FF4F80818C8BFE
:100A60008B81882F90E0FC01E057FF4F80818695B5
:100A7000882F90E0817090701B8A009711F481E0BC
:100A80008B8B8D896C894B890E94B7108A81482F86
:100A900050E0CA01880F991F9C01220F331F220FBB
:100AA000331F220F331F820F931F840F951FFC01EA
:100AB000E259FF4F80818A8B8A81482F50E0CA011A
:100AC000880F991F9C01220F331F220F331F220F03
:100AD000331F820F931F840F951FFC01E159FF4FB5
:100AE0008081898B8B81882F90E0FC01E057FF4F3C
:100AF000808186958695882F90E081709070188A05
:100B0000009711F481E0888B8A89698948890E945D
:100B1000B7108A81482F50E0CA01880F991F9C01A5
:100B2000220F331F220F331F220F331F820F931FF9
:100B3000840F951FFC01E059FF4F80818F878A81C8
:100B4000482F50E0CA01880F991F9C01220F331FC4
:100B5000220F331F220F331F820F931F840F951F05
:100B6000FC01EF58FF4F80818E878B81882F90E0AA
:100B7000FC01E057FF4F8081869586958695882FEA
:100B800090E0817090701D86009711F481E08D8750
:100B90008F856E854D850E94B7108A81482F50E061
:100BA000CA01880F991F9C01220F331F220F331F88
:100BB000220F331F820F931F840F951FFC01EE58E5
:100BC000FF4F80818C878A81482F50E0CA01880FAF
:100BD000991F9C01220F331F220F331F220F331F37
:100BE000820F931F840F951FFC01ED58FF4F8081EA
:100BF0008B878B81882F90E0FC01E057FF4F80812D
:100C000082958F70882F90E0817090701A8600977F
:100C100011F481E08A878C856B854A850E94B71024
:100C20008A81482F50E0CA01880F991F9C01220F2A
:100C3000331F220F331F220F331F820F931F840F86
:100C4000951FFC01EC58FF4F808189878A81482FCE
:100C500050E0CA01880F991F9C01220F331F220FF9
:100C6000331F220F331F820F931F840F951FFC0128
:100C7000EB58FF4F808188878B81882F90E0FC01A3
:100C8000E057FF4F8081829586958770882F90E08E
:100C9000817090701F82009711F481E08F838985A5
:100CA00068854F810E94B7108A81482F50E0CA01A1
:100CB000880F991F9C01220F331F220F331F220F11
:100CC000331F820F931F840F951FFC01EA58FF4FBB
:100CD00080818E838A81482F50E0CA01880F991F36
:100CE0009C01220F331F220F331F220F331F820F4D
:100CF000931F840F951FFC01E958FF4F80818D835E
:100D00008B81882F90E0FC01E057FF4F8081829516
:100D1000869586958370882F90E0817090701C82F4
:100D2000009711F481E08C838E816D814C810E944B
:100D3000B710898168960FB6F894DEBF0FBECDBF9D
:100D4000CF91DF910895DF93CF9300D0CDB7DEB779
:100D50008A8319828A81823008F0BDC08A81482F37
:100D600050E0CA01880F991F9C01220F331F220FE8
:100D7000331F220F331F820F931F840F951FFC0117
:100D8000E858FF4F8081843109F4A5C08A81482F3B
:100D900050E0CA01880F991F9C01220F331F220FB8
:100DA000331F220F331F820F931F840F951FFC01E7
:100DB000E758FF4F8081843109F48DC08A81482F24
:100DC00050E0CA01880F991F9C01220F331F220F88
:100DD000331F220F331F820F931F840F951FFC01B7
:100DE000E458FF4F8081882381F58A81482F50E0A5
:100DF000CA01880F991F9C01220F331F220F331F36
:100E0000220F331F820F931F840F951FFC01E85898
:100E1000FF4F60818A81482F50E0CA01880F991FD7
:100E20009C01220F331F220F331F220F331F820F0B
:100E3000931F840F951FFC01E758FF4F9081862F69
:100E4000692F40E00E94B71046C08A81482F50E0C9
:100E5000CA01880F991F9C01220F331F220F331FD5
:100E6000220F331F820F931F840F951FFC01E4583C
:100E7000FF4F8081813079F58A81482F50E0CA0187
:100E8000880F991F9C01220F331F220F331F220F3F
:100E9000331F820F931F840F951FFC01E858FF4FEB
:100EA00060818A81482F50E0CA01880F991F9C01F8
:100EB000220F331F220F331F220F331F820F931F66
:100EC000840F951FFC01E758FF4F9081862F692FF3
:100ED00041E00E94B71089810F900F90CF91DF9170
:100EE0000895DF93CF9300D0CDB7DEB78A83198200
:100EF0008A81823008F0BDC08A81482F50E0CA0143
:100F0000880F991F9C01220F331F220F331F220FBE
:100F1000331F820F931F840F951FFC01E858FF4F6A
:100F20008081843109F4A5C08A81482F50E0CA012C
:100F3000880F991F9C01220F331F220F331F220F8E
:100F4000331F820F931F840F951FFC01E758FF4F3B
:100F50008081843109F48DC08A81482F50E0CA0114
:100F6000880F991F9C01220F331F220F331F220F5E
:100F7000331F820F931F840F951FFC01E458FF4F0E
:100F80008081882381F58A81482F50E0CA01880F2B
:100F9000991F9C01220F331F220F331F220F331F73
:100FA000820F931F840F951FFC01E858FF4F60814B
:100FB0008A81482F50E0CA01880F991F9C01220F97
:100FC000331F220F331F220F331F820F931F840FF3
:100FD000951FFC01E758FF4F9081862F692F41E054
:100FE0000E94B71046C08A81482F50E0CA01880F7E
:100FF000991F9C01220F331F220F331F220F331F13
:10100000820F931F840F951FFC01E458FF4F8081CE
:10101000813079F58A81482F50E0CA01880F991FE5
:101020009C01220F331F220F331F220F331F820F09
:10103000931F840F951FFC01E858FF4F60818A8140
:10104000482F50E0CA01880F991F9C01220F331FBF
:10105000220F331F220F331F820F931F840F951F00
:10106000FC01E758FF4F9081862F692F40E00E94D6
:10107000B71089810F900F90CF91DF910895DF9382
:10108000CF9300D0CDB7DEB78A8319828A818230B0
:1010900008F0BDC08A81482F50E0CA01880F991F0F
:1010A0009C01220F331F220F331F220F331F820F89
:1010B000931F840F951FFC01E658FF4F80818431F8
:1010C00009F4A5C08A81482F50E0CA01880F991FF2
:1010D0009C01220F331F220F331F220F331F820F59
:1010E000931F840F951FFC01E558FF4F80818431C9
:1010F00009F48DC08A81482F50E0CA01880F991FDA
:101100009C01220F331F220F331F220F331F820F28
:10111000931F840F951FFC01E458FF4F80818823A3
:1011200081F58A81482F50E0CA01880F991F9C01E0
:10113000220F331F220F331F220F331F820F931FE3
:10114000840F951FFC01E658FF4F60818A81482F6C
:1011500050E0CA01880F991F9C01220F331F220FF4
:10116000331F220F331F820F931F840F951FFC0123
:10117000E558FF4F9081862F692F41E00E94B710FC
:1011800046C08A81482F50E0CA01880F991F9C01F0
:10119000220F331F220F331F220F331F820F931F83
:1011A000840F951FFC01E458FF4F8081813079F551
:1011B0008A81482F50E0CA01880F991F9C01220F95
:1011C000331F220F331F220F331F820F931F840FF1
:1011D000951FFC01E658FF4F60818A81482F50E03F
:1011E000CA01880F991F9C01220F331F220F331F42
:1011F000220F331F820F931F840F951FFC01E558A8
:10120000FF4F9081862F692F40E00E94B71089819F
:101210000F900F90CF91DF910895DF93CF9300D07F
:10122000CDB7DEB78A8319828A81823008F0BDC0CB
:101230008A81482F50E0CA01880F991F9C01220F14
:10124000331F220F331F220F331F820F931F840F70
:10125000951FFC01E658FF4F8081843109F4A5C039
:101260008A81482F50E0CA01880F991F9C01220FE4
:10127000331F220F331F220F331F820F931F840F40
:10128000951FFC01E558FF4F8081843109F48DC022
:101290008A81482F50E0CA01880F991F9C01220FB4
:1012A000331F220F331F220F331F820F931F840F10
:1012B000951FFC01E458FF4F8081882381F58A81C6
:1012C000482F50E0CA01880F991F9C01220F331F3D
:1012D000220F331F220F331F820F931F840F951F7E
:1012E000FC01E658FF4F60818A81482F50E0CA0117
:1012F000880F991F9C01220F331F220F331F220FCB
:10130000331F820F931F840F951FFC01E558FF4F79
:101310009081862F692F40E00E94B71046C08A81D5
:10132000482F50E0CA01880F991F9C01220F331FDC
:10133000220F331F220F331F820F931F840F951F1D
:10134000FC01E458FF4F8081813079F58A81482F74
:1013500050E0CA01880F991F9C01220F331F220FF2
:10136000331F220F331F820F931F840F951FFC0121
:10137000E658FF4F60818A81482F50E0CA01880FEC
:10138000991F9C01220F331F220F331F220F331F7F
:10139000820F931F840F951FFC01E558FF4F90812A
:1013A000862F692F41E00E94B71089810F900F901E
:1013B000CF91DF910895DF93CF9300D0CDB7DEB703
:1013C0008A8319828A81823008F0C3C28A81482FB9
:1013D00050E0CA01880F991F9C01220F331F220F72
:1013E000331F220F331F820F931F840F951FFC01A1
:1013F000E458FF4F8081882309F04AC18A81482F31
:1014000050E0CA01880F991F9C01220F331F220F41
:10141000331F220F331F820F931F840F951FFC0170
:10142000E659FF4F60818A81482F50E0CA01880F3A
:10143000991F9C01220F331F220F331F220F331FCE
:10144000820F931F840F951FFC01E559FF4F908178
:10145000862F692F40E00E94B7108A81482F50E004
:10146000CA01880F991F9C01220F331F220F331FBF
:10147000220F331F820F931F840F951FFC01E45925
:10148000FF4F60818A81482F50E0CA01880F991F61
:101490009C01220F331F220F331F220F331F820F95
:1014A000931F840F951FFC01E359FF4F9081862FF6
:1014B000692F40E00E94B7108A81482F50E0CA018E
:1014C000880F991F9C01220F331F220F331F220FF9
:1014D000331F820F931F840F951FFC01E259FF4FAA
:1014E00060818A81482F50E0CA01880F991F9C01B2
:1014F000220F331F220F331F220F331F820F931F20
:10150000840F951FFC01E159FF4F9081862F692FB1
:1015100040E00E94B7108A81482F50E0CA01880F2E
:10152000991F9C01220F331F220F331F220F331FDD
:10153000820F931F840F951FFC01E059FF4F6081BC
:101540008A81482F50E0CA01880F991F9C01220F01
:10155000331F220F331F220F331F820F931F840F5D
:10156000951FFC01EF58FF4F9081862F692F40E0B7
:101570000E94B7108A81482F50E0CA01880F991F36
:101580009C01220F331F220F331F220F331F820FA4
:10159000931F840F951FFC01EE58FF4F60818A81D5
:1015A000482F50E0CA01880F991F9C01220F331F5A
:1015B000220F331F220F331F820F931F840F951F9B
:1015C000FC01ED58FF4F9081862F692F40E00E946B
:1015D000B7108A81482F50E0CA01880F991F9C01DB
:1015E000220F331F220F331F220F331F820F931F2F
:1015F000840F951FFC01EC58FF4F60818A81482FB2
:1016000050E0CA01880F991F9C01220F331F220F3F
:10161000331F220F331F820F931F840F951FFC016E
:10162000EB58FF4F9081862F692F40E00E94B71042
:101630008A81482F50E0CA01880F991F9C01220F10
:10164000331F220F331F220F331F820F931F840F6C
:10165000951FFC01EA58FF4F60818A81482F50E0B6
:10166000CA01880F991F9C01220F331F220F331FBD
:10167000220F331F820F931F840F951FFC01E9581F
:10168000FF4F9081862F692F40E00E94B71061C103
:101690008A81482F50E0CA01880F991F9C01220FB0
:1016A000331F220F331F220F331F820F931F840F0C
:1016B000951FFC01E458FF4F8081813009F049C13A
:1016C0008A81482F50E0CA01880F991F9C01220F80
:1016D000331F220F331F220F331F820F931F840FDC
:1016E000951FFC01E659FF4F60818A81482F50E029
:1016F000CA01880F991F9C01220F331F220F331F2D
:10170000220F331F820F931F840F951FFC01E55991
:10171000FF4F9081862F692F41E00E94B7108A8188
:10172000482F50E0CA01880F991F9C01220F331FD8
:10173000220F331F220F331F820F931F840F951F19
:10174000FC01E459FF4F60818A81482F50E0CA01B3
:10175000880F991F9C01220F331F220F331F220F66
:10176000331F820F931F840F951FFC01E359FF4F16
:101770009081862F692F41E00E94B7108A81482FFF
:1017800050E0CA01880F991F9C01220F331F220FBE
:10179000331F220F331F820F931F840F951FFC01ED
:1017A000E259FF4F60818A81482F50E0CA01880FBB
:1017B000991F9C01220F331F220F331F220F331F4B
:1017C000820F931F840F951FFC01E159FF4F9081F9
:1017D000862F692F41E00E94B7108A81482F50E080
:1017E000CA01880F991F9C01220F331F220F331F3C
:1017F000220F331F820F931F840F951FFC01E059A6
:10180000FF4F60818A81482F50E0CA01880F991FDD
:101810009C01220F331F220F331F220F331F820F11
:10182000931F840F951FFC01EF58FF4F9081862F67
:10183000692F41E00E94B7108A81482F50E0CA0109
:10184000880F991F9C01220F331F220F331F220F75
:10185000331F820F931F840F951FFC01EE58FF4F1B
:1018600060818A81482F50E0CA01880F991F9C012E
:10187000220F331F220F331F220F331F820F931F9C
:10188000840F951FFC01ED58FF4F9081862F692F23
:1018900041E00E94B7108A81482F50E0CA01880FAA
:1018A000991F9C01220F331F220F331F220F331F5A
:1018B000820F931F840F951FFC01EC58FF4F60812E
:1018C0008A81482F50E0CA01880F991F9C01220F7E
:1018D000331F220F331F220F331F820F931F840FDA
:1018E000951FFC01EB58FF4F9081862F692F41E037
:1018F0000E94B7108A81482F50E0CA01880F991FB3
:101900009C01220F331F220F331F220F331F820F20
:10191000931F840F951FFC01EA58FF4F60818A8155
:10192000482F50E0CA01880F991F9C01220F331FD6
:10193000220F331F220F331F820F931F840F951F17
:10194000FC01E958FF4F9081862F692F41E00E94EA
:10195000B71089810F900F90CF91DF910895DF9399
:10196000CF9300D000D0CDB7DEB79C838B831A8293
:101970008B819C81009709F45DC01982198255C042
:101980008981282F30E0C901880F991F280F391F3E
:101990008B819C81FC01E20FF31F40818981282FFC
:1019A00030E0C901880F991F280F391F8B819C8156
:1019B000FC01E20FF31F9181842F692F40E00E9408
:1019C000CB0F8A838981282F30E0C901880F991FA6
:1019D000280F391F8B819C81FC01E20FF31F50817E
:1019E0008981282F30E0C901880F991F280F391FDE
:1019F0008B819C81FC01E20FF31F41818981282F9B
:101A000030E0C901880F991F280F391F8B819C81F5
:101A1000FC01E20FF31F9281852F642F492F0E9452
:101A2000B7108A8389818F5F89838981882309F42C
:101A3000A7CF02C082E08A838A810F900F900F9017
:101A40000F90CF91DF910895DF93CF9300D000D016
:101A50000F92CDB7DEB79B838A837D836C83198217
:101A60008A819B81009791F08C819D81009771F014
:101A7000EA81FB818081EA81FB8191812C813D811A
:101A8000692FA9010E94E712898302C082E089833D
:101A900089810F900F900F900F900F90CF91DF9151
:101AA0000895DF93CF9300D000D00F92CDB7DEB76B
:101AB0009C838B831A828B819C81009709F424C1BB
:101AC000198219821CC18981882F90E09C01220F04
:101AD000331F220F331F8B819C81FC01E20FF31F08
:101AE00040818981882F90E09C01220F331F220FB3
:101AF000331F8B819C81FC01E20FF31F9181842FA6
:101B0000692F41E00E94CB0F8A838981882F90E062
:101B10009C01220F331F220F331F8B819C81FC01FC
:101B2000E20FF31F8281882309F069C08981882F21
:101B300090E09C01220F331F220F331F8B819C8169
:101B4000FC01E20FF31F8381813019F58981882F11
:101B500090E09C01220F331F220F331F8B819C8149
:101B6000FC01E20FF31F40818981882F90E09C01E6
:101B7000220F331F220F331F8B819C81FC01E20F48
:101B8000F31F9181842F692F40E00E94B7108A8350
:101B9000B3C08981882F90E09C01220F331F220F50
:101BA000331F8B819C81FC01E20FF31F838188230B
:101BB00019F58981882F90E09C01220F331F220F95
:101BC000331F8B819C81FC01E20FF31F40818981CF
:101BD000882F90E09C01220F331F220F331F8B812F
:101BE0009C81FC01E20FF31F9181842F692F41E05A
:101BF0000E94B7108A8380C083E08D8389C0898169
:101C0000882F90E09C01220F331F220F331F8B81FE
:101C10009C81FC01E20FF31F8281813009F069C0D1
:101C20008981882F90E09C01220F331F220F331FE0
:101C30008B819C81FC01E20FF31F8381813019F5B8
:101C40008981882F90E09C01220F331F220F331FC0
:101C50008B819C81FC01E20FF31F40818981882FD9
:101C600090E09C01220F331F220F331F8B819C8138
:101C7000FC01E20FF31F9181842F692F41E00E9444
:101C8000B7108A8339C08981882F90E09C01220F88
:101C9000331F220F331F8B819C81FC01E20FF31F46
:101CA0008381882319F58981882F90E09C01220F78
:101CB000331F220F331F8B819C81FC01E20FF31F26
:101CC00040818981882F90E09C01220F331F220FD1
:101CD000331F8B819C81FC01E20FF31F9181842FC4
:101CE000692F40E00E94B7108A8306C083E08D838D
:101CF0000FC083E08D830CC089818F5F89838981C8
:101D0000853008F4E0CE02C082E08A838A818D8328
:101D10008D810F900F900F900F900F90CF91DF91CA
:101D20000895DF93CF9300D00F92CDB7DEB79B839A
:101D30008A8319828A819B81009729F1EA81FB813C
:101D40008281882361F4EA81FB818081EA81FB81C1
:101D50009181692F40E00E94B710898316C0EA8103
:101D6000FB818281813061F4EA81FB818081EA819B
:101D7000FB819181692F41E00E94B710898305C0E2
:101D800083E0898302C082E0898389810F900F906C
:101D90000F90CF91DF910895DF93CF9300D00F92F2
:101DA000CDB7DEB79B838A8319828A819B81009796
:101DB00029F1EA81FB818281882361F4EA81FB8138
:101DC0008081EA81FB819181692F41E00E94B710F7
:101DD000898316C0EA81FB818281813061F4EA81C6
:101DE000FB818081EA81FB819181692F40E00E9423
:101DF000B710898305C083E0898302C082E08983AC
:101E000089810F900F900F90CF91DF910895DF930C
:101E1000CF930F92CDB7DEB71982EAE3F0E08EEFF1
:101E20008083E7E3F0E08FEF8083E4E3F0E08FEF7F
:101E30008083E1E3F0E08FEF8083EBE3F0E081E08B
:101E40008083E8E3F0E01082E5E3F0E01082E2E373
:101E5000F0E0108281E0898389810F90CF91DF913A
:101E60000895DF93CF9300D000D00F92CDB7DEB7A7
:101E70008A836B8319828A818430A8F58A81282F0E
:101E800030E03D832C838C819D8181309105D1F0A0
:101E90002C813D81223031052CF48C819D8100976D
:101EA00061F01EC02C813D812230310581F08C8192
:101EB0009D818330910581F013C0EAE3F0E08B81CE
:101EC00080830EC0E7E3F0E08B81808309C0E4E308
:101ED000F0E08B81808304C0E1E3F0E08B818083BC
:101EE00081E0898302C083E0898389810F900F900C
:101EF0000F900F900F90CF91DF910895DF93CF93C4
:101F000000D000D00F92CDB7DEB78A836B831982E1
:101F10008A818430A8F58A81282F30E03D832C8384
:101F20008C819D8181309105D1F02C813D812230C1
:101F300031052CF48C819D81009761F01EC02C81AD
:101F40003D812230310581F08C819D818330910566
:101F500081F013C0EBE3F0E08B8180830EC0E8E3F7
:101F6000F0E08B81808309C0E5E3F0E08B81808322
:101F700004C0E2E3F0E08B81808381E0898302C0CA
:101F800083E0898389810F900F900F900F900F90BD
:101F9000CF91DF910895DF93CF9300D000D000D090
:101FA000CDB7DEB78A836B834C8319828A818430F4
:101FB00008F0D1C08B81883008F0CDC08C81823090
:101FC00008F0C9C08A81282F30E03E832D836D81BF
:101FD0007E816130710509F441C08D819E8182301E
:101FE000910534F42D813E812115310571F0B0C089
:101FF0006D817E816230710509F459C08D819E81A9
:102000008330910509F47CC0A3C0AAE3B0E0EAE301
:10201000F0E08081482F8B81282F30E081E090E034
:1020200002C0880F991F2A95E2F7809584238C932C
:10203000AAE3B0E0EAE3F0E08081482F8C81282F0A
:1020400030E08B81882F90E0B90102C0660F771FC6
:102050008A95E2F7CB01842B8C937AC0A7E3B0E09A
:10206000E7E3F0E08081482F8B81282F30E081E08A
:1020700090E002C0880F991F2A95E2F7809584238B
:102080008C93A7E3B0E0E7E3F0E08081482F8C81F8
:10209000282F30E08B81882F90E0B90102C0660FB5
:1020A000771F8A95E2F7CB01842B8C9351C0A4E370
:1020B000B0E0E4E3F0E08081482F8B81282F30E00E
:1020C00081E090E002C0880F991F2A95E2F7809581
:1020D00084238C93A4E3B0E0E4E3F0E08081482F14
:1020E0008C81282F30E08B81882F90E0B90102C0CD
:1020F000660F771F8A95E2F7CB01842B8C9328C05B
:10210000A1E3B0E0E1E3F0E08081482F8B81282F4C
:1021100030E081E090E002C0880F991F2A95E2F735
:10212000809584238C93A1E3B0E0E1E3F0E080812B
:10213000482F8C81282F30E08B81882F90E0B901C7
:1021400002C0660F771F8A95E2F7CB01842B8C9330
:1021500081E0898302C083E08983898126960FB656
:10216000F894DEBF0FBECDBFCF91DF910895DF930E
:10217000CF9300D000D000D0CDB7DEB78A836B8379
:102180004C8319828A81843008F0D1C08B818830D9
:1021900008F0CDC08C81823008F0C9C08A81282F18
:1021A00030E03E832D836D817E816130710509F4BD
:1021B00041C08D819E818230910534F42D813E8114
:1021C0002115310571F0B0C06D817E8162307105DD
:1021D00009F459C08D819E818330910509F47CC03A
:1021E000A3C0ABE3B0E0EBE3F0E08081482F8B814C
:1021F000282F30E081E090E002C0880F991F2A95D7
:10220000E2F7809584238C93ABE3B0E0EBE3F0E05E
:102210008081482F8C81282F30E08B81882F90E09F
:10222000B90102C0660F771F8A95E2F7CB01842BB4
:102230008C937AC0A8E3B0E0E8E3F0E08081482F17
:102240008B81282F30E081E090E002C0880F991F39
:102250002A95E2F7809584238C93A8E3B0E0E8E325
:10226000F0E08081482F8C81282F30E08B81882FEF
:1022700090E0B90102C0660F771F8A95E2F7CB01A3
:10228000842B8C9351C0A5E3B0E0E5E3F0E08081BE
:10229000482F8B81282F30E081E090E002C0880F2A
:1022A000991F2A95E2F7809584238C93A5E3B0E0EB
:1022B000E5E3F0E08081482F8C81282F30E08B818E
:1022C000882F90E0B90102C0660F771F8A95E2F768
:1022D000CB01842B8C9328C0A2E3B0E0E2E3F0E0D2
:1022E0008081482F8B81282F30E081E090E002C070
:1022F000880F991F2A95E2F7809584238C93A2E397
:10230000B0E0E2E3F0E08081482F8C81282F30E0BC
:102310008B81882F90E0B90102C0660F771F8A95E4
:10232000E2F7CB01842B8C9381E0898302C083E0A8
:102330008983898126960FB6F894DEBF0FBECDBF84
:10234000CF91DF910895DF93CF9300D000D0CDB728
:10235000DEB78A8319828A81843008F041C08A817D
:10236000282F30E03C832B838B819C818130910529
:10237000E9F02B813C81223031052CF48B819C814A
:10238000009761F02AC02B813C8122303105B1F0E9
:102390008B819C8183309105C9F01FC0ABE3B0E015
:1023A000EBE3F0E0808180958C9317C0A8E3B0E068
:1023B000E8E3F0E0808180958C930FC0A5E3B0E066
:1023C000E5E3F0E0808180958C9307C0A2E3B0E064
:1023D000E2E3F0E0808180958C9381E0898302C004
:1023E00083E0898389810F900F900F900F90CF9198
:1023F000DF910895DF93CF9300D000D00F92CDB737
:10240000DEB78A836B8319828A81843008F075C0B5
:102410008B81883008F071C08A81282F30E03D839D
:102420002C838C819D818130910549F12C813D81E6
:10243000223031052CF48C819D81009761F05AC0C7
:102440002C813D812230310571F18C819D81833059
:102450009105E9F14FC0ABE3B0E0EBE3F0E0808140
:10246000482F8B81282F30E081E090E0022E02C0BF
:10247000880F991F0A94E2F784278C933BC0A8E346
:10248000B0E0E8E3F0E08081482F8B81282F30E036
:1024900081E090E0022E02C0880F991F0A94E2F7B3
:1024A00084278C9327C0A5E3B0E0E5E3F0E08081CA
:1024B000482F8B81282F30E081E090E0022E02C06F
:1024C000880F991F0A94E2F784278C9313C0A2E324
:1024D000B0E0E2E3F0E08081482F8B81282F30E0EC
:1024E00081E090E0022E02C0880F991F0A94E2F763
:1024F00084278C9381E0898302C083E0898389816A
:102500000F900F900F900F900F90CF91DF91089543
:10251000DF93CF9300D000D000D0CDB7DEB78A8351
:102520007C836B8319828B819C81009709F443C063
:102530008A818430E8F58A81282F30E03E832D831C
:102540008D819E8181309105E1F02D813E81223087
:1025500031052CF48D819E81009761F026C02D817C
:102560003E8122303105A1F08D819E81833091051D
:10257000B1F01BC0E9E3F0E08081EB81FC81808356
:1025800014C0E6E3F0E08081EB81FC8180830DC024
:10259000E3E3F0E08081EB81FC81808306C0E0E32F
:1025A000F0E08081EB81FC81808381E0898305C03C
:1025B00083E0898302C082E08983898126960FB6F1
:1025C000F894DEBF0FBECDBFCF91DF910895DF93AA
:1025D000CF93CDB7DEB727970FB6F894DEBF0FBE07
:1025E000CDBF8A836B835D834C8319828C819D81EF
:1025F000009709F47EC08A81843008F077C08B810F
:10260000883008F073C08A81282F30E03F832E8302
:102610004E815F814130510559F18E819F81823019
:10262000910534F42E813F812115310569F05BC09D
:102630004E815F814230510579F18E819F818330D7
:10264000910509F43DC04FC0E9E3F0E08081282FF7
:1026500030E08B81882F90E0A90102C05595479505
:102660008A95E2F7CA018170EC81FD8180833BC0CD
:10267000E6E3F0E08081282F30E08B81882F90E026
:10268000A90102C0559547958A95E2F7CA01817064
:10269000EC81FD81808327C0E3E3F0E08081282F77
:1026A00030E08B81882F90E0A90102C055954795B5
:1026B0008A95E2F7CA018170EC81FD81808313C0A5
:1026C000E0E3F0E08081282F30E08B81882F90E0DC
:1026D000A90102C0559547958A95E2F7CA01817014
:1026E000EC81FD81808381E0898305C083E089835B
:1026F00002C082E08983898127960FB6F894DEBFF5
:102700000FBECDBFCF91DF910895DF93CF9300D05F
:1027100000D00F92CDB7DEB78A836B8319828A818E
:10272000843008F065C08B818295807F8B838A819D
:10273000282F30E03D832C838C819D818130910551
:1027400029F12C813D81223031052CF48C819D8131
:10275000009761F04AC02C813D812230310531F172
:102760008C819D818330910589F13FC0ABE3B0E05E
:10277000EBE3F0E080818F708C93ABE3B0E0EBE3B0
:10278000F0E090818B81892B8C932FC0A8E3B0E07F
:10279000E8E3F0E080818F708C93A8E3B0E0E8E399
:1027A000F0E090818B81892B8C931FC0A5E3B0E072
:1027B000E5E3F0E080818F708C93A5E3B0E0E5E382
:1027C000F0E090818B81892B8C930FC0A2E3B0E065
:1027D000E2E3F0E080818F708C93A2E3B0E0E2E36B
:1027E000F0E090818B81892B8C9381E0898302C0FA
:1027F00083E0898389810F900F900F900F900F9045
:10280000CF91DF910895DF93CF9300D000D00F9246
:10281000CDB7DEB78A836B8319828A81843008F052
:1028200064C08B818F708B838A81282F30E03D8339
:102830002C838C819D818130910529F12C813D81F2
:10284000223031052CF48C819D81009761F04AC0C3
:102850002C813D812230310531F18C819D81833085
:10286000910589F13FC0ABE3B0E0EBE3F0E080819C
:10287000807F8C93ABE3B0E0EBE3F0E090818B8161
:10288000892B8C932FC0A8E3B0E0E8E3F0E08081CF
:10289000807F8C93A8E3B0E0E8E3F0E090818B8147
:1028A000892B8C931FC0A5E3B0E0E5E3F0E08081C5
:1028B000807F8C93A5E3B0E0E5E3F0E090818B812D
:1028C000892B8C930FC0A2E3B0E0E2E3F0E08081BB
:1028D000807F8C93A2E3B0E0E2E3F0E090818B8113
:1028E000892B8C9381E0898302C083E0898389816D
:1028F0000F900F900F900F900F90CF91DF91089550
:10290000991B79E004C0991F961708F0961B881F41
:0C2910007A95C9F780950895F894FFCFE0
:10291C003F065B4F666D7D077F6F00010002000371
:10292C000004000500060007141414140002000231
:10293C00010202020302040205020614141414001C
:10294C003F065B4F666D7D077F6F00000100000145
:10295C00000001010000020100000301000004015D
:02296C00000069
:00000001FF
