:100000000C942A000C9447000C9447000C94470071
:100010000C9447000C9447000C94C4110C949B1151
:100020000C9472110C9449110C9447000C944700E5
:100030000C9447000C94B30D0C9447000C94040EE0
:100040000C9447000C9447000C9447000C94470014
:100050000C94470011241FBECFE5D8E0DEBFCDBF12
:1000600017E0A0E6B0E0E8EAF8E202C005900D92E1
:10007000A038B107D9F717E0A0E8B7E001C01D929A
:10008000A63CB107E1F70E94030A0C9452140C94A9
:10009000000081E0809381070895BC016C5F7F4F71
:1000A00080E690E00E9442149C0180E0232B09F43A
:1000B00081E00895DC011496EC911497F0E0108231
:1000C0001596EC911597F0E010821696EC91169724
:1000D000F0E010821796EC911797F0E010821896D6
:1000E000EC911897F0E010821996EC911997F0E0D6
:1000F00010821A96EC911A97F0E010821B96EC9100
:100100001B97F0E010821C96EC911C97F0E0108297
:100110001D96EC911D97F0E010821E96EC911E97B3
:10012000F0E010821F96EC911F97F0E0108250963D
:10013000EC915097F0E010825196EC915197F0E0DD
:1001400010825296EC915297F0E010825396EC9107
:100150005397F0E010825496EC915497F0E010829F
:100160005596EC915597F0E010825696EC91569783
:10017000F0E010825796EC91F0E010820895CF9352
:10018000DF93EC01DC011496E0E6F0E085E00190FD
:100190000D928150E1F7DE011E96E0E6F0E085E089
:1001A00001900D928150E1F78881998160E670E0BD
:1001B00044E050E00E94A00C88819981049660E0A0
:1001C0000E946D0C8A819B8160E670E044E050E003
:1001D0000E94A00C8A819B81049660E00E946D0CB5
:1001E0008091820781508093820785E690E00E948B
:1001F000350FDF91CF9108951F938091CB0688230F
:10020000E9F010E082E890E00E94350F812F805DD8
:100210000E94820E85E890E00E94350FE12FF0E009
:10022000EE0FFF1FE95BF84F8081918104960E94D9
:10023000350F1F5F8091CB06181720F31F9108958B
:10024000AF92BF92CF92DF92EF92FF921F93DF9314
:10025000CF93CDB7DEB72A970FB6F894DEBF0FBEA7
:10026000CDBF5C018091CB0690E0069764F17E01E2
:100270000894E11CF11C8AE0F70111928A95E9F7D4
:1002800094E0C92ED12CCA0CDB1C10E00AC01F5F01
:10029000212F30E08091CB0690E005972817390791
:1002A00094F4F50180819181B7014AE050E00E9409
:1002B000DD0CC601B7010E944214009741F781E0AE
:1002C0008093800702C0809180072A960FB6F89429
:1002D000DEBF0FBECDBFCF91DF911F91FF90EF909A
:1002E000DF90CF90BF90AF900895EF92FF920F9361
:1002F0001F93CF93DF93EC010E945F0D0E94850C4A
:100300008091CD069091CE060E944B0C8093CC0636
:10031000893509F465C18E010C5F1F4FD8010D901E
:100320000020E9F71197A01BB10B88819981B801D2
:10033000AD010E94A00CF80101900020E9F731976F
:10034000E01BF10B888199818E0F9F1F60E00E9456
:100350006D0C8E01025F1F4FD8010D900020E9F750
:100360001197A01BB10B8A819B81B801AD010E943E
:10037000A00CF80101900020E9F73197E01BF10B88
:100380008A819B818E0F9F1F60E00E946D0C58E157
:10039000E52EF12CEC0EFD1E8E01045E1F4FD801E0
:1003A0000D900020E9F71197A01BB10B888D998D56
:1003B000B801AD010E94A00CF80101900020E9F7FE
:1003C0003197E01BF10B888D998D8E0F9F1F60E098
:1003D0000E946D0C8E010A5D1F4FD8010D90002008
:1003E000E9F71197A01BB10BF70182819381B80146
:1003F000AD010E94A00CF80101900020E9F73197AF
:10040000E01BF10BD70112968D919C9113978E0FE3
:100410009F1F60E00E946D0C40E3E42EF12CEC0E77
:10042000FD1E8E010C5C1F4FD8010D900020E9F7D6
:100430001197A01BB10B88A999A9B801AD010E9421
:10044000A00CF80101900020E9F73197E01BF10BB7
:1004500088A999A98E0F9F1F60E00E946D0C8E01E4
:10046000025C1F4FD8010D900020E9F71197A01BE7
:10047000B10BF70182819381B801AD010E94A00CFC
:10048000F80101900020E9F73197E01BF10BD7014B
:1004900012968D919C9113978E0F9F1F60E00E9482
:1004A0006D0C38E4E32EF12CEC0EFD1E87010C5F81
:1004B0001F4FD8010D900020E9F71197A01BB10B39
:1004C000F70180819181B801AD010E94A00CF80173
:1004D00001900020E9F73197E01BF10BD7018D91D6
:1004E0009C918E0F9F1F60E00E946D0C8701025F40
:1004F0001F4FD8010D900020E9F71197A01BB10BF9
:10050000F70182819381B801AD010E94A00CF8012E
:1005100001900020E9F73197E01BF10BD70112960B
:100520008D919C9113978E0F9F1F60E00E946D0C20
:1005300020E6E22EF12CEC0EFD1E87010C5F1F4F12
:10054000D8010D900020E9F71197A01BB10BF7011E
:1005500080819181B801AD010E94A00CF801019049
:100560000020E9F73197E01BF10BD7018D919C91A9
:100570008E0F9F1F60E00E946D0C8701025F1F4F6E
:10058000D8010D900020E9F71197A01BB10BF701DE
:1005900082819381B801AD010E94A00CF801019005
:1005A0000020E9F73197E01BF10BD70112968D91EE
:1005B0009C9113978E0F9F1F60E00E946D0C80919D
:1005C000CD069091CE0667E970E041E050E00E94D0
:1005D000A00CDF91CF911F910F91FF90EF900895A4
:1005E000DE0180E01496EC911497F0E010821596ED
:1005F000EC911597F0E010821696EC911697F0E0CA
:1006000010821796EC911797F0E010821896EC91F3
:100610001897F0E010821996EC911997F0E010828B
:100620001A96EC911A97F0E010821B96EC911B97AA
:10063000F0E010821C96EC911C97F0E010821D9661
:10064000EC911D97F0E010821E96EC911E97F0E061
:1006500010821F96EC911F97F0E010825096EC915B
:100660005097F0E010825196EC915197F0E0108293
:100670005296EC915297F0E010825396EC9153977A
:10068000F0E010825496EC915497F0E01082559669
:10069000EC915597F0E010825696EC915697F0E069
:1006A00010825796EC915797F0E010828F5F589622
:1006B000853009F097CFBE016C5F7F4FDB010D9055
:1006C0000020E9F7A61BB70B88819981AD010E9434
:1006D000DD0CBE01625F7F4FDB010D900020E9F76A
:1006E000A61BB70B8A819B81AD010E94DD0CBE0168
:1006F000645E7F4FDB010D900020E9F7A61BB70B6E
:10070000888D998DAD010E94DD0CBE016A5D7F4F21
:10071000DB010D900020E9F7A61BB70B68968A81D4
:100720009B816897AD010E94DD0CBE016C5C7F4F20
:10073000DB010D900020E9F7A61BB70B88A999A94A
:10074000AD010E94DD0CBE01625C7F4FDB010D90AC
:100750000020E9F7A61BB70BE0968A819B81E09702
:10076000AD010E94DD0C8E01085B1F4FB8016C5F6C
:100770007F4FDB010D900020E9F7A61BB70BF801B6
:1007800080819181AD010E94DD0CB801625F7F4FD5
:10079000DB010D900020E9F7A61BB70BF801828161
:1007A0009381AD010E94DD0C8E01005A1F4FB801EC
:1007B0006C5F7F4FDB010D900020E9F7A61BB70BA4
:1007C000F80180819181AD010E94DD0CB801625F6A
:1007D0007F4FDB010D900020E9F7A61BB70BF80156
:1007E00082819381AD010E94DD0CDF91CF911F9139
:1007F0000F91FF90EF9008958F929F92AF92BF92CA
:10080000CF92DF92EF92FF920F931F93DF93CF93DC
:10081000CDB7DEB76E970FB6F894DEBF0FBECDBF73
:100820005C0189E990E00E94350F84EB90E00E9422
:10083000350F4E010894811C911CC4014AE050E020
:1008400060E070E029E430E00E948D0D8091810726
:100850008823E1F310928107F5E1EF2EF12CEC0EE5
:10086000FD1E8AE0F70111928A95E9F78091CB0687
:1008700090E006970CF471C0E4E0CE2ED12CCA0CA7
:10088000DB1C00E00BC00F5F202F30E08091CB0617
:1008900090E00597281739070CF05FC0F5018081BB
:1008A0009181B7014AE050E00E94DD0CC601B7011A
:1008B0000E944214009739F781E08093800780E618
:1008C00090E0B6010E944214009709F44AC0C501A5
:1008D0000E945A00C601B4010E944B1489EC90E0BA
:1008E0000E94350F6BE0E62EF12CEC0EFD1EC701C9
:1008F0004AE050E060E070E029E430E00E948D0DB5
:10090000809181078823E1F3109281078501025FBE
:100910001F4FC801B7010E944B14D6010D90002053
:10092000E9F7AC19BD09F50180819181B601AD01EE
:100930000E94A00CD8010D900020E9F7A01BB10B7C
:10094000F50182819381B801AD010E94A00C86EF70
:1009500090E00E94350F81E009C0809180078823D4
:10096000C1F482EE90E00E94350F80E06E960FB6E3
:10097000F894DEBF0FBECDBFCF91DF911F910F91D5
:10098000FF90EF90DF90CF90BF90AF909F908F90AF
:10099000089574E0C72ED12CCA0CDB1C90CF8F9227
:1009A0009F92AF92BF92CF92DF92EF92FF920F93FE
:1009B0001F93DF93CF93CDB7DEB76E970FB6F89442
:1009C000DEBF0FBECDBF7C0182E191E00E94350FFA
:1009D000809182078A3009F41AC18AE06E01089476
:1009E000C11CD11CD601E82F1D92EA95E9F71BE046
:1009F000812E912C8C0E9D1ED4011D928A95E9F7B3
:100A000084EB90E00E94350FC6014AE050E060E0C0
:100A100070E029E430E00E948D0D809181078823E9
:100A2000E1F310928107D7011496EC911497F0E04E
:100A300010821596EC911597F0E010821696EC91C5
:100A40001697F0E010821796EC911797F0E010825D
:100A50001896EC911897F0E010821996EC9119977E
:100A6000F0E010821A96EC911A97F0E010821B9633
:100A7000EC911B97F0E010821C96EC911C97F0E033
:100A800010821D96EC911D97F0E010821E96EC915D
:100A90001E97F0E010821F96EC911F97F0E01082F5
:100AA0005096EC915097F0E010825196EC9151974E
:100AB000F0E010825296EC915297F0E0108253963B
:100AC000EC915397F0E010825496EC915497F0E03B
:100AD00010825596EC915597F0E010825696EC9165
:100AE0005697F0E010825796EC91F0E01082B4E057
:100AF000AB2EB12CAE0CBF1CC501B6010E944B142D
:100B0000A5E1CA2ED12CCC0EDD1E8AE0F601119291
:100B10008A95E9F78091CB0690E00697ACF100E06A
:100B20000AC00F5F202F30E08091CB0690E0059740
:100B3000281739074CF5D7018D919C91B6014AE0F1
:100B400050E00E94DD0CC501B6010E9442140097DE
:100B500041F781E08093800785E591E00E94350FA1
:100B600080E06E960FB6F894DEBF0FBECDBFCF917A
:100B7000DF911F910F91FF90EF90DF90CF90BF908A
:100B8000AF909F908F90089580918007882321F7E0
:100B900089EC90E00E94350FC4014AE050E060E02B
:100BA00070E029E430E00E948D0D80918107882358
:100BB000E1F3109281078701025F1F4FC801B40162
:100BC0000E944B14D5010D900020E9F7AA19BB092A
:100BD000F70180819181B501AD010E94A00CD8017F
:100BE0000D900020E9F7A01BB10BF70182819381E2
:100BF000B801AD010E94A00C8DE691E00E94350F76
:100C0000809182078F5F8093820781E0AACF80E383
:100C100091E00E94350F80E0A4CF81E080938307AC
:100C20000895E82FF0E0EE0FFF1FE95BF84F6081B9
:100C30007181625F7F4F8EE897E00E9442149C01B1
:100C400080E0232B09F481E00895609147077091BB
:100C500048076C5F7F4F84E897E00E94421400973A
:100C600091F16091490770914A076C5F7F4F84E86A
:100C700097E00E944214009741F160914B077091F8
:100C80004C076C5F7F4F84E897E00E944214009706
:100C9000F1F060914D0770914E076C5F7F4F84E8D3
:100CA00097E00E9442140097A1F060914F07709165
:100CB00050076C5F7F4F84E897E00E9442140097D2
:100CC00051F08FEF089580E0089581E0089582E06B
:100CD000089583E0089584E0089588E891E00E94F3
:100CE000350F8EE897E04AE050E060E070E02DE0DC
:100CF00036E00E948D0D809183078823E1F31092E6
:100D0000830708958BE991E00E94350F84E897E00E
:100D10004AE050E060E070E02DE036E00E948D0D8A
:100D2000809183078823E1F31092830708951F932E
:100D3000CF93DF938BE991E00E94350F84E897E031
:100D40004AE050E060E070E02DE036E00E948D0D5A
:100D5000809183078823E1F31092830788E891E06C
:100D60000E94350F8EE897E04AE050E060E070E0C6
:100D70002DE036E00E948D0D809183078823E1F3FA
:100D80001092830760914707709148076C5F7F4F0F
:100D900084E897E00E9442140097E9F160914907C6
:100DA00070914A076C5F7F4F84E897E00E9442147D
:100DB000009709F475C060914B0770914C076C5F08
:100DC0007F4F84E897E00E944214009709F46BC0BB
:100DD00060914D0770914E076C5F7F4F84E897E0FC
:100DE0000E944214009709F461C060914F0770910E
:100DF00050076C5F7F4F84E897E00E944214009791
:100E000009F457C08EEA91E00E94350F80E0DF912F
:100E1000CF911F91089560E070E010E0EB01CC0FDE
:100E2000DD1FC95BD84F68817981625F7F4F8EE893
:100E300097E00E944214009731F11F5F1330D1F008
:100E400081EC91E00E94350F88E891E00E94350F17
:100E50008EE897E04AE050E060E070E02DE036E098
:100E60000E948D0D809183078823E1F31092830700
:100E70001330C8F28AED91E00E94350F80E0DF91D7
:100E8000CF911F9108958CEE91E00E94350F88EF6D
:100E900091E00E94350F81E0DF91CF911F9108957D
:100EA00061E070E0BACF62E070E0B7CF63E070E07D
:100EB000B4CF64E070E0B1CF81E080939C070895E7
:100EC00080914707909148070E9475018BE092E05E
:100ED0000E94350F80E392E00E94350F8FE492E08C
:100EE0000E94350F8FE592E00E94350F80E792E077
:100EF0000E94350F83E892E00E94350F8FE892E060
:100F00000E94350F80919C07882389F010929C07DE
:100F100080919807823309F477C0833398F4813342
:100F200009F446C087E393E00E94350FD3CF88E9E8
:100F300097E041E050E060E070E02CE537E00E948F
:100F40008D0DE0CF833339F0843361F782E093E095
:100F50000E94350F08950E94FC0087EE92E00E94E7
:100F6000350F80919C07882371F48AE997E041E06E
:100F700050E060E070E02CE537E00E948D0D80913C
:100F80009C07882391F310929C0780919A078233E3
:100F900009F4A6C0833308F46CC0833309F491C00C
:100FA000843309F47AC08CEB92E00E94350F92CF23
:100FB0000E94FC0081EA92E00E94350F80919C071C
:100FC000882371F48AE997E041E050E060E070E046
:100FD0002CE537E00E948D0D80919C07882391F3CA
:100FE00010929C0780919A07823309F47EC0833364
:100FF00008F449C0833309F45AC08433A1F68FE260
:1010000097E00E94CF0466CF0E94FC008EEC92E035
:101010000E94350F80919C07882371F48AE997E03C
:1010200041E050E060E070E02CE537E00E948D0D7B
:1010300080919C07882391F310929C0780919A07D6
:10104000823309F457C0833350F0833359F184332A
:1010500009F0A9CF8FE297E00E94FC033BCF8033D9
:10106000D1F1813309F09FCF87EE96E00E94FC0317
:1010700031CF803359F1813309F095CF87EE96E077
:101080000E94BF0027CF8033B9F0813309F08BCFA6
:1010900087EE96E00E94CF041DCF8FE297E00E947A
:1010A000BF0018CF87E197E00E94FC0313CF87E1D0
:1010B00097E00E94CF040ECF8FEC96E00E94CF0401
:1010C00009CF87E197E00E94BF0004CF8FEC96E044
:1010D0000E94BF00FFCE8FEC96E00E94FC03FACE88
:1010E0008FEF96E00E94BF00F5CE8FEF96E00E9452
:1010F000CF04F0CE8FEF96E00E94FC03EBCE81E0B0
:1011000080939D0708950F931F93DF93CF9300D093
:1011100000D0CDB7DEB71A8219821C821B8283E50C
:1011200093E00E94350F8DE693E00E94350F8EE824
:1011300093E00E94350F8FEA93E00E94350F80ED17
:1011400093E00E94350F81EF93E00E94350F82E11A
:1011500094E00E94350F83E394E00E94350F84E50C
:1011600094E00E94350F85E794E00E94350F80914E
:101170009D07882381F48E010F5F1F4FC80141E056
:1011800050E060E070E02FE738E00E948D0D809124
:101190009D07882399F310929D078AE894E00E94A6
:1011A000350F80919D07882381F48E010D5F1F4FBD
:1011B000C80141E050E060E070E02FE738E00E94B5
:1011C0008D0D80919D07882399F310929D07898149
:1011D000833309F461C08433C0F0853309F442C01D
:1011E000853398F1863309F46FC0873309F460C002
:1011F00080E496E00E94350F0F900F900F900F90B3
:10120000CF91DF911F910F9108958133C1F1823306
:1012100068F08B81813309F463C086E697E00E9411
:10122000B00A82E395E00E94350FE6CF803301F7E4
:101230008B81813309F48AC08EE597E00E94B00A61
:101240008BEC94E00E94350FD7CF8B81813309F46A
:1012500086C08EE697E00E94B00A87E995E00E947A
:10126000350FCACF8B81813309F467C082E797E0DD
:101270000E94B00A87EC95E00E94350FBDCF8B81AC
:10128000813309F451C082E697E00E94B00A8DEFE5
:1012900094E00E94350FB0CF8B818133E1F18AE673
:1012A00097E00E94B00A87E695E00E94350FA4CF30
:1012B0008B81813339F18AE797E00E94B00A87E297
:1012C00096E00E94350F98CF8B81813391F086E7AD
:1012D00097E00E94B00A87EF95E00E94350F8CCF0F
:1012E00086E697E00E94C80A86E195E00E94350FE5
:1012F00083CF86E797E00E94C80A80EE95E00E94BF
:10130000350F7ACF8AE797E00E94C80A8FE096E00F
:101310000E94350F71CF8AE697E00E94C80A8FE4D9
:1013200095E00E94350F68CF82E697E00E94C80AD8
:1013300085EE94E00E94350F5FCF82E797E00E9430
:10134000C80A8FEA95E00E94350F56CF8EE597E0E8
:101350000E94C80A82EB94E00E94350F4DCF8EE6C2
:1013600097E00E94C80A80E895E00E94350F44CFBC
:1013700081E596E00E94350F0E9497068130C9F002
:1013800080E00E948D0A8BE597E00E94460D20E0E8
:1013900030E048EC50E0CA010197F1F72F5F3F4F72
:1013A00083EC20353807B9F78BE597E00E94340DC0
:1013B00008958AE50E948D0A20E030E048EC50E074
:1013C000CA010197F1F72F5F3F4F83EC20353807B3
:1013D000B9F780E00E948D0A0E94830808950E9458
:1013E000F5110E94B5108EE597E00E94E00A8BE5AA
:1013F00097E00E94580D0E94A50A80E00E948D0A85
:101400000E94ED110895EF92FF920F931F93DF93C7
:10141000CF9300D0CDB7DEB71A8219820E94EF09B0
:101420000E9460070E94EF090E94B8097E0108949B
:10143000E11CF11C08EC10E081E796E00E94350FFA
:101440008AE996E00E94350F82EB96E00E94350F04
:1014500088EC96E00E94350F80919D07882369F4FF
:10146000C70141E050E060E070E02FE738E00E9403
:101470008D0D80919D07882399F310929D07898196
:10148000813309F18233C1F681E596E00E94350F80
:101490000E949706813069F180E00E948D0A8BE5F9
:1014A00097E00E94460D20E030E0C8010197F1F777
:1014B0002F5F3F4F83EC20353807B9F78BE597E076
:1014C0000E94340DB9CF0E94F5110E94B5108EE52F
:1014D00097E00E94E00A8BE597E00E94580D0E9479
:1014E000A50A80E00E948D0A0E94ED110E9460070B
:1014F000A3CF8AE50E948D0A20E030E0C801019761
:10150000F1F72F5F3F4F83EC20353807B9F780E0C4
:101510000E948D0A0E9483088FCF90E0A0E0B0E087
:10152000BC01CD0120ED37E040E050E00E94011405
:1015300024EB30E040E050E00E942014DA01C901C1
:10154000895A9D4F0E94F01008950E94B5108FE1B6
:101550009EE40E94F61087E592E00E94F010089544
:10156000FC01009799F08281882321F0813041F0BD
:1015700083E008958081618141E00E949F12089577
:101580008081618140E00E949F12089582E0089569
:10159000FC01009799F08281882321F0813041F08D
:1015A00083E008958081618140E00E949F12089548
:1015B0008081618141E00E949F12089582E0089538
:1015C0000F931F93CF93DF938C01009709F454C1BD
:1015D000FC018081618141E00E943612F801828124
:1015E000882309F4E8C0813009F0D8C0F80183816C
:1015F000813009F447C1882309F0D0C0808161811E
:1016000040E00E949F12E8012496F80184816981DC
:1016100041E00E9436128A81882309F4B9C08130E2
:1016200009F0BCC08B81813009F4BEC0882309F069
:10163000B5C0F8018481698140E00E949F12E801F1
:101640002896F8018085698141E00E9436128A81DE
:10165000882309F4BCC0813009F0A0C08B8181309F
:1016600009F4BBC0882309F099C0F801808569811D
:1016700040E00E949F12E8012C96F8018485698160
:1016800041E00E9436128A81882309F4ADC081307E
:1016900009F084C08B81813009F4ACC0882309F043
:1016A0007DC0F8018485698140E00E949F12E801B5
:1016B0006096F8018089698141E00E9436128A8132
:1016C000882309F49EC0813009F068C08B81813085
:1016D00009F49DC0882309F061C0F80180896981FF
:1016E00040E00E949F12E8016496F80184896981B4
:1016F00041E00E9436128A81882309F48FC081302C
:1017000009F04CC08B81813009F48FC0882309F027
:1017100045C0F8018489698140E00E949F12E80178
:101720006896F801808D698141E00E9436128A81B5
:10173000882309F481C0813089F58B81813009F4D7
:1017400082C0882359F5F801808D698140E00E94AC
:101750009F12E8016C96F801848D698141E00E9436
:1017600036128A81882309F475C08130B9F48B81DF
:10177000813009F476C0882389F4F801848D698169
:1017800040E00E949F12DF91CF911F910F91089529
:101790008B81813009F44DCF882331F083E0DF91D4
:1017A000CF911F910F910895F8018481698141E0E3
:1017B0000E949F1244CF8381813009F465C0882341
:1017C00069F78081618141E00E949F121CCF8B816B
:1017D000813009F44ACF882309F7F80180856981AF
:1017E00041E00E949F1247CF8B81813009F459CF8D
:1017F0008823A1F6F8018485698141E00E949F1247
:1018000056CF8B81813009F468CF882339F6F801EF
:101810008089698141E00E949F1265CF8B81813070
:1018200009F477CF882309F0B9CFF8018489698159
:1018300041E00E949F1273CF8B81813009F483CFE6
:10184000882309F0ABCFF801808D698141E00E94C7
:101850009F127FCF8B81813009F48FCF882309F0CD
:101860009DCFF801848D698141E00E949F12DF9134
:10187000CF911F910F91089582E0DF91CF911F9139
:101880000F910895F8019DCFF8018081618140E0BA
:101890000E949F12B8CE1F93DF93CF930F92CDB7C4
:1018A000DEB7182F0E94AB0F80E50E94D00F812F6A
:1018B0000E94F80F0E94BF0F80E50E94E40FCE0146
:1018C00001960E9417100E9468100E94471089819B
:1018D0000F90CF91DF911F9108950F931F93182FB1
:1018E000062F0E94AB0F80E50E94D00F812F0E942F
:1018F000F80F802F0E94F80F0E94471080E29EE4AC
:101900000197F1F71F910F91089582E060E040E0A8
:101910000E94361282E061E040E00E94361282E0CE
:1019200060E040E00E949F1282E061E040E00E949F
:101930009F1280E00E94930F80EA0E94A20F0895F8
:10194000AF92BF92CF92DF92EF92FF920F931F93CD
:10195000CF93DF93082F5B016A014115510511F107
:10196000C0E0D0E080E2E82E8EE4F82EF501EC0F26
:10197000FD1F10810E94AB0F80E50E94D00F802FC9
:101980008C0F0E94F80F812F0E94F80F0E944710C1
:10199000C7010197F1F7C7010197F1F72196CC151F
:1019A000DD0520F3DF91CF911F910F91FF90EF9014
:1019B000DF90CF90BF90AF9008957F928F929F92CB
:1019C000AF92BF92CF92DF92EF92FF920F931F934D
:1019D000DF93CF930F92CDB7DEB7782E6B017A01EC
:1019E0004115510561F100E010E04E010894811CA1
:1019F000911C90E2A92E9EE4B92E0E94AB0F80E5C7
:101A00000E94D00F872D800F0E94F80F0E94BF0FF9
:101A100080E50E94E40FC4010E9417100E94681024
:101A20000E944710F601E00FF11F89818083C501F4
:101A30000197F1F70F5F1F4F0E151F05F0F20F9082
:101A4000CF91DF911F910F91FF90EF90DF90CF909A
:101A5000BF90AF909F908F907F900895FC01808100
:101A600061810E942A130895FC018281813041F036
:101A7000811108958081618141E00E949F12089543
:101A80008081618140E00E949F120895FC01828163
:101A9000813041F0811108958081618140E00E9490
:101AA0009F1208958081618141E00E949F120895F4
:101AB000FC018081618141E00E94361208955998AD
:101AC00010BC83E389B95898529886E880BD579A2C
:101AD000569A5598549A539A0895FC0180917E071E
:101AE000883011F087E008953097A9F061157105ED
:101AF00091F087E080937E07F0939F07E0939E0725
:101B00007093A1076093A0071092A50780818CB9FC
:101B1000569A81E0089582E00895BC0180917E0785
:101B2000883011F087E008956115710591F0211555
:101B3000310579F07093A3076093A2073093A10752
:101B40002093A0074093A4071092A507579A81E01D
:101B5000089582E00895569A0895579A08955698E0
:101B60000895579808951F920F920FB60F9211245F
:101B70002F933F934F935F936F937F938F939F9395
:101B8000AF93BF93EF93FF938091A507E091A207D6
:101B9000F091A307E80FF11D8CB180838D30D1F057
:101BA0009091A4078091A5078F5F8093A50789175F
:101BB000F9F0FF91EF91BF91AF919F918F917F913C
:101BC0006F915F914F913F912F910F900FBE0F90AA
:101BD0001F90189510829091A40791509093A5079B
:101BE0009F5F8091A5078F5F8093A507891709F7ED
:101BF0001092A50788E080937E07E091A007F091FE
:101C0000A10709955798D5CF1F920F920FB60F9243
:101C100011242F933F934F935F936F937F938F93F1
:101C20009F93AF93BF93EF93FF938091A5078F5F2F
:101C30008093A507E0919E07F0919F07E80FF11DA3
:101C4000E081EE2391F0ECB9FF91EF91BF91AF915C
:101C50009F918F917F916F915F914F913F912F91C4
:101C60000F900FBE0F901F9018951092A50788E057
:101C700080937E07E091A007F091A10709955698FF
:101C8000E3CF8CB15F9808951F93CF93DF93EC015E
:101C90001FB70E94F111209799F180917E0788303B
:101CA00039F097E01FBF892FDF91CF911F910895E1
:101CB0005F9917C080E090E0A0E0B0E008C08031FC
:101CC00027E2920720E0A20720E0B207B9F00196D0
:101CD000A11DB11D5F9BF3CF80519742A040B04042
:101CE00069F08CB188835F9891E088E080937E07EB
:101CF0001FBF892FDF91CF911F91089596E0F5CFF7
:101D000092E0D0CF0F931F93082F1FB70E94F111BD
:101D100080917E07883031F097E01FBF892F1F9197
:101D20000F9108958BB182958695877080FD17C0BD
:101D300080E090E0A0E0B0E008C0803127E29207A8
:101D400020E0A20720E0B207B9F00196A11DB11D65
:101D50005D9BF3CF80519742A040B04069F00CB931
:101D60005E9BFECF5E9A91E088E080937E071FBF66
:101D7000892F1F910F91089596E0F6CF7F928F9251
:101D80009F92AF92BF92CF92DF92EF92FF920F930A
:101D90001F93CF93DF935A016B01009709F44EC054
:101DA000411551056105710509F45DC0EC01EE2492
:101DB000FF24870197E0892E88E0782E14C098814F
:101DC00087E09FBE9A30D9F19D30C9F18130B9F5D5
:101DD0000894E11CF11C011D111D2196EA14FB045D
:101DE0000C051D0560F59FB60E94F1112097C1F109
:101DF00080917E07883019F780927E075F9917C01F
:101E000080E090E0A0E0B0E008C0803127E29207D7
:101E100020E0A20720E0B20701F10196A11DB11D4B
:101E20005F9BF3CF80519742A040B040B1F09CB18E
:101E300098835F9881E070927E07C3CF82E0DF9144
:101E4000CF911F910F91FF90EF90DF90CF90BF90B7
:101E5000AF909F908F907F900895988186E0EBCF10
:101E6000988182E0AECF81E0EACFEF92FF920F93AC
:101E70001F93CF93DF93FC01009709F44CC01081AE
:101E80001123D9F1EC0137E0F32E28E0E22E0FB751
:101E90000E94F11180917E07883049F00FBF87E0E2
:101EA000DF91CF911F910F91FF90EF900895F092E5
:101EB0007E075D9917C080E090E0A0E0B0E008C028
:101EC000803127E2920720E0A20720E0B207B9F0B4
:101ED0000196A11DB11D5D9BF3CF80519742A0409B
:101EE000B04069F01CB95E9BFECF5E9AE0927E071F
:101EF0000FBF19812196112351F681E0D1CF88E0DF
:101F000080937E070FBF86E0DF91CF911F910F91E5
:101F1000FF90EF90089582E0DF91CF911F910F9194
:101F2000FF90EF900895982F82E080B911B899231F
:101F300011F0990F92B986B7806486BF86B7846026
:101F400086BF0895880F82B986B7806486BF86B73A
:101F5000846086BF089586B7806286BF86B7806832
:101F600086BF86B7846086BF06B607FEFDCF81B107
:101F7000887F883011F088E0089582E0089586B760
:101F8000806286BF86B7806886BF06B607FEFDCF33
:101F900081B1887F803111F087E0089582E0089553
:101FA000880F83B9189886B78F7D86BF86B78068FB
:101FB00086BF06B607FEFDCF81B1887F883111F05C
:101FC00086E0089582E00895880F83B9189A86B74D
:101FD0008F7D86BF86B7806886BF06B607FEFDCFB9
:101FE00081B1887F803411F085E0089582E0089502
:101FF00083B986B7806886BF06B607FEFDCF81B17C
:10200000887F883211F084E0089582E00895FC0111
:1020100084E886BF06B607FEFDCF81B1887F803594
:1020200011F080E0089583B1808382E00895FC017F
:1020300084EC86BF06B607FEFDCF81B1887F803570
:1020400011F080E0089583B1808382E0089583B920
:1020500086B7806886BF06B607FEFDCF81B1887F50
:10206000883B11F081E0089582E00895FC0186B775
:10207000806886BF06B607FEFDCF81B1887F8038B5
:1020800011F083E0089583B1808382E0089586B7DC
:10209000806186BF86B7806886BF089586B78F7BCC
:1020A00086BF089586B78B7F86BF089586B7806404
:1020B00086BF089586B7846086BF089586B780641A
:1020C00086BF86B7806886BF06B607FEFDCF089537
:1020D00086B78F7B86BF86B7806886BF06B607FE49
:1020E000FDCF0895982F86B7806286BF86B7806837
:1020F00086BF86B7846086BF06B607FEFDCF81B176
:10210000887F883011F088E00895990F93B9189866
:1021100086B78F7D86BF86B7806886BF06B607FE06
:10212000FDCF81B1887F883111F086E00895442386
:10213000A1F0FB01808183B986B7806886BF06B6AF
:1021400007FEFDCF81B1887F883211F084E00895C9
:1021500031968E2F861B841768F386B7806186BF01
:1021600086B7806886BF82E008958FB58E7F8FBD69
:102170008FB582608FBD8EB588608EBD8EB5806153
:102180008EBD8CEB92E09BBD8ABD19BC18BC80E271
:102190009EE497BD86BD8EB580648EBD8FB58F7B66
:1021A0008FBD8FB580688FBD8FB58F7E8FBD8FB58A
:1021B00080628FBD89B78B7F89BF89B78F7E89BFCA
:1021C00089B7877F89BF89B78F7D89BF8EB5887FA3
:1021D0008EBD8EB582608EBD08959DBD8CBD089567
:1021E0009BBD8ABD089599BD88BD089597BD86BDE4
:1021F00008952CB53DB5C90108959BBD8ABD0895CC
:102200008EB58F7B8EBD89B7806289BF089581307E
:1022100049F0882329F48EB58F7B8EBD81E0089527
:1022200080E008958EB580648EBD81E0089589B701
:10223000806289BF089589B78F7D89BF089589B766
:10224000846089BF089589B78B7F89BF089589B756
:10225000806189BF089589B78F7E89BF089589B746
:10226000886089BF089589B7877F89BF089526B59B
:1022700037B5C9010895009751F0E62FF0E0EE0F51
:10228000FF1FEA55F84F9183808381E0089582E033
:1022900008951F920F920FB60F9211242F933F9320
:1022A0004F935F936F937F938F939F93AF93BF935E
:1022B000EF93FF93E091B807F091B907309709F0D9
:1022C0000995FF91EF91BF91AF919F918F917F9170
:1022D0006F915F914F913F912F910F900FBE0F9093
:1022E0001F9018951F920F920FB60F9211242F93E3
:1022F0003F934F935F936F937F938F939F93AF938E
:10230000BF93EF93FF93E091B607F091B707309733
:1023100009F00995FF91EF91BF91AF919F918F9136
:102320007F916F915F914F913F912F910F900FBED1
:102330000F901F9018951F920F920FB60F921124B5
:102340002F933F934F935F936F937F938F939F93BD
:10235000AF93BF93EF93FF93E091B407F091B5076C
:10236000309709F00995FF91EF91BF91AF919F913F
:102370008F917F916F915F914F913F912F910F902E
:102380000FBE0F901F9018951F920F920FB60F92CD
:1023900011242F933F934F935F936F937F938F936A
:1023A0009F93AF93BF93EF93FF93E091B207F091A8
:1023B000B307309709F00995FF91EF91BF91AF9165
:1023C0009F918F917F916F915F914F913F912F914D
:1023D0000F900FBE0F901F9018958FB780688FBF1A
:1023E00008958FB78F778FBF08958FEF8ABB87BB14
:1023F0008CEF84BB8EEF81BB1BBA18BA15BA12BA28
:1024000081E00895843050F4813069F0813040F0EB
:10241000823079F0833051F081E0089583E00895AF
:102420006ABB81E0089567BB81E0089561BB81E0EC
:10243000089564BB81E00895843050F4813069F0E0
:10244000813040F0823079F0833051F081E008959E
:1024500083E008956BBB81E0089568BB81E0089537
:1024600062BB81E0089565BB81E00895843020F46B
:10247000683010F4423010F083E00895813009F4A0
:1024800048C08130B0F48AB321E030E0062E02C0AB
:10249000220F331F0A94E2F720952823842F90E01F
:1024A00002C0880F991F6A95E2F7282B2ABB81E0AA
:1024B00008958230C1F08330A1F481B321E030E08F
:1024C000062E02C0220F331F0A94E2F7209528231C
:1024D000842F90E002C0880F991F6A95E2F7282B9D
:1024E00021BB81E0089584B321E030E0062E02C0D4
:1024F000220F331F0A94E2F720952823842F90E0BF
:1025000002C0880F991F6A95E2F7282B24BB81E04F
:10251000089587B321E030E0062E02C0220F331F5A
:102520000A94E2F720952823842F90E002C0880FB8
:10253000991F6A95E2F7282B27BB81E00895843024
:1025400020F4683010F4423010F083E008958130B8
:1025500009F448C08130B0F48BB321E030E0062E9E
:1025600002C0220F331F0A94E2F720952823842FFC
:1025700090E002C0880F991F6A95E2F7282B2BBBC9
:1025800081E008958230C1F08330A1F482B321E06C
:1025900030E0062E02C0220F331F0A94E2F7209586
:1025A0002823842F90E002C0880F991F6A95E2F7D4
:1025B000282B22BB81E0089585B321E030E0062E70
:1025C00002C0220F331F0A94E2F720952823842F9C
:1025D00090E002C0880F991F6A95E2F7282B25BB6F
:1025E00081E0089588B321E030E0062E02C0220F7A
:1025F000331F0A94E2F720952823842F90E002C02D
:10260000880F991F6A95E2F7282B28BB81E008956F
:10261000843050F4813079F0813040F08230A9F07C
:10262000833071F081E0089583E008958BB3809545
:102630008BBB81E0089588B3809588BB81E00895C5
:1026400082B3809582BB81E0089585B3809585BB78
:1026500081E008958430B0F46830A0F4813061F1F5
:10266000813090F08230E1F0833051F422B381E088
:1026700090E002C0880F991F6A95E2F7282722BBD5
:1026800081E0089583E008952BB381E090E002C0DB
:10269000880F991F6A95E2F728272BBB81E00895E0
:1026A00025B381E090E002C0880F991F6A95E2F798
:1026B000282725BB81E0089528B381E090E002C07F
:1026C000880F991F6A95E2F7282728BB81E00895B3
:1026D000FB0161157105E9F0843050F48130A9F0F7
:1026E000813040F0823071F0833041F081E0089514
:1026F00083E0089589B3808381E0089580B3808367
:1027000081E0089583B38083F1CF86B3808381E035
:10271000089582E00895FA0141155105D9F08430F9
:1027200060F4683050F48130B9F0813040F082308C
:10273000B9F0833099F081E0089583E0089589B37A
:1027400090E002C0959587956A95E2F78170808345
:1027500081E0089582E0089586B3F2CF80B3F0CF90
:1027600083B3EECF843060F46295607F813081F076
:10277000813040F08230C1F0833081F081E00895F3
:1027800083E008958BB38F70682B6BBB81E0089555
:1027900088B38F70682B68BB81E0089582B38F7017
:1027A000682B62BB81E0089585B38F70682B65BB91
:1027B00081E00895843058F46F70813081F0813069
:1027C00040F08230C1F0833081F081E0089583E0F1
:1027D00008958BB3807F682B6BBB81E0089588B32D
:1027E000807F682B68BB81E0089582B3807F682B6F
:1027F00062BB81E0089585B3807F682B65BB81E073
:102800000895629FD001739FF001829FE00DF11D3A
:10281000649FE00DF11D929FF00D839FF00D749F5A
:10282000F00D659FF00D9927729FB00DE11DF91F06
:10283000639FB00DE11DF91FBD01CF011124089563
:10284000A1E21A2EAA1BBB1BFD010DC0AA1FBB1FB4
:10285000EE1FFF1FA217B307E407F50720F0A21B26
:10286000B30BE40BF50B661F771F881F991F1A9493
:1028700069F760957095809590959B01AC01BD01BD
:10288000CF010895FB01DC018D91019080190110A9
:10289000D9F3990B0895FB01DC0101900D92002002
:0828A000E1F70895F894FFCF61
:1028A80046524545000A0D557365722052656D6F95
:1028B800766564205375636365737366756C6C79AC
:1028C80020000A0D00202D2055736572204E616D81
:1028D80065203A2020200059000A0D3D3D3D3D3D30
:1028E8002045646974696E672055736572203D3DA3
:1028F8003D3D3D000A0D456E746572205573657245
:10290800204E616D65203A20000A0D456E7465728F
:1029180020557365722050617373776F7264203A23
:1029280020000A0D55736572204973204E6F74207C
:102938004578697374000A0D55736572204564699A
:10294800746564205375636365737366756C6C791D
:1029580020000A0D3D3D3D3D3D20416464696E67A0
:10296800204E65772055736572203D3D3D3D3D0005
:102978000A0D20596F752052656163682054686597
:10298800204D6178204E756D626572204F66205526
:1029980073657273000A0D5573657220497320417F
:1029A8006C7265616479204578697374000A0D5505
:1029B800736572204164646564205375636365734D
:1029C8007366756C6C7920000A0D20656E746572EB
:1029D80020796F75722070617373000A0D20656E1F
:1029E80074657220796F7572206E616D65000A0DCD
:1029F8002075736572206E6F7420666F756E642023
:102A0800000A0D3D3D3D3D3D2057726F6E672070B9
:102A1800617373203D3D3D3D3D000A0D20416363D8
:102A28006573732044656E69656420000A0D20573C
:102A3800656C636F6D6520000A0D204163636573E3
:102A480073204772616E74656420000A0D3D3D3D38
:102A58003D3D2055736572204D616E6167656D65FA
:102A68006E742053797374656D203D3D3D3D3D0086
:102A78000A0D3D3D3D3D3D2043686F6F7365204F16
:102A88007065726174696F6E203D3D3D3D3D000A81
:102A98000D31202D20416464205573657220000A91
:102AA8000D32202D2045646974205573657220000D
:102AB8000A0D33202D2052656D6F7665205573659C
:102AC8007220000A0D34202D204578697420000AF0
:102AD8000D456E7465722043686F696365203A20FE
:102AE800000A0D43686F6F7365204672656520554F
:102AF80073657220536C6F74203A20000A0D577268
:102B08006F6E6720456E747279210A0D20000A0DD8
:102B180043686F6F7365205573657220546F204545
:102B2800646974203A20000A0D43686F6F7365204A
:102B38005573657220546F2052656D6F7665203A23
:102B480020000A0D3D3D3D3D3D20506C656173659B
:102B58002057616974205768696C652053617669EC
:102B68006E6720596F75722044617461203D3D3D48
:102B78003D3D0D0A0D0A000A0D57726F6E6720431E
:102B8800686F6963652054727920416761696E20B6
:102B98003A20000A0D3D3D3D3D3D204C4544204333
:102BA8006F6E74726F6C203D3D3D3D3D000A0D3DDA
:102BB8003D3D3D3D20302D204C4544204261746808
:102BC800726F6F6D202020203D3D3D3D3D000A0D78
:102BD8003D3D3D3D3D20312D204C4544204B697401
:102BE8006368656E20202020203D3D3D3D3D000A64
:102BF8000D3D3D3D3D3D20322D204C4544204C6946
:102C080076696E6720526F6F6D203D3D3D3D3D00FA
:102C18000A0D3D3D3D3D3D20332D204C454420428D
:102C28006564726F6F6D20202020203D3D3D3D3D45
:102C3800000A0D3D3D3D3D3D20342D204C454420AE
:102C48004761726167652020202020203D3D3D3D81
:102C58003D000A0D3D3D3D3D3D20352D204C454470
:102C68002048616C6C77617920202020203D3D3D13
:102C78003D3D000A0D3D3D3D3D3D20362D204C4556
:102C8800442047617264656E2020202020203D3D4D
:102C98003D3D3D000A0D3D3D3D3D3D20372D204C3D
:102CA80045442042616C636F6E7920202020203DCE
:102CB8003D3D3D3D000A0D456E746572204C45440E
:102CC800206E756D6265723A20000A0D456E746556
:102CD80072203120746F205475726E204F4E206F11
:102CE80072203020746F205475726E204F46463A19
:102CF80020000A0D4C45442042617468726F6F6D64
:102D0800206973206E6F77204F4E000A0D4C4544A2
:102D18002042617468726F6F6D206973206E6F77DF
:102D2800204F4646000A0D4C4544204B69746368A1
:102D3800656E206973206E6F77204F4E000A0D4C28
:102D48004544204B69746368656E206973206E6F13
:102D580077204F4646000A0D4C4544204C69766959
:102D68006E6720526F6F6D206973206E6F77204FEA
:102D78004E000A0D4C4544204C6976696E67205216
:102D88006F6F6D206973206E6F77204F4646000A7B
:102D98000D4C454420426564726F6F6D2069732045
:102DA8006E6F77204F4E000A0D4C454420426564F3
:102DB800726F6F6D206973206E6F77204F464600E3
:102DC8000A0D4C454420476172616765206973208C
:102DD8006E6F77204F4E000A0D4C454420476172B4
:102DE800616765206973206E6F77204F4646000A39
:102DF8000D4C45442048616C6C77617920697320DB
:102E08006E6F77204F4E000A0D4C45442048616C88
:102E18006C776179206973206E6F77204F46460082
:102E28000A0D4C45442047617264656E2069732021
:102E38006E6F77204F4E000A0D4C45442047617253
:102E480064656E206973206E6F77204F4646000ACE
:102E58000D4C45442042616C636F6E792069732084
:102E68006E6F77204F4E000A0D4C45442042616C2E
:102E7800636F6E79206973206E6F77204F46460026
:102E88000A0D496E76616C69642043686F696365F1
:102E9800000A0D3D3D3D3D3D2057656C636F6D65F6
:102EA8002055736572204D6F6465203D3D3D3D3D65
:102EB800000A0D3D3D3D3D3D2063686F6963652017
:102EC8006D6173746572206F722075736572206D01
:102ED8006F6465203D3D3D3D3D000A0D3D3D3D3D56
:102EE8003D20312D204D6173746572203D3D3D3D7F
:102EF8003D000A0D3D3D3D3D3D20322D2055736579
:102F080072203D3D3D3D3D000A0D000A59F000008C
:102F18000018004652454500000000000046524592
:102F280045000000000000300048004652454500BA
:102F38000000000000465245450000000000006007
:102F48000078004652454500000000000046524502
:102F5800450000000000009000A8004652454500CA
:102F6800000000000046524545000000000000C077
:102F780000D8004652454500000000000046524572
:102F880045000000000000CF06E706FF0617072FE0
:102F9800070000000000000000000002030101001B
:102FA8000100010101000102010001030100010407
:102FB80001000105010001060100010701000800E8
:00000001FF
