:100000000C942A000C948A040C94BD040C94F00403
:100010000C9447000C9447000C9447000C94470044
:100020000C9447000C9447000C9447000C94470034
:100030000C9447000C9447000C9447000C94470024
:100040000C9447000C9447000C9447000C94470014
:100050000C94470011241FBECFE5D8E0DEBFCDBF12
:1000600010E0A0E6B0E0ECE3F5E102C005900D92EF
:10007000A836B107D9F710E0A8E6B0E001C01D929C
:10008000AF36B107E1F70E9449000C949C0A0C942A
:100090000000DF93CF93CDB7DEB783E690E00E94F8
:1000A000250180E690E00E94830080E062E00E94EB
:1000B000820380E00E9414032AE630E080E0B90168
:1000C0000E94DB027894809168008823E1F70E9407
:1000D0007800F9CFDF93CF93CDB7DEB783E690E01A
:1000E0000E94650281E080936800CF91DF910895BE
:1000F000DF93CF93CDB7DEB783E690E00E94A002F6
:10010000CF91DF910895DF93CF9300D000D0CDB78A
:10011000DEB79C838B831A828B819C81009709F4C4
:100120005DC01982198255C08981282F30E0C9012C
:10013000880F991F280F391F8B819C81FC01E20FCA
:10014000F31F40818981282F30E0C901880F991F52
:10015000280F391F8B819C81FC01E20FF31F9181D5
:10016000842F692F40E00E94E7058A838981282F28
:1001700030E0C901880F991F280F391F8B819C819E
:10018000FC01E20FF31F50818981282F30E0C90163
:10019000880F991F280F391F8B819C81FC01E20F6A
:1001A000F31F41818981282F30E0C901880F991FF1
:1001B000280F391F8B819C81FC01E20FF31F928174
:1001C000852F642F492F0E94D3068A8389818F5FF0
:1001D00089838981882309F4A7CF02C082E08A83BA
:1001E0008A810F900F900F900F90CF91DF9108951B
:1001F000DF93CF9300D000D00F92CDB7DEB79B83B3
:100200008A837D836C8319828A819B81009791F018
:100210008C819D81009771F0EA81FB818081EA8168
:10022000FB8191812C813D81692FA9010E940309E5
:10023000898302C082E0898389810F900F900F909B
:100240000F900F90CF91DF910895DF93CF9300D05F
:1002500000D00F92CDB7DEB79C838B831A828B813F
:100260009C81009709F424C1198219821CC18981DB
:10027000882F90E09C01220F331F220F331F8B81A8
:100280009C81FC01E20FF31F40818981882F90E05F
:100290009C01220F331F220F331F8B819C81FC0195
:1002A000E20FF31F9181842F692F41E00E94E7053F
:1002B0008A838981882F90E09C01220F331F220FAF
:1002C000331F8B819C81FC01E20FF31F8281882305
:1002D00009F069C08981882F90E09C01220F331FAB
:1002E000220F331F8B819C81FC01E20FF31F83815E
:1002F000813019F58981882F90E09C01220F331FEE
:10030000220F331F8B819C81FC01E20FF31F408180
:100310008981882F90E09C01220F331F220F331F09
:100320008B819C81FC01E20FF31F9181842F692F47
:1003300040E00E94D3068A83B3C08981882F90E071
:100340009C01220F331F220F331F8B819C81FC01E4
:10035000E20FF31F8381882319F58981882F90E0AC
:100360009C01220F331F220F331F8B819C81FC01C4
:10037000E20FF31F40818981882F90E09C01220FBA
:10038000331F220F331F8B819C81FC01E20FF31F6F
:100390009181842F692F41E00E94D3068A8380C017
:1003A00083E08D8389C08981882F90E09C01220F92
:1003B000331F220F331F8B819C81FC01E20FF31F3F
:1003C0008281813009F069C08981882F90E09C0189
:1003D000220F331F220F331F8B819C81FC01E20F00
:1003E000F31F8381813019F58981882F90E09C016A
:1003F000220F331F220F331F8B819C81FC01E20FE0
:10040000F31F40818981882F90E09C01220F331FC8
:10041000220F331F8B819C81FC01E20FF31F91811E
:10042000842F692F41E00E94D3068A8339C08981D5
:10043000882F90E09C01220F331F220F331F8B81E6
:100440009C81FC01E20FF31F8381882319F58981C8
:10045000882F90E09C01220F331F220F331F8B81C6
:100460009C81FC01E20FF31F40818981882F90E07D
:100470009C01220F331F220F331F8B819C81FC01B3
:10048000E20FF31F9181842F692F40E00E94D30671
:100490008A8306C083E08D830FC083E08D830CC008
:1004A00089818F5F89838981882309F4E0CE02C026
:1004B00082E08A838A818D838D810F900F900F90C7
:1004C0000F900F90CF91DF910895DF93CF9300D0DD
:1004D0000F92CDB7DEB79B838A8319828A819B8175
:1004E000009729F1EA81FB818281882361F4EA8106
:1004F000FB818081EA81FB819181692F40E00E942C
:10050000D306898316C0EA81FB818281813061F440
:10051000EA81FB818081EA81FB819181692F41E041
:100520000E94D306898305C083E0898302C082E0EC
:10053000898389810F900F900F90CF91DF9108955B
:10054000DF93CF9300D00F92CDB7DEB79B838A8322
:1005500019828A819B81009729F1EA81FB8182813E
:10056000882361F4EA81FB818081EA81FB819181AA
:10057000692F41E00E94D306898316C0EA81FB817E
:100580008281813061F4EA81FB818081EA81FB8193
:100590009181692F40E00E94D306898305C083E0E2
:1005A000898302C082E0898389810F900F900F9028
:1005B000CF91DF910895DF93CF9300D000D00F92B9
:1005C000CDB7DEB789837B836A838981282F30E0AA
:1005D0003D832C838C819D818130910581F02C811C
:1005E0003D812230310591F08C819D810097A1F4ED
:1005F0008A819B8190936A00809369000DC08A81F3
:100600009B8190936C0080936B0006C08A819B81D4
:1006100090936E0080936D000F900F900F900F904D
:100620000F90CF91DF910895DF93CF9300D00F9279
:10063000CDB7DEB789838981282F30E03B832A83B9
:100640008A819B818130910589F02A813B8122300A
:100650003105A1F08A819B810097B9F4ABE5B0E048
:10066000EBE5F0E0808180648C930FC0ABE5B0E0F7
:10067000EBE5F0E0808180688C9307C0ABE5B0E0EB
:10068000EBE5F0E0808180628C930F900F900F90EB
:10069000CF91DF910895DF93CF9300D00F92CDB724
:1006A000DEB789838981282F30E03B832A838A81C2
:1006B0009B818130910589F02A813B81223031056F
:1006C000A1F08A819B810097B9F4ABE5B0E0EBE53E
:1006D000F0E080818F7B8C930FC0ABE5B0E0EBE561
:1006E000F0E080818F778C9307C0ABE5B0E0EBE55D
:1006F000F0E080818F7D8C930F900F900F90CF91C1
:10070000DF910895DF93CF93CDB7DEB72A970FB669
:10071000F894DEBF0FBECDBF89836A838981282FFD
:1007200030E03A87298789859A858130910509F4D7
:1007300066C029853A852230310509F4BBC0898518
:100740009A85009709F0DDC08A81282F30E038872C
:100750002F838F8198858130910521F12F813885F4
:10076000223031052CF48F819885009761F0C9C043
:100770002F8138852230310521F18F819885833092
:10078000910571F1BEC0A5E5B0E0E5E5F0E080813E
:100790008E7F8C93A5E5B0E0E5E5F0E080818D7F6C
:1007A0008C93AFC0A5E5B0E0E5E5F0E08081816025
:1007B0008C93A5E5B0E0E5E5F0E080818D7F8C933A
:1007C000A0C0A5E5B0E0E5E5F0E080818E7F8C93E8
:1007D000A5E5B0E0E5E5F0E0808182608C9391C012
:1007E000A5E5B0E0E5E5F0E0808181608C93A5E5CA
:1007F000B0E0E5E5F0E0808182608C9382C08A8180
:10080000282F30E03E832D838D819E81813091059C
:1008100021F12D813E81223031052CF48D819E8184
:10082000009761F06EC02D813E812230310521F1AB
:100830008D819E818330910571F163C0A5E5B0E0A3
:10084000E5E5F0E080818B7F8C93A5E5B0E0E5E500
:10085000F0E08081877F8C9354C0A5E5B0E0E5E5AA
:10086000F0E0808184608C93A5E5B0E0E5E5F0E000
:100870008081877F8C9345C0A5E5B0E0E5E5F0E099
:1008800080818B7F8C93A5E5B0E0E5E5F0E0808189
:1008900088608C9336C0A5E5B0E0E5E5F0E08081A6
:1008A00084608C93A5E5B0E0E5E5F0E080818860A8
:1008B0008C9327C08A81282F30E03C832B838B8147
:1008C0009C818230910531F02B813C8123303105B0
:1008D00049F010C0A4E5B0E0E4E5F0E080818F7B52
:1008E0008C930FC0A4E5B0E0E4E5F0E08081806483
:1008F0008C9307C0A4E5B0E0E4E5F0E080818F7B55
:100900008C932A960FB6F894DEBF0FBECDBFCF9161
:10091000DF9108951F920F920FB60F9211242F931B
:100920003F934F935F936F937F938F939F93AF9377
:10093000BF93EF93FF93DF93CF93CDB7DEB7809153
:10094000690090916A00009729F0E0916900F091A8
:100950006A000995CF91DF91FF91EF91BF91AF911F
:100960009F918F917F916F915F914F913F912F91C7
:100970000F900FBE0F901F9018951F920F920FB6F9
:100980000F9211242F933F934F935F936F937F9315
:100990008F939F93AF93BF93EF93FF93DF93CF9387
:1009A000CDB7DEB780916B0090916C00009729F075
:1009B000E0916B00F0916C000995CF91DF91FF9170
:1009C000EF91BF91AF919F918F917F916F915F91C7
:1009D0004F913F912F910F900FBE0F901F90189540
:1009E0001F920F920FB60F9211242F933F934F93A4
:1009F0005F936F937F938F939F93AF93BF93EF9387
:100A0000FF93DF93CF93CDB7DEB780916D009091C8
:100A10006E00009729F0E0916D00F0916E0009954D
:100A2000CF91DF91FF91EF91BF91AF919F918F9106
:100A30007F916F915F914F913F912F910F900FBEDA
:100A40000F901F901895DF93CF930F92CDB7DEB71D
:100A50001982EAE3F0E080EF8083E7E3F0E08FEFD4
:100A60008083E4E3F0E08FEF8083E1E3F0E08BEF5D
:100A70008083EBE3F0E08FEF8083E8E3F0E0108227
:100A8000E5E3F0E01082E2E3F0E0108281E08983A8
:100A900089810F90CF91DF910895DF93CF9300D09C
:100AA00000D00F92CDB7DEB78A836B8319828A811B
:100AB0008430A8F58A81282F30E03D832C838C81F7
:100AC0009D8181309105D1F02C813D81223031050D
:100AD0002CF48C819D81009761F01EC02C813D819A
:100AE0002230310581F08C819D818330910581F028
:100AF00013C0EAE3F0E08B8180830EC0E7E3F0E00F
:100B00008B81808309C0E4E3F0E08B81808304C0A3
:100B1000E1E3F0E08B81808381E0898302C083E0A0
:100B2000898389810F900F900F900F900F90CF9134
:100B3000DF910895DF93CF9300D000D00F92CDB70F
:100B4000DEB78A836B8319828A818430A8F58A8113
:100B5000282F30E03D832C838C819D81813091054D
:100B6000D1F02C813D81223031052CF48C819D8186
:100B7000009761F01EC02C813D812230310581F04B
:100B80008C819D818330910581F013C0EBE3F0E00F
:100B90008B8180830EC0E8E3F0E08B81808309C005
:100BA000E5E3F0E08B81808304C0E2E3F0E08B8139
:100BB000808381E0898302C083E0898389810F90EB
:100BC0000F900F900F900F90CF91DF910895DF93CA
:100BD000CF9300D000D000D0CDB7DEB78A836B832F
:100BE0004C8319828A81843008F0D1C08B8188308F
:100BF00008F0CDC08C81823008F0C9C08A81282FCE
:100C000030E03E832D836D817E816130710509F472
:100C100041C08D819E818230910534F42D813E81C9
:100C20002115310571F0B0C06D817E816230710592
:100C300009F459C08D819E818330910509F47CC0EF
:100C4000A3C0AAE3B0E0EAE3F0E08081482F8B8103
:100C5000282F30E081E090E002C0880F991F2A958C
:100C6000E2F7809584238C93AAE3B0E0EAE3F0E016
:100C70008081482F8C81282F30E08B81882F90E055
:100C8000B90102C0660F771F8A95E2F7CB01842B6A
:100C90008C937AC0A7E3B0E0E7E3F0E08081482FCF
:100CA0008B81282F30E081E090E002C0880F991FEF
:100CB0002A95E2F7809584238C93A7E3B0E0E7E3DD
:100CC000F0E08081482F8C81282F30E08B81882FA5
:100CD00090E0B90102C0660F771F8A95E2F7CB0159
:100CE000842B8C9351C0A4E3B0E0E4E3F0E0808176
:100CF000482F8B81282F30E081E090E002C0880FE0
:100D0000991F2A95E2F7809584238C93A4E3B0E0A1
:100D1000E4E3F0E08081482F8C81282F30E08B8144
:100D2000882F90E0B90102C0660F771F8A95E2F71D
:100D3000CB01842B8C9328C0A1E3B0E0E1E3F0E089
:100D40008081482F8B81282F30E081E090E002C025
:100D5000880F991F2A95E2F7809584238C93A1E34D
:100D6000B0E0E1E3F0E08081482F8C81282F30E073
:100D70008B81882F90E0B90102C0660F771F8A959A
:100D8000E2F7CB01842B8C9381E0898302C083E05E
:100D90008983898126960FB6F894DEBF0FBECDBF3A
:100DA000CF91DF910895DF93CF9300D000D000D092
:100DB000CDB7DEB78A836B834C8319828A818430F6
:100DC00008F0D1C08B81883008F0CDC08C81823092
:100DD00008F0C9C08A81282F30E03E832D836D81C1
:100DE0007E816130710509F441C08D819E81823020
:100DF000910534F42D813E812115310571F0B0C08B
:100E00006D817E816230710509F459C08D819E81AA
:100E10008330910509F47CC0A3C0ABE3B0E0EBE301
:100E2000F0E08081482F8B81282F30E081E090E036
:100E300002C0880F991F2A95E2F7809584238C932E
:100E4000ABE3B0E0EBE3F0E08081482F8C81282F0A
:100E500030E08B81882F90E0B90102C0660F771FC8
:100E60008A95E2F7CB01842B8C937AC0A8E3B0E09B
:100E7000E8E3F0E08081482F8B81282F30E081E08B
:100E800090E002C0880F991F2A95E2F7809584238D
:100E90008C93A8E3B0E0E8E3F0E08081482F8C81F8
:100EA000282F30E08B81882F90E0B90102C0660FB7
:100EB000771F8A95E2F7CB01842B8C9351C0A5E371
:100EC000B0E0E5E3F0E08081482F8B81282F30E00F
:100ED00081E090E002C0880F991F2A95E2F7809583
:100EE00084238C93A5E3B0E0E5E3F0E08081482F14
:100EF0008C81282F30E08B81882F90E0B90102C0CF
:100F0000660F771F8A95E2F7CB01842B8C9328C05C
:100F1000A2E3B0E0E2E3F0E08081482F8B81282F4C
:100F200030E081E090E002C0880F991F2A95E2F737
:100F3000809584238C93A2E3B0E0E2E3F0E080812B
:100F4000482F8C81282F30E08B81882F90E0B901C9
:100F500002C0660F771F8A95E2F7CB01842B8C9332
:100F600081E0898302C083E08983898126960FB658
:100F7000F894DEBF0FBECDBFCF91DF910895DF9310
:100F8000CF9300D000D0CDB7DEB78A8319828A8193
:100F9000843008F041C08A81282F30E03C832B83C5
:100FA0008B819C8181309105E9F02B813C8122303D
:100FB00031052CF48B819C81009761F02AC02B8134
:100FC0003C8122303105B1F08B819C8183309105C9
:100FD000C9F01FC0ABE3B0E0EBE3F0E080818095A7
:100FE0008C9317C0A8E3B0E0E8E3F0E0808180953F
:100FF0008C930FC0A5E3B0E0E5E3F0E0808180953D
:101000008C9307C0A2E3B0E0E2E3F0E0808180953A
:101010008C9381E0898302C083E0898389810F906A
:101020000F900F900F90CF91DF910895DF93CF93A2
:1010300000D000D00F92CDB7DEB78A836B831982C0
:101040008A81843008F075C08B81883008F071C0C7
:101050008A81282F30E03D832C838C819D818130D3
:10106000910549F12C813D81223031052CF48C8190
:101070009D81009761F05AC02C813D81223031055D
:1010800071F18C819D8183309105E9F14FC0ABE313
:10109000B0E0EBE3F0E08081482F8B81282F30E037
:1010A00081E090E0022E02C0880F991F0A94E2F7B7
:1010B00084278C933BC0A8E3B0E0E8E3F0E08081B4
:1010C000482F8B81282F30E081E090E0022E02C073
:1010D000880F991F0A94E2F784278C9327C0A5E311
:1010E000B0E0E5E3F0E08081482F8B81282F30E0ED
:1010F00081E090E0022E02C0880F991F0A94E2F767
:1011000084278C9313C0A2E3B0E0E2E3F0E0808197
:10111000482F8B81282F30E081E090E0022E02C022
:10112000880F991F0A94E2F784278C9381E08983C2
:1011300002C083E0898389810F900F900F900F90F8
:101140000F90CF91DF910895DF93CF9300D000D01F
:1011500000D0CDB7DEB78A837C836B8319828B8105
:101160009C81009709F443C08A818430E8F58A8124
:10117000282F30E03E832D838D819E818130910523
:10118000E1F02D813E81223031052CF48D819E814C
:10119000009761F026C02D813E8122303105A1F0FB
:1011A0008D819E8183309105B1F01BC0E9E3F0E0B1
:1011B0008081EB81FC81808314C0E6E3F0E08081D4
:1011C000EB81FC8180830DC0E3E3F0E08081EB8163
:1011D000FC81808306C0E0E3F0E08081EB81FC814C
:1011E000808381E0898305C083E0898302C082E037
:1011F0008983898126960FB6F894DEBF0FBECDBFD6
:10120000CF91DF910895DF93CF93CDB7DEB72797C6
:101210000FB6F894DEBF0FBECDBF8A836B835D83AC
:101220004C8319828C819D81009709F47EC08A814C
:10123000843008F077C08B81883008F073C08A81D1
:10124000282F30E03F832E834E815F81413051054E
:1012500059F18E819F818230910534F42E813F8136
:101260002115310569F05BC04E815F814230510527
:1012700079F18E819F818330910509F43DC04FC083
:10128000E9E3F0E08081282F30E08B81882F90E027
:10129000A90102C0559547958A95E2F7CA01817068
:1012A000EC81FD8180833BC0E6E3F0E08081282F64
:1012B00030E08B81882F90E0A90102C055954795B9
:1012C0008A95E2F7CA018170EC81FD81808327C095
:1012D000E3E3F0E08081282F30E08B81882F90E0DD
:1012E000A90102C0559547958A95E2F7CA01817018
:1012F000EC81FD81808313C0E0E3F0E08081282F42
:1013000030E08B81882F90E0A90102C05595479568
:101310008A95E2F7CA018170EC81FD81808381E0CA
:10132000898305C083E0898302C082E08983898143
:1013300027960FB6F894DEBF0FBECDBFCF91DF91D9
:101340000895DF93CF9300D000D00F92CDB7DEB7D2
:101350008A836B8319828A81843008F065C08B810F
:101360008295807F8B838A81282F30E03D832C8378
:101370008C819D818130910529F12C813D81223024
:1013800031052CF48C819D81009761F04AC02C813D
:101390003D812230310531F18C819D818330910571
:1013A00089F13FC0ABE3B0E0EBE3F0E080818F7008
:1013B0008C93ABE3B0E0EBE3F0E090818B81892B81
:1013C0008C932FC0A8E3B0E0E8E3F0E080818F7059
:1013D0008C93A8E3B0E0E8E3F0E090818B81892B67
:1013E0008C931FC0A5E3B0E0E5E3F0E080818F704F
:1013F0008C93A5E3B0E0E5E3F0E090818B81892B4D
:101400008C930FC0A2E3B0E0E2E3F0E080818F7044
:101410008C93A2E3B0E0E2E3F0E090818B81892B32
:101420008C9381E0898302C083E0898389810F9056
:101430000F900F900F900F90CF91DF910895DF9351
:10144000CF9300D000D00F92CDB7DEB78A836B83E5
:1014500019828A81843008F064C08B818F708B83FD
:101460008A81282F30E03D832C838C819D818130BF
:10147000910529F12C813D81223031052CF48C819C
:101480009D81009761F04AC02C813D812230310559
:1014900031F18C819D818330910589F13FC0ABE3AF
:1014A000B0E0EBE3F0E08081807F8C93ABE3B0E0D1
:1014B000EBE3F0E090818B81892B8C932FC0A8E324
:1014C000B0E0E8E3F0E08081807F8C93A8E3B0E0B7
:1014D000E8E3F0E090818B81892B8C931FC0A5E31A
:1014E000B0E0E5E3F0E08081807F8C93A5E3B0E09D
:1014F000E5E3F0E090818B81892B8C930FC0A2E310
:10150000B0E0E2E3F0E08081807F8C93A2E3B0E082
:10151000E2E3F0E090818B81892B8C9381E08983D9
:1015200002C083E0898389810F900F900F900F9004
:0C1530000F90CF91DF910895F894FFCF49
:08153C0003020002000100009F
:00000001FF
